:020000040800F2
:10000000B00800209D0200089F3E0008E537000868
:100010009D3E000895150008634700080000000099
:10002000000000000000000000000000B7410008D0
:100030009715000800000000A13E0008B941000823
:10004000B7020008B7020008B7020008B7020008AC
:10005000B7020008B7020008B7020008B70200089C
:10006000B7020008B7020008B7020008B70200088C
:10007000B7020008B7020008B7020008B70200087C
:10008000B702000800000000B7020008B70200082D
:10009000B7020008B7020008B7020008B70200085C
:1000A000B7020008B702000835420008B70200088E
:1000B000B702000841420008B7020008B702000872
:1000C000B7020008B7020008B7020008B70200082C
:1000D000B7020008B7020008B7020008B70200081C
:1000E000B7020008B7020008B7020008B70200080C
:1000F000B7020008B7020008B702000800000000BD
:1001000000000000B702000800000000B70200086D
:10011000B702000800000000B7020008B70200089C
:10012000B7020008B7020008B7020008B7020008CB
:10013000B70200080000000000000000B70200083D
:10014000B7020008B702000800000000000000002D
:10015000000000000000000000000000000000009F
:10016000000000000000000000000000B7020008CE
:10017000B7020008000000000000000000000000BE
:1001800000000000B70200080000000000000000AE
:10019000000000000000000000000000000000005F
:1001A0000000000000000000B7020008B7020008CD
:1001B000B7020008B7020008B702000800000000FC
:1001C00000000000B702000800000000000000006E
:1001D000B7020008B702000800F002F800F04FF87C
:1001E0000AA090E8000C82448344AAF10107DA4592
:1001F00001D100F044F8AFF2090EBAE80F0013F095
:10020000010F18BFFB1A43F001031847746A00007E
:10021000946A0000103A24BF78C878C1FAD852070F
:1002200024BF30C830C144BF04680C607047000070
:100230000023002400250026103A28BF78C1FBD8EF
:10024000520728BF30C148BF0B607047662905F0D0
:10025000DA83642900F08080632900F0FA830020AB
:1002600070471FB505F0C5FB00F000FC040000203E
:10027000002104F045FEE0601FBD10B510BD00F088
:10028000F5FC1146FFF7EDFF04F072FC00F013FDE2
:1002900003B4FFF7F2FF03BC00F056FD09488047A6
:1002A00009480047FEE7FEE7FEE7FEE7FEE7FEE758
:1002B000FEE7FEE7FEE7FEE704480549054A064B70
:1002C0007047000025420008D9010008B002002054
:1002D000B0080020B0040020B00400200FB41CB50A
:1002E000074B06AA7B4469460090059800F08FFBF7
:1002F0000020694600F09EFB1CBC5DF814FB00006A
:100300004D07000070B50C460546012A05D0287837
:10031000800600D5EA69002302E0012305E05B1CAA
:10032000934202D2E05C0028F9D1A869E618C01A0D
:10033000A861286A184428622846AFF3008004E0C8
:10034000D5E9012114F8010B9047B442F8D32846AF
:10035000AFF3008070BD00002DE9F0410646002497
:1003600010687529314616A510D0AFF3008000281B
:1003700002DA404213A507E031688A0701D512A5C9
:1003800002E0490704D511A5012401E0AFF3008084
:1003900000210A2206F1240709E0B0FBF2FCB0FBC1
:1003A000F2F302FB1C00303078541846491C002838
:1003B000F3D123462A463046BDE8F04100F0B9B8F3
:1003C000000000002D0000002B00000020000000B5
:1003D0002DE9F0474FF0000A89460446C0F820A0F6
:1003E0002046E1688847002876D0252806D0D4E941
:1003F00001219047206A401C2062F1E7E168204615
:1004000000258847C4F81CA006460027C4F818A099
:100410002A2E09D0304604F0CDF938B304EB870812
:10042000303EC8F8186019E059F8041B204604EB68
:1004300087029161E1688847012F064618D1E0697B
:10044000002820DA25F020051DE0D8F8180000EB80
:10045000800006EB40003038C8F818002046E168FC
:100460008847064604F0A6F90028EED1012F0AD0ED
:100470002E2E08D12046E16888477F1C0646022FB1
:1004800045F02005C4DBA069002803DA404245F0AE
:100490000105A061E80701D025F01005B6B1A6F16D
:1004A0004100192802D8203645F400654A463146F5
:1004B000204625604D46FFF7C9FE58B1012806D0F9
:1004C000ED1D25F0070000F1080989E704E005F1BA
:1004D000040985E730468AE7206ABDE8F0874FF0D7
:1004E000000200B5134694469646203922BFA0E884
:1004F0000C50A0E80C50B1F12001BFF4F7AF090790
:1005000028BFA0E80C5048BF0CC05DF804EB890080
:1005100028BF40F8042B08BF704748BF20F8022BC3
:1005200011F0804F18BF00F8012B704770477047DB
:1005300070472DE9F0470D4699469246044600F172
:1005400024080168880604D5E06921F010012160C3
:1005500000E00120A84201DD471B00E00027A1695F
:100560007A1902EB0900081AA0612078C00602D4AB
:100570002046AFF30080002608E0D4E901211AF8F4
:1005800006009047206A401C761C20624E45F4DB32
:100590002078C0060AD52046AFF3008006E0D4E9F3
:1005A000012130209047206A401C2062381EA7F1AC
:1005B0000107F4DC07E0D4E9012118F805009047B1
:1005C000206A401C2062281EA5F10105F3DC2046AC
:1005D000AFF300802078000602D50220BDE8F08746
:1005E0000120FBE770472DE9FF4F0C461E464FF0F8
:1005F000FF378BB0D2E90001DDF860800A908A46AF
:10060000C1F30A5505B93D46002108464FF00000E8
:10061000BAF1000F00F4400005DA00EB80004FF45F
:10062000400101EA50004FEA9059B9F1010F00DD95
:10063000B9460A9850EA4A000ED044F61050A5F286
:10064000FF3545432F14B8F1000F1ED07542291E07
:100650001EDDC9F100021CE0B8F1010F4FF00000EF
:1006600001D0302103E0F24305E02154401CB042A8
:10067000FBDB30460022002121540B99C1F8088091
:10068000C1E900200FB0BDE8F08FBD1B6D1CDEE797
:100690004A4600DA694206A800F072FA06AB93E80F
:1006A000070003AB83E8070050460A9900F053FBAC
:1006B0008DE80700A0F500501F3800900398002D2A
:1006C0000ADD42F21F014A460844002303A90390B1
:1006D000684600F0BCFD09E0A0F500504A461F380E
:1006E000002303A90390684600F0C6FD8DE80700CB
:1006F0000004000C03D04FF0FF30410800E010462A
:10070000B8F1000F03D00022009215461EE0751EBE
:1007100005D400F0AFF9303262556D1EF9D5B346FD
:100720000122084302D000227F1C04E020783028F8
:1007300001D100227F1E002A099784D01DE0112DCF
:1007400007DA00F097F9303262556D1C50EA010269
:10075000F5D1084302D00098C8B10EE00021681E10
:1007600005E0235C625C63542254401E491C8142B4
:10077000F7DBAB46A81B401E0990002004F80B00D5
:100780000B98099AC0F80880C0E9002B7AE7112677
:100790004FF0000857E72DE9F04F88460446D21D78
:1007A00022F0070191B0D1E90001CDE90A0103F07F
:1007B000D9FF02460B98C00F01D02D2007E020681A
:1007C000810701D52B2002E0202101EAC000032A85
:1007D000099001D0072A05DB03464146204600F078
:1007E0008FF90BE12078800601D5E06900E0062052
:1007F000B8F1650F814606D0B8F1660F18D0B8F190
:10080000670F70D131E00020B9F1110F009001DBCA
:10081000112301E009F101030AAA01A90CA8FFF7BD
:10082000E2FEDDE90C70002609F10105834647E090
:1008300001204B4600904FF000470AAA01A90CA8DE
:10084000FFF7D1FEDDE90DB00C995D46002610B929
:1008500009F101000D18B9EB050003D4C0F1FF3612
:1008600009F10105A5EB09002BE0B9F1010F01DA4F
:100870004FF001090020B9F1110F0090484601DD49
:10088000112300E003460AAA01A90CA8FFF7ABFE5A
:10089000DDE90C704D4600268346207800070AD417
:1008A000AB4500DA5D4601A8012D04DD411911F8C0
:1008B000011C302907D04F4502DA17F1040F04DA82
:1008C000012082460FE06D1EEEE7002F02DCED1BDB
:1008D0003E4403E0781CA84200DD7D1CB81B00F1FB
:1008E000010A4FF000472078000703D4AA4501DB36
:1008F0004FF0FF3A0021B7F1004F0DF143088DF89A
:10090000431024D002202B23002F01DA7F422D2315
:100910000A21021EA0F1010000DC5FB197FBF1FC8F
:1009200097FBF1F201FB1C7C17460CF1300C08F828
:1009300001CDEEE7A8F1010003702188090501D57A
:10094000452100E06521A0F1010800F8011C09988B
:100950000FA9A1EB0807FF1D00B10120411901EB10
:10096000EA70A1693844081A401EA0612078C006C8
:1009700002D42046AFF30080099828B1D4E90121C0
:100980009047206A401C20622078C00622D520466D
:10099000AFF300801EE0002E04DBB34502DD01A8AA
:1009A000805D00E03020D4E901219047206A401C9E
:1009B0002062761CAAF101005FEA000A0AD100F069
:1009C00055F8C0680168405CD4E901219047206A6D
:1009D000401C2062281EA5F10105DCDC07E0D4E9FB
:1009E000012118F8010B9047206A401C2062381E34
:1009F000A7F10107F3DC2046AFF30080032011B01C
:100A000041E6000001694A1C02610878704700B5A0
:100A10008FB0CDE901310021059105497944CDE937
:100A2000031011466846FFF7D3FC0FB000BD00006D
:100A3000E5FFFFFF0A6802F8010B0A60704710B576
:100A4000436913B1AFF3008001E0FFF75BFC0120C5
:100A500010BD127800F124010A7000224A700122B0
:100A6000EDE711684FF0FF32E9E7000000487047FA
:100A70007002002030B5B0F10A024FEA900E71F119
:100A800000034EEA817EB0EB0E0061EB91014FEA6C
:100A9000101E4EEA017E10EB0E0041EB11114FEAE1
:100AA000102E4EEA016E10EB0E0041EB11214FEAC1
:100AB000104E4EEA014E10EB0E0041EB1141401872
:100AC00041F100014FEAD00040EA41704FEAD10104
:100AD00010EB80054FEA810444EA907444EB010472
:100AE0006D1944EB0404521BA3414FF0000348BFAF
:100AF0000A3200D530BD401C41F1000130BD00007C
:100B00002DE9F0411F46044603260168072A01F437
:100B1000006004DB08B116A505E016A503E008B1E6
:100B200015A500E015A521F010002060A069C01EE9
:100B3000A0610FB1401EA0612046AFF300804FB10D
:100B4000D4E9012138469047206A401C2062C01C2D
:100B5000206206E0206AFAE7D4E9012115F8010BCA
:100B60009047761EF8D22046AFF30080BDE8F081B2
:100B70004E414E006E616E00494E4600696E660041
:100B80002DE9F047814616468AB0354878440DC8AD
:100B90008DE80D0032487844801C03AC0DC884E811
:100BA0000D0041F69B300844372190FBF1F290FB99
:100BB000F1F5A5F1800501FB12041B3C02D564424E
:100BC000012000E00020DFF898A080460027FA44CA
:100BD000AAF1BE0A0EE0E0070AD03246684607EBEB
:100BE000470101230AEB810100F046FB8DE8070075
:100BF00064107F1C002CEED1194F7F44AE3F19E0EA
:100C0000E80715D007EB04100DF1180A90E80E0064
:100C10008AE80E00C068F04201D198190890324667
:100C2000012306A903A800F027FB03AB83E8070014
:100C30006D10641C002DE3D14FF00103324669466C
:100C4000B8F1000F03A802D000F001FB01E000F0B2
:100C500013FBC9E90001C9F808200AB0BDE8F08714
:100C6000D860000000487047500200207546FFF72A
:100C7000F9FFAE4605006946534620F00700854659
:100C800018B020B5FFF718FBBDE820404FF0000674
:100C90004FF000074FF000084FF0000B21F0070164
:100CA000AC46ACE8C009ACE8C009ACE8C009ACE8A7
:100CB000C0098D46704710B50446AFF3008020464A
:100CC000BDE81040FFF7E4BA4FF0013C50F8042BA8
:100CD00051F8043B9A4221D1A2EB0C03934313EA4F
:100CE000CC1317D150F8042B51F8043B9A4215D17C
:100CF000A2EB0C03934313EACC130BD150F8042B53
:100D000051F8043B9A4209D1A2EB0C03934313EA36
:100D1000CC13DBD04FF00000704700BFD01A01BAEF
:100D2000B1FA81F101F0180122FA01F0CB40C1F1D2
:100D30002001DBB2C0B2C01A2CFA01F3D11A9143E0
:100D400011EAC311E6D1704701491820ABBEFEE796
:100D50002600020070475FEA400C08BF91F0000FC8
:100D60004FEA8C234FEAC12243EA51514FEA1C500B
:100D700018BF00F5F0404FEA300018BF41F00041C5
:100D80005FEA6C5C00F02980BCF1FF3F08BF40F0D7
:100D900080407047130C06BF12044FF0100C4FF048
:100DA000000C130E04BF12020CF1080C130F04BF49
:100DB00012010CF1040C930F04BF92000CF1020C11
:100DC000D30F04BF52000CF1010C11464FF000028A
:100DD000A0F11F00A0EB0C00704711F0004F08BFFE
:100DE000704731F000413FF4D5AF0B0C06BF09044A
:100DF0004FF0100C4FF0000C0B0E04BF09020CF169
:100E0000080C0B0F04BF09010CF1040C8B0F04BF7D
:100E100089000CF1020CCB0F04BF49000CF1010C4E
:100E2000CCF12003A0EB0C0022FA03F302FA0CF23F
:100E300041EA030100F10100704720F07F4C80EA95
:100E4000030023F07F47ACEB070303F57C5300F06E
:100E5000004003F1FF032DE980494FEA154B09B427
:100E60004FEA144325EA0B4E24EA03480FF2042606
:100E700006EB132749083E785FEA320203FB066758
:100E8000C7F5000707FB06F64FEA54374FEAD64688
:100E900006F1020607FB066CCCF1005C4FEA1C472A
:100EA0002CEA074C07FB06F40CFB06F504EB154691
:100EB0004FEA961634BF00204FF000404FEAD1377A
:100EC00006FB07FC4FEA1C4C0CFB0BF7D21B03FB89
:100ED0000CF761EB07010CFB0EF7B0EB074072EB70
:100EE00017420CFB08F734BFA2EB0742B2EB0742F4
:100EF00061EB17414FEA0C444FEA910706FB07FCF0
:100F00004FEA1C4C0CFB0BF7B0EBC74072EB5732AF
:100F100003FB0CF734BFA2EBC742B2EBC74261EB55
:100F200057310CFB0EF7B0EBC70072EB57720CFB9E
:100F300008F734BFA2EBC702B2EBC70261EB5771EF
:100F4000039F4FEA816141EA921104EBCC044FEA1E
:100F5000D1374FEA826206FB07FC42EA90124FEA61
:100F600080604FEA1C4C0CFB0BF7D21B03FB0CF709
:100F700061EB07010CFB0EF7B0EB074072EB174279
:100F80000CFB08F734BFA2EB0742B2EB074261EB60
:100F900017414FEA8C554FEA910704EB9C2406FB5E
:100FA00007FC4FEA1C4C0CFB0BF7B0EBC74072EB95
:100FB000573203FB0CF734BFA2EBC742B2EBC74278
:100FC00061EB57310CFB0EF7B0EBC70072EB5772B9
:100FD0000CFB08F734BFA2EBC702B2EBC70261EB10
:100FE000577115EB4C254FEA816141EA92114FEAA6
:100FF00082624FEAD13742EA901206FB07FC44F1C5
:1010000000044FEA80604FEA1C4C0CFB0BF7D21B2C
:1010100003FB0CF761EB07010CFB0EF7B0EB07408D
:1010200072EB17420CFB08F734BFA2EB0742B2EB9E
:10103000074261EB174115EB1C154FEA813141EA7C
:1010400092414FEA823242EA90424FEA80304FEAC0
:101050000C7644F1000448EA03434EEA0B484FF093
:10106000000EB2EB080C71EB030724BF6246394651
:101070004EEB0E0E4FF0000B0018524149414BEB66
:101080000B0BB2EB080C71EB03077BF1000B24BFD9
:10109000624639464EEB0E0E4FF0000B00185241DF
:1010A00049414BEB0B0BB2EB080C71EB03077BF1E7
:1010B000000B24BF624639464EEB0E0E51EA020782
:1010C00018BF46F0010616EB0E7655F1000254F1FA
:1010D000000103D5BDE88901BDE80088BDE88901AC
:1010E000BDE80048B619524141EB0101A3F10103EB
:1010F000704780807F7E7D7C7B7A79787776767585
:101100007473727171706F6E6E6D6C6C6B6A6A69FC
:101110006868676666656464636362616160605F96
:101120005F5E5E5D5D5C5C5B5B5A5A59595858570F
:101130005756565555555454535352525251515077
:1011400050504F4F4F4E4E4D4D4D4C4C4C4B4B4BCA
:101150004A4A4A4949494848484747474746464610
:10116000454545444444444343434342424242414B
:101170004141002B9C4630D477002BD01CB54FEA60
:10118000370703B44FF010004FF01001BAF1000F11
:1011900006D0BCF1000FDCBF40F0080040F00801B1
:1011A0004FF000000FBCBDE810400BF1010BBBF18C
:1011B000010F08BF5FEA170722BF12F1010211F108
:1011C00001014FF0004143F1000300F0004043EA09
:1011D00000007047F9D35708D0E746EA064613F1F6
:1011E000400F4FEA16461FDD13F1200FDFBF1643F5
:1011F0000A46002120335B42BED0C3F1200746EAF5
:10120000064602FA07F74FEA164646EA0706C3F112
:10121000200722FA03F201FA07F721FA03F14FF04F
:10122000000342EA0702A7E746EA020646EA064644
:101230004FEA164646EA0106BCBF46EA0646360CA9
:101240004FF000034FF000024FF0000194E72DE94A
:10125000804C9A46934670B491E8380007C831EA4A
:10126000400C48BF34EA430C03D5FFF7E6FDFFF717
:1012700080FFF0BCBDE8008C2DE9804C9A46934677
:1012800070B491E8380007C810F0804F08BF13F021
:10129000804F03D100F005F8FFF76BFFF0BCBDE80D
:1012A000008C20F07F4780EA030023F07F4C07EB9F
:1012B0000C03A3F57C5300F00040A3F1FE0392F071
:1012C000000F00F0B38095F0000F00F077802DE95B
:1012D00001494FEA11404FEA144621EA004800FB59
:1012E00006FC24EA064708FB06F607FB08F800FBA5
:1012F00007F718EB06484CEB164C4FEA124B18EB6D
:1013000007484FEA15464CEB174022EA0B4E0BFB01
:1013100006FC25EA06470EFB06F607FB0EFE0BFB56
:1013200007F71EEB064E4CEB164C4FF000061EEB7B
:10133000074E4CEB174B18EB0B0840F1000018EB75
:101340000E0B58EB000840F100008F1A4FF000011F
:101350003CBFC943661B14BFB5EB040C00213CBF66
:10136000C943F61B4FEA17444EEA8E0E27EA04459E
:101370004FEA1C4704FB07622CEA074C05FB07F702
:101380000CFB05F604FB0CFC16EB074642EB174280
:1013900016EB0C4642EB1C421BEB060658EB020216
:1013A000414146EA9E0601D5BDE80189B619524180
:1013B00041EB0101A3F10103BDE801894FEA1445A6
:1013C0004FEA114724EA054621EA074C05FB07F4DA
:1013D00006FB07F70CFB06F105FB0CFC11EB0741C4
:1013E00044EB17444FEA124711EB0C4144EB1C4409
:1013F00022EA074C05FB07F206FB07F70CFB06F693
:1014000005FB0CFC16EB074642EB174216EB0C46AD
:1014100042EB1C456A1854F1000148BF7047B619E9
:10142000524141EB0101A3F10103704795F0000F18
:1014300037D04FEA11424FEA144721EA024624EA24
:10144000074C02FB07F106FB07F70CFB06F402FB57
:101450000CFC14EB074441EB17414FEA154714EB22
:101460000C4441EB1C4125EA074C02FB07F506FB47
:1014700007F70CFB06F602FB0CFC16EB074645EBE8
:10148000174516EB0C4645EB1C42121951F10001B1
:1014900048BF7047B619524141EB0101A3F1010366
:1014A00070474FEA14454FEA114724EA054621EAFE
:1014B000074C05FB07F106FB07F70CFB06F24FF0A4
:1014C000000605FB0CFC12EB074241EB174112EB47
:1014D0000C4251EB1C4148BF7047921841EB01018F
:1014E000A3F1010370470000F8B504460020009006
:1014F0002068816811F0010F41D18168214A1142B1
:101500002ED18168D5432940491C81601E488068DE
:1015100000F0E07000020DD51C481D490068B0FBCA
:10152000F1F0401C00EB4000800000E0401E009005
:101530000028FBD100F046FD06461BE0816811F053
:10154000010F03D181682940491C816000F03AFDF8
:10155000801B02280ED920680068C043C00709D04C
:10156000E06D40F01000E065206E40F00100206664
:101570000120F8BD20680168C943C907DED10020F9
:10158000F8BD00003F000080000300505C00002018
:10159000400D0300FEE77047002240F6B83306E036
:1015A0000021491C89B29942FBD3521C92B282425B
:1015B000F6D3704772B6FEE72DE9F84F00270446D0
:1015C000009790F85800DFF8E0930D46B8460128E0
:1015D00011D0012684F85860206802F0EBFA60B15F
:1015E000E06D40F02000E0655FF0010784F858806E
:1015F0003846BDE8F88F0220FBE7D5E900210C232F
:10160000206803EA91131844036B01F01F014FF0A7
:101610001F0C0CFA01FCC2F3846223EA0C038A401B
:1016200013430363206802F0C5FA8246206802F083
:10163000BDFA5AEA00003CD1AA6829682068B2F1D4
:10164000004F37D002F0BAFA2068416921F000411A
:10165000416120686969C268C2F3C10252009140C9
:101660002A69042A31D000EB82002B68026EDFF871
:101670003CC303F0F84302EA0C020B431A4342F066
:101680000041016620682A69A96900EB8200026EA8
:1016900022F080720A430266297F226828690129A4
:1016A00010D0002102EB8000026E22F000720A438B
:1016B00002667DE0002202F081FA2068416941F073
:1016C0000041C5E74FF00071ECE7002102F068FA35
:1016D000400320684FF0000172D002F061FA90FAE6
:1016E000A0F0B0FA80F1286842036ED090FAA0F022
:1016F000B0FA80F0814204D100221146206802F045
:101700006CFA0121206802F04BFA400320684FF088
:1017100001015DD002F044FA90FAA0F0B0FA80F135
:101720002868420359D090FAA0F0B0FA80F08142C4
:1017300004D100220121206802F04FFA0221206822
:1017400002F02EFA400320684FF0020148D002F068
:1017500027FA90FAA0F0B0FA80F12868420344D04A
:1017600090FAA0F0B0FA80F0814204D10022022168
:10177000206802F032FA0321206802F011FA4003D7
:1017800020684FF0030133D002F00AFA90FAA0F07B
:10179000B0FA80F1286842032FD090FAA0F0B0FA96
:1017A00080F0814204D100220321206802F015FA62
:1017B0002068816811F0010F22D0ACE000E004E065
:1017C00002F0EEF9C0F384618DE7C0F3846091E725
:1017D00002F0E6F9C0F38461A2E7C0F38460A6E7F3
:1017E00002F0DEF9C0F38461B7E7C0F38460BBE7C1
:1017F00002F0D6F9C0F38461CCE7C0F38460D0E78F
:101800002A7B296850F8B03FC1F3120C23EA0C037D
:1018100002F0180C664A22FA0CF20A4013430360E5
:10182000E968494577D1286841031CD090FAA0F1B6
:10183000B1FA81F1491C01F01F0109294FEA403139
:1018400032D8002912D000BF90FAA0F1B1FA81F18C
:1018500001F1010101F01F0106FA01F609D100BFF3
:10186000C0F3846109E0C0F38461E3E7C0F38461FD
:10187000EEE790FAA0F1B1FA81F101F1010101F076
:101880001F0146EA816102D1C0F3846003E090FA4F
:10189000A0F0B0FA80F000F1010000F01F0000EBB2
:1018A000400041EA005132E000290ED090FAA0F148
:1018B000B1FA81F101F1010101F01F0106FA01F60F
:1018C00006D100BFC0F3846106E0C0F38461F1E794
:1018D00090FAA0F1B1FA81F101F1010101F01F01CB
:1018E00046EA816102D1C0F3846003E090FAA0F07F
:1018F000B0FA80F000F1010000F01F002D4A00EB6B
:10190000400002EB005041EA000141F00071AA687A
:10191000206802F053F928482A6802423FF466AE74
:1019200026488168264B01F0E0719A4202D0254B8F
:101930009A421CD10B021AD42268B2F1A04F7FF454
:1019400055AE826841F4000122F0E0720A438260E1
:101950001D481E490068B0FBF1F0401C00EB400040
:10196000800000E0401E00900028FBD13EE6184DAC
:10197000184BAA4207D1CD0105D422689A42F5D06E
:1019800041F0807109E0144DAA42EFD14A02EDD432
:1019900022689A42EAD041F48001826822F0E07223
:1019A0000A43826022E6000000007F4000F0FF034F
:1019B000FFFF0700000020FE000008800003005029
:1019C000000021C31000C0905C000020400D030007
:1019D000000052C700010050000084CB0068006C7A
:1019E00070470000F8B54FF0000504002E46009542
:1019F00002D0E06D10B107E00120F8BD204600F0F4
:101A0000EBF8266684F8586020688168C1F340715D
:101A100019B18168684A1140816020688168C1F30A
:101A2000007189B98168654A114041F08051816037
:101A3000634864490068B0FBF1F04000801C00E09E
:101A4000401E00900028FBD120688168C1F300711E
:101A500041B9E16D41F01001E165216E41F00101F4
:101A60002166012502F0A6F8E16DC90600D430B167
:101A7000E06D40F01000E06501252846F8BDE06DFE
:101A800020F4807040F00200E0652068806810F06B
:101A9000010F11D14FF0A04080684B4900F00100C8
:101AA000896801F00101084306D1484861688268ED
:101AB00022F47C120A438260E168E06B627F084393
:101AC000A16841EA4231084394F8241040EA0140F9
:101AD000012904D1218D3E4A02EB41410843E16ACC
:101AE00029B101F47871226B014342EA01002268B6
:101AF000D168384B19400143D16020680169626B9D
:101B000021F0406111430161206802F04FF870BB81
:101B1000207F94F83810800340EA41022168C868A9
:101B200044F2020398431043C860206900282068EB
:101B300001690AD041F480310161206850F8C01F6A
:101B400022696FF30D01114307E021F48031016137
:101B5000206850F8C01F6FF30D01016094F8400039
:101B600001280CD02068016921F001010161606940
:101B700001282068016B21F00F0111D013E0D4E996
:101B800011010843D4E913121143084321680A697B
:101B900040F2FC739A43104340F001000861E6E70D
:101BA000226A521E11430163E06D20F0020040F0F2
:101BB0000100E06561E70000C0FFFF5FC0FFFF7F3D
:101BC0005C000020400D03000001005000030050A5
:101BD0000000FEFF0740F0FF10B598B00446142146
:101BE00011A8FEF77CFC44216846FEF778FC1549F5
:101BF0002068884223D1C401400500940F906846B4
:101C000000F0DEFA08B1FFF7D5FC0F48C16C41F4D3
:101C10000051C164C16C01F400511691C16C41F0D6
:101C20000201C164C06C11A900F0020016900320EB
:101C3000CDE9114000201390044800F095F818B049
:101C400010BD0000000100500010024000040048D8
:101C50002DE9F04104463848806800F01F052068EF
:101C600001F0A8FF18B102210846BDE8F08194F800
:101C7000580001280CD0012084F858002046FFF7B6
:101C800033FC01004FF0000304D084F85830EBE738
:101C90000220EAE7E06D40F60162904340F4807074
:101CA000E065264A20684FF0A046904201D13746B1
:101CB00000E00746874200D01DB9E76D27F4801782
:101CC000E765E76DFF0404D5276E27F00607276652
:101CD00000E023661C27076084F858302068904293
:101CE00001D1334600E00346834215D0A5B1052D4E
:101CF00012D0092D10D0E36D43F48013E3659042B8
:101D000000D13046C0688001AED5E06D20F40050AF
:101D100040F48050E065A7E7C268920105D5E26D06
:101D200022F4005242F48052E2658268044B1A4069
:101D3000121D826098E7000000030050000100506F
:101D4000C0FFFF7F70B5044600F03CF90546601CFB
:101D500002D004484068044400F034F9401BA0421B
:101D6000FAD370BD500000202DE9F04FDFF820922B
:101D7000002301260324A9F1040B85B00F2709F1E4
:101D8000040AABF1040EFAE006FA03F52A407CD00F
:101D900091F804C00CF0030CBCF1010F02D0BCF1AF
:101DA000020F26D1D0F808C0CDF800C04FEA430C8E
:101DB00004FA0CF8CDF810C0DDF800C02CEA080CCD
:101DC000CDF800C0D1F80C80DDF810C008FA0CF88E
:101DD000DDF800C048EA0C08C0F80880D0F804C05C
:101DE0002CEA050C0D79C5F300159D4045EA0C055C
:101DF00045600D79ED43AD070ED0C5684FEA430845
:101E000004FA08FC25EA0C05D1F808C00CFA08FC15
:101E10004CEA050CC0F80CC00D7905F00305022D45
:101E200016D1DD0800EB850CCDF808C0DCF8208069
:101E30005D074FEAD56C07FA0CF528EA05080D692D
:101E400005FA0CF5DDF808C045EA0805CCF8205085
:101E500005684FEA430CCDF808C004FA0CFC25EAEB
:101E60000C0591F804C00CF00308DDF808C008FA6E
:101E70000CF848EA0508C0F800804D6815F4403FAA
:101E80007CD0444DD5F860C000E077E04CF0010C08
:101E9000C5F860C02D6E23F0030C05F00105009518
:101EA0003D4D65440295AD684FEA837C4FEA1C784E
:101EB00007FA08FC25EA0C05B0F1904F06D0DFF8D0
:101EC000DCC0604505D14FF0010C20E04FF0000C64
:101ED0001DE0DFF8CCC0604502D14FF0020C16E0E7
:101EE000DFF8C0C0604502D14FF0030C0FE0DFF80F
:101EF000B8C0604502D14FF0040C08E0DFF8ACC078
:101F0000604502D14FF0050C01E04FF0060C0CFAD1
:101F100008FC4CEA050C029DC5F808C0D9F8005031
:101F2000CC46D1F8048095435FEAC82800D5154314
:101F3000CCF80050DAF80050D446D1F8048095432C
:101F40005FEA882800D51543CCF80050DBF8005034
:101F5000DC46D1F8048095435FEA883800D5154304
:101F6000CCF80050DEF80050F446D1F804809543D8
:101F70005FEAC83800D51543CCF800505B1C0A68EE
:101F800032FA03F57FF400AF05B0BDE8F08F000032
:101F90000804014000100240000001400004004815
:101FA00000080048000C00480010004800140048D9
:101FB0000069084000D0012070470AB18161704774
:101FC000816270470148806870470000500000201F
:101FD00002488168426811448160704750000020C7
:101FE00010B50024032000F073F80F2000F008F86B
:101FF00008B1012401E000F025F8204610BD0000E2
:1020000070B50E4E05460024706898B14FF47A7191
:10201000B1FBF0F00A490968B1FBF0F000F03CFDBB
:1020200040B9102D06D200222946501E00F030F88B
:10203000356000E00124204670BD00005000002003
:102040005C0000200A4882B0016E41F00101016687
:10205000016E01F001010091816D41F080518165B7
:10206000806D00F08050009002B000F0A1B8000038
:1020700000100240002809DB00F01F0201219140FE
:102080004009800000F1E020C0F800117047000016
:10209000F0B40E4B1B680C46C3F30223C3F10705D3
:1020A000042D00D90425191D072901D2002300E0C1
:1020B000DB1E012606FA05F1491E214099409E408B
:1020C000761E16403143F0BC02F064BB0CED00E01C
:1020D000064900F0070208684FF6FF03184040EA7F
:1020E0000220034A10430860704700000CED00E036
:1020F0000000FA052B492C4B0A6832214A432B4930
:1021000040B1B0F5007F086829D020F4C06040F4E9
:1021100080602CE00868C0F34120022804D051F808
:10212000800F20F4807022E0D1F8800020F48070CD
:10213000C1F88000086820F4C06040F400700860B6
:10214000B2FBF3F0401C00E0401E4A69520501D585
:102150000028F9D1486940050AD503207047C0F32B
:102160004120022806D051F8800F40F480700860AA
:1021700000207047D1F8800040F48070C1F88000E2
:10218000086820F4C06040F400700860B2FBF3F00F
:10219000401C00E0401E4A695205DBD50028F9D1F9
:1021A000D8E700005C00002040420F0000700040B3
:1021B0000248816841F480418160704700700040AE
:1021C0002DE9F8430446006800269D4D00035ED5C6
:1021D000A86D0027C00008D4A86D40F08050A86505
:1021E000A86D012700F080500090DFF85892D9F8D0
:1021F000001041F48071C9F80010FFF7E3FE80463B
:1022000006E000BFFFF7DEFEA0EB080002282BD897
:10221000D9F80000C005F5D5D5F8900010F440704D
:1022200014D0216C814211D0D5F89000D5F89010CF
:1022300020F4407041F48031C5F89010D5F890102A
:1022400021F48031C5F89010C5F89000C00711D076
:10225000FFF7B8FE804641F2883907E0FFF7B2FE8B
:10226000A0EB0801494501D903260BE0D5F8900001
:102270008007F3D5D5F89000216C20F44070084316
:10228000C5F890001FB1A86D20F08050A865207897
:10229000C00707D0D5F88800616820F00300084324
:1022A000C5F888002078800707D5D5F88800A16890
:1022B00020F00C000843C5F888002078400707D5B7
:1022C000D5F88800E16820F030000843C5F88800A0
:1022D0002078000707D5D5F88800216920F0C000D4
:1022E0000843C5F888002078800607D5D5F888000F
:1022F000616920F440600843C5F8880020784006F2
:1023000007D5D5F88800A16920F440500843C5F8E6
:1023100088002078000607D5D5F88800E16920F408
:1023200040400843C5F888002088C00507D5D5F887
:102330008800216A20F440300843C5F888002088CE
:10234000800507D5D5F88800616A20F4402008434D
:10235000C5F88800208840050FD5D5F88800A16A07
:1023600020F440100843C5F88800A06AB0F5801F2B
:1023700003D1E86840F48010E860208800050FD59C
:10238000D5F88800E16A20F440000843C5F88800C9
:10239000E06AB0F5800F03D1E86840F48010E8608F
:1023A0002088C0040FD5D5F88800216B20F040703C
:1023B0000843C5F88800206BB0F1807F03D1E8683E
:1023C00040F48010E86020884FF0006180040ED552
:1023D000D5F88800626B20F040601043C5F8880093
:1023E000606B884203D1E86840F48010E860208880
:1023F00040040ED5D5F88800A26B20F04060104351
:10240000C5F88800A06B884203D1E86840F48010CA
:10241000E860208800040FD5D5F88800E16B20F033
:1024200040500843C5F88800E06BB0F1805F03D1ED
:10243000E86840F48030E8603046BDE8F88300008A
:1024400000100240007000402DE9F0470E460500E4
:102450004FF0000725D0DFF8AC81D8F8000000F07D
:102460000F00B0420CD2D8F8001021F00F01314318
:10247000C8F80010D8F8000000F00F00B04210D1EA
:102480002968614CC80741F2883A5AD06868DFF879
:102490007C91032808D0022820682DD04005002810
:1024A0002CDB0120BDE8F08720688001F9D5E068C9
:1024B00000F00302E068C0F30310401C032A19D0A7
:1024C000534A00BFB2FBF0F0E268C2F30622504369
:1024D000E268C2F34162521C5200B0FBF2F0484580
:1024E00017D9A06810F0F00F0CD0880711D5A86894
:1024F00040B10EE0474AE5E78003D0E700F092F8EC
:10250000484506D9A06820F0F00040F08000A060A7
:102510008027A068696820F003000843A060FFF7E7
:1025200051FD814606E000BFFFF74CFDA0EB09011D
:1025300051453AD8A068696800F00C00B0EB810FF3
:10254000F2D12868810714D5400703D5A06840F46C
:10255000E060A0602878000705D5A06820F46050EE
:1025600040F4E060A060A068A96820F0F000084393
:1025700004E0802F03D1A06820F0F000A060D8F81C
:102580000010404601F00F01B14216D9016821F058
:102590000F0131430160FFF715FD074607E000BF5B
:1025A000FFF710FDC11B514501D903207AE7D8F888
:1025B000000000F00F00B042F2D12878400705D5A6
:1025C000A068E96820F4E0600843A060287800076C
:1025D00006D5A068296920F4605040EAC100A060D7
:1025E00000F020F8A1680C4AC1F30311515C01F01E
:1025F0001F01C8400949086009480068BDE8F04764
:10260000FFF7FEBC002002400010024000B4C404EA
:102610000024F40000366E010A5A00085C00002015
:1026200050000020184910B58868C0F3810217488F
:10263000012A0BD08A68164BC2F38102022A06D007
:102640008A68C2F38102032A03D0002010BD184615
:1026500010BDCA6802F00304CA68C2F30312521C18
:10266000032C02D0B0FBF2F001E0B3FBF2F0CA6839
:10267000C968C2F306225043C1F34161491C4900B5
:10268000B0FBF1F010BD0000001002400024F40087
:1026900000366E012DE9F84304007AD02078F84D19
:1026A000C00747D0A868E96800F00C0001F00301FA
:1026B0000C2802D0082817D001E0032914D0606844
:1026C000B0F5803F17D0B0F5A02F286817D020F4C0
:1026D00080302860286820F4802028606068E0B19D
:1026E000FFF770FC064614E02868800322D5606876
:1026F0000028D2D01EE0286840F48030EDE740F496
:1027000080202860F7E700BFFFF75CFC801B64288F
:1027100070D828688003F7D50CE0FFF753FC064615
:1027200005E000BFFFF74EFC801B6428F0D8286846
:102730008003F7D4207880074CD5A868E96800F0BA
:102740000C0001F003010C2802D004280DD001E098
:1027500002290AD0E068002828682BD040F4807055
:102760002860FFF72FFC064619E02868400502D5CF
:10277000E068002891D06868217C20F0FE4040EAA3
:1027800001606860BF480068FFF73AFC002800D18C
:1027900020E072E1FFF716FC801B0228B8D82868F9
:1027A0004005F7D56868217C20F0FE4040EA0160D2
:1027B00068600FE020F480702860FFF703FC064695
:1027C00005E000BFFFF7FEFB801B0228A0D82868A9
:1027D0004005F7D42078000729D560690028D5F88E
:1027E000940013D040F00100C5F89400FFF7EAFB15
:1027F000064606E090E000BFFFF7E4FB801B0228DE
:1028000086D8D5F894008007F6D510E020F00100B6
:10281000C5F89400FFF7D6FB064604E0FFF7D2FBAD
:10282000801B022878D8D5F894008007F6D4207849
:10283000400761D5A86D0026C00008D4A86D40F0FF
:102840008050A865A86D012600F0805000908E4849
:102850000168C90511D40168804641F480710160A6
:10286000FFF7B0FB074604E0FFF7ACFBC01B0228F4
:1028700052D8D8F80000C005F6D5A068012815D0B8
:102880000528D5F8900016D020F00100C5F890007A
:10289000D5F8900020F00400C5F89000A06841F23F
:1028A0008838B8B1FFF78EFB07460EE0D5F89000E8
:1028B00040F00100F0E740F00400C5F89000F5E7B3
:1028C000FFF780FBC11B414526D8D5F89000800753
:1028D000F6D50CE0FFF776FB074604E0FFF772FB46
:1028E000C11B414518D8D5F890008007F6D41EB119
:1028F000A86D20F08050A8652078800629D5A069B1
:102900000028D5F8980013D040F00100C5F89800D1
:10291000FFF758FB064606E075E000BFFFF752FBE5
:10292000801B02286FD8D5F898008007F6D510E0F4
:1029300020F00100C5F89800FFF744FB064604E0CC
:10294000FFF740FB801B02285DD8D5F89800800770
:10295000F6D4E069F0B3A968C1F3810103295DD021
:102960000228286820F08070286003D0FFF72AFB37
:1029700004464BE0FFF726FB064604E0FFF722FB88
:10298000801B02283FD828688001F7D4F4E90801A9
:102990006FF00F0202EB01110843218A520449082B
:1029A00002EB4151A26841EA02210843217D4FF028
:1029B0007E42490802EB41610843217B40EAC16045
:1029C000E968324A11400843E860286840F08070A6
:1029D000286000E05EE0E86840F08070E860FFF7A3
:1029E000F1FA044605E000BFFFF7ECFA001B0228ED
:1029F00009D828688001F7D54CE000BFFFF7E2FA5C
:102A0000001B022802D90320BDE8F8832868800152
:102A1000F4D4E8681E490840E8603BE00128F3D0A0
:102A2000E868226A00F00301914226D1616A00F051
:102A3000F0020901103991421FD1A26A00F4FE414F
:102A4000B1EB022F19D194F82C2000F07841B1EBB2
:102A5000C26F12D1218E00F4C00249084905A1F5C8
:102A60000011914209D194F8341000F0C060490877
:102A70004906A1F1007181420CD00120C4E7000099
:102A80000010024050000020007000400C809F01A8
:102A9000FCFFEEFE0020B7E710B5401EB0F1807FCE
:102AA00001D3012010BD4FF0E02460610F216017B9
:102AB00001F070FE0020A06107202061002010BD01
:102AC000704770477047704770477047F0B590F88F
:102AD0003C20012A3AD0012580F83C50022280F89F
:102AE0003D2003685A689C68194E1A4FB34201D0C2
:102AF000BB4204D122F4700C4A6842EA0C02DFF8AF
:102B000058C002EA0C02D1F800C04CEA020CC3F82B
:102B100004C00268B2420DD0B2F1804F0AD00F4B10
:102B20009A4207D00E4B9A4204D0BA4202D00D4BC3
:102B30009A4204D1896824F080031943916080F897
:102B40003D50002180F83C100846F0BD0220F0BD49
:102B5000002C0140003401408FFFFFFD00040040C5
:102B60000008004000400140704710B5040003D049
:102B700094F83D0010B107E0012010BD002084F85A
:102B80003C00204600F022F8022084F83D00211D80
:102B9000206801F05BFB012084F8480084F83E00C7
:102BA00084F83F0084F8400084F8410084F8420033
:102BB00084F8430084F8440084F8450084F8460013
:102BC00084F8470084F83D00002010BD10B586B0A1
:102BD000044614216846FDF782FC21682448B1F1BF
:102BE000804F11D0234A914218D1816D41F00201EA
:102BF0008165806D002200F00200059011461D20C5
:102C0000FFF746FA1D202FE0816D41F0010181653B
:102C1000806D00F00100059006B010BD164A91428B
:102C2000FAD1016E41F480210166016E01F4802128
:102C30000591C16C41F00101C164C06C694600F0AE
:102C40000100059080200090022001900020029059
:102C50000390012004901004FFF786F8002211462B
:102C60001A20FFF715FA1A20FFF704FAD4E700003C
:102C700000100240000400400048014090F83D1060
:102C8000012901D001207047022180F83D10016820
:102C9000CA6842F00102CA600068104988420ED03A
:102CA000B0F1804F0BD00E49884208D00D498842C0
:102CB00005D00D49884202D00C49884207D181686D
:102CC0000B4A1140062906D0B1F5803F03D00168B8
:102CD00041F001010160002070470000002C01401C
:102CE0000004004000080040003401400040014062
:102CF0000700010070B5044690F83C00002501284B
:102D000014D0012684F83C60022084F83D0022683B
:102D10009068364B184020F47F4090600868702817
:102D20002ED010DC10F00F0F03D021E04FF0020086
:102D300070BD4FEA2012072A1AD2DFE802F0525281
:102D400052524A3840002A4BC21A984249D009DCF4
:102D5000B0F5805F0DD0B0F5005F1CD0B0F1101F52
:102D600006D13EE0102A3CD0202A3AD0502A38D052
:102D7000012584F83D60002084F83C00284670BDA1
:102D8000CB68D1E90121206801F0CBFA2068816885
:102D900041F0770109E0CB68D1E90121206801F019
:102DA000C0FA2068816841F480418160E1E7CA6827
:102DB0004968206801F060FC5021206806E0CA687C
:102DC0004968206801F0A0FC6021206801F0B4FA95
:102DD000CFE7CA684968206801F04EFC40212068AE
:102DE000F4E7226801461046F0E7000088FFCEFFB6
:102DF0002000100070B504462DED068B00682649B2
:102E0000884245D1207F012842D10021204600F090
:102E1000D3FC401C02F00EFB204D41EC100B0020B7
:102E200085ED020B2168486253EC102B9FED1C0BC3
:102E300051EC100B02F060F941EC180B1A4885EDCB
:102E4000008B64210068484302F0DDFA41EC190B65
:102E50001648006802F0D7FA9FED150B41EC1A0BEB
:102E600053EC102B51EC180B02F034FB9FED121BAE
:102E700053EC112B02F02EFB53EC1A2B02F02AFB21
:102E800053EC192B02F038F902F050F80C490860A5
:102E9000BDEC068B70BD00000048014068000020BA
:102EA0000000000080842E4110000020140000204B
:102EB00000000000000000401F85EB51B81E0940D3
:102EC000280000202DE9F041054690F83C0000263E
:102ED0000C46012810D0012085F83C0072B1042A6C
:102EE0001CD0082A2CD00C2A50D00126002085F8AE
:102EF0003C003046BDE8F0810220FBE7D4E9001237
:102F0000E368286801F0CAFB2868816921F00C0198
:102F1000816128688169A26811430FE0D4E9001239
:102F2000E368286801F002FC2868816921F44061A7
:102F3000816128688169A26841EA02218161D5E73F
:102F40002868D4E9002C277B036A016A21F4807188
:102F50000162C16923F4206321F0030141EA0C01FD
:102F600021F0F00C39074FF420674CEA116107EAB1
:102F700002221A43C16102622868C16921F00C0172
:102F8000C1612868C169A26811432BE02868D4E9AF
:102F90000021E768036AD0F820C02CF4805CC0F8F8
:102FA00020C0D0F81CC023F420432CF4407C4CEA11
:102FB000012121F4704C4FF6FF7101EA07314FF403
:102FC000204741EA0C0107EA02321A43C16102625A
:102FD0002868C16921F44061C1612868C169A2689B
:102FE00041EA0221C16181E710B5040003D094F8E1
:102FF0003D0010B107E0012010BD002084F83C0026
:10300000204600F022F8022084F83D00211D2068AF
:1030100001F01CF9012084F8480084F83E0084F88F
:103020003F0084F8400084F8410084F8420084F8AE
:10303000430084F8440084F8450084F8460084F88E
:10304000470084F83D00002010BD704710B50446CD
:1030500079B1042912D0082915D00C2918D01029CB
:1030600019D094F8430000BF94F84720012817D1E5
:1030700014E094F83E0094F84420F7E794F83F00F9
:1030800094F84520F2E794F8400094F84620EDE7E4
:1030900094F84100E8E794F84200E5E7012A01D0FE
:1030A000012010BD022081B3042934D0082937D073
:1030B0000C293AD010293BD084F8430084F847000B
:1030C0000122206801F020F91B49206888420ED0B7
:1030D000B0F1804F0BD01949884208D01849884276
:1030E00005D01849884202D01749884207D1816823
:1030F000164A1140062906D0B1F5803F03D0016879
:1031000041F001010160002010BDFFE784F83E009E
:1031100084F84400D4E784F83F0084F84500CFE702
:1031200084F8400084F84600CAE784F84100C5E707
:1031300084F84200C2E70000002C01400004004077
:103140000008004000340140004001400700010039
:1031500030B50446002571B1042911D0082914D0D6
:103160000C2917D0102918D094F8430094F8472060
:10317000012817D114E094F83E0094F84420F7E7B2
:1031800094F83F0094F84520F2E794F8400094F852
:103190004620EDE794F84100E8E794F84200E5E7BF
:1031A000012A01D0012030BD022079B1042916D0B6
:1031B00008291DD00C2949D010294AD084F8430091
:1031C00084F847000C2947D001253DE084F83E00F3
:1031D00084F844002068C26842F0020210E084F8DB
:1031E0003F0084F845002068C26842F0040207E00E
:1031F00084F8400084F846002068C26842F0080263
:10320000C2600122206801F07FF8164920688842D8
:103210000ED0B0F1804F0BD01349884208D013492B
:10322000884205D01249884202D01249884207D10B
:103230008168114A1140062906D0B1F5803F03D0BC
:10324000016841F001010160284630BD84F8410069
:10325000B6E784F84200B3E72068C26842F0100283
:10326000CEE70000002C01400004004000080040B0
:103270000034014000400140070001002DE9F04109
:1032800004460068C66805694FF00007A90713D512
:10329000B10711D5F91E01610120207720688069EE
:1032A0008007204602D0FFF7A5FD04E000F0DEF81D
:1032B000204600F0A0F92777680716D5700714D5C7
:1032C00021686FF00400086102202077206880697F
:1032D00010F4407F204602D0FFF78CFD04E000F0A0
:1032E000C5F8204600F087F92777280715D530075D
:1032F00013D521686FF0080008610420207720684A
:10330000C0698007204602D0FFF774FD04E000F09A
:10331000ADF8204600F06FF92777E80616D5F006DD
:1033200014D521686FF0100008610820207720680C
:10333000C06910F4407F204602D0FFF75BFD04E037
:1033400000F094F8204600F056F92777E80708D0F7
:10335000F00706D021686FF001000861204600F0F8
:10336000C9F9280601D4A80408D5300606D5216875
:103370006FF4025008612046FFF7A3FBE80508D56B
:10338000300606D521686FF4807008612046FFF78B
:1033900097FB680608D5700606D521686FF04000D7
:1033A0000861204600F01DFAA80608D5B00606D52B
:1033B00021686FF0200008612046FFF783FBE802D8
:1033C00008D5F00206D521686FF480100861204608
:1033D000FFF77AFBA80208D5B00206D521686FF482
:1033E000001008612046FFF76EFB680208D57002E6
:1033F00006D521686FF4800008612046FFF765FB61
:1034000028020AD5300208D521686FF4000008614F
:103410002046BDE8F041FFF7A7BBBDE8F081000002
:1034200010B586B0044614216846FDF758F82068A8
:10343000B0F1804F15D10C48C16C41F00101C1645D
:10344000C06C694600F001000590022000900190D8
:10345000002002900390012004904FF09040FEF76E
:1034600083FC06B010BD000000100240704770B52C
:10347000044690F83C0000260D4601280BD00120A0
:1034800084F83C000C2A4AD007DC82B1042A20D000
:10349000082A06D131E0022070BD102A53D0142A28
:1034A00063D00126002084F83C00304670BD2068BF
:1034B00000F04CFF2068816941F0080181612068BB
:1034C000816921F004018161206881692A691143C1
:1034D00011E0206800F088FF2068816941F40061F4
:1034E00081612068816921F480618161206881693E
:1034F0002A6941EA02218161D4E7206800F0BCFF1B
:103500002068C16941F00801C1612068C16921F0EA
:103510000401C1612068C1692A69114311E0206872
:1035200000F0F2FF2068C16941F40061C1612068C8
:10353000C16921F48061C1612068C1692A6941EAD9
:103540000221C161AEE7206801F026F82068016D14
:1035500041F0080101652068016D21F00401016559
:103560002068016D2A69114311E0206801F04CF8D0
:103570002068016D41F4006101652068016D21F44E
:10358000806101652068016D2A6941EA02210165B7
:1035900088E710B5040003D094F83D0010B107E0AF
:1035A000012010BD002084F83C00204600F022F8E5
:1035B000022084F83D00211D206800F047FE012014
:1035C00084F8480084F83E0084F83F0084F8400006
:1035D00084F8410084F8420084F8430084F84400F1
:1035E00084F8450084F8460084F8470084F83D00DC
:1035F000002010BD7047704730B50446022269B103
:10360000042912D0082917D00C291CD0102921D048
:1036100094F84300012824D0012030BD94F83E00E6
:103620000128F9D184F83E201DE094F83F000128DC
:10363000F2D184F83F2016E094F840000128EBD145
:1036400084F840200FE094F841000128E4D184F888
:10365000412008E094F842000128DDD184F842209E
:1036600001E084F843200122206800F04DFE194B50
:1036700020681949194A984209D0884207D09042D7
:1036800005D0174DA84202D0164DA84203D1456C73
:1036900045F400454564206898420CD0B0F1804F55
:1036A00009D0114B984206D0104B984203D0884263
:1036B00001D0904207D181680D4A1140062906D0F9
:1036C000B1F5803F03D0016841F0010101600020A5
:1036D00030BD0000002C014000340140004001409A
:1036E0000044014000480140000400400008004040
:1036F000070001002DE9F0412D4D01212846FEF77C
:1037000057FC2C4C022120732846FEF751FC2076F2
:1037100004212846FEF74CFC84F8240001214FF0D8
:103720009040FEF745FC0121022684F8300000227B
:103730004FEA010501EB410304EB8300877827B1D1
:10374000012F07D0022F11D109E014F823306BB9F3
:1037500085700BE014F8233043B9867006E014F846
:103760002330012B436805D05B1C4360437A012B57
:103770000FD011E0C82B09D2037A1BB146704272F8
:10378000027200E0457282704260EFE703234370EB
:10379000F5E7037A5B1C0372037A142B02D9457098
:1037A00042720272491C0429C4DDBDE8F0810000A8
:1037B00000040048140200200246002041B1042900
:1037C00009D008290AD00C2901D11068006C704773
:1037D0001068406B70471068806B70471068C06B52
:1037E00070477047FEE7000000B585B014216846B9
:1037F000FCF775FE4FF6FF70009000200321CDE925
:103800000201019069460248FEF7AEFA05B000BD1C
:103810000008004800B585B014216846FCF75FFE3B
:103820004FF6FF70009001200190032003900020CC
:10383000029069460248FEF797FA05B000BD000005
:103840000008004870B5002406462146204600F0D6
:1038500003F900F041F94FF49635304600F010F9C5
:10386000641CAC42F9D370BD70B586B014216846B3
:10387000FCF735FE1E48C16C41F00401C164C16C07
:1038800001F004010591C16C41F00101C164C16CFA
:1038900001F001010591C16C41F00201C164C06CED
:1038A000032500F0020005904FF448700124002623
:1038B00003958DE8510069460E48FEF755FA20023F
:1038C00003958DE851004FF0904469462046FEF77D
:1038D0004BFAFFF79FFFA06940F48070A061054894
:1038E0001830016841F40871016006B070BD000035
:1038F0000010024000040048203AD2B2034B02EB11
:10390000420203EB021200F019B800001A5A000834
:10391000F0B50E460746002540F23F1407E0214669
:103920003846FFF7E9FF103C6D1CA4B2761C3278D4
:10393000002A01D0142DF2D3F0BD00002DE9F0478C
:1039400091468A460026044600F086F8DFF840805B
:10395000012700BF00F0C0F85FF0000539F816003D
:1039600007FA05F10842404601D1408800E000888E
:1039700000F086F86D1C102DF0D3641CE4B25146A3
:10398000204600F069F8761C182EE3D3BDE8F087D6
:103990007800002010B5FFF767FF002000F014F852
:1039A000084CA080A088A0F50241303906D000F074
:1039B00001FB002000F008F8A08010BD00F071FAB3
:1039C000F7E700007800002070B51D490A6842F44E
:1039D00000720A600A6842F480720A60184C103C57
:1039E000226842F020022260164A1060086840F007
:1039F0002000086000BF00BF00BF206840F020002A
:103A00002060206840F480702060FFF7EDFE4FF0EA
:103A10009041886A40F48070886200BF00BF00BF98
:103A20000848001F006885B2886940F4807088618A
:103A3000FFF7F0FE206840F400702060284670BD5B
:103A4000280400481408004801B5BDF800000149E9
:103A5000488008BD7800002010B50C4601462020A3
:103A600000F068F82146BDE81040212000F062B85F
:103A700001B5BDF800000149088008BD78000020AC
:103A8000134A116841F400711160114910390B6833
:103A900043F480730B600B6843F020030B600D4B05
:103AA0001860106840F02000106000BF00BF00BF29
:103AB000086840F020000860086840F480700860E2
:103AC00000BF00BF00BF086840F400700860704786
:103AD00028040048140800481449086840F400709D
:103AE0000860086840F48070086010481038026868
:103AF00042F0200202600E4B22221A600A6842F055
:103B000020020A6000BF00BF00BF016841F0200131
:103B10000160016841F48071016000BF00BF00BF17
:103B2000016841F4007101607047000028040048FA
:103B300014080048184B10B51A6842F400721A6055
:103B40001A6842F480721A60134A103A146844F0FA
:103B500020041460114C2060186840F020001860A8
:103B600000BF00BF00BF106840F020001060106868
:103B700040F4807010602160186840F020001860E8
:103B800000BF00BF00BF106840F020001060106848
:103B900040F48070106010BD2804004814080048EC
:103BA00000EB8100006E00F0F84070478068C0F3C1
:103BB000C00070478068C0F380007047042303EAA8
:103BC000D15310B518444369C1F3045107248C4004
:103BD000A3438A401343436110BD00EB8100016E93
:103BE00021F00041114301667047000030B589B0F3
:103BF00020216846FCF773FC19481849002401602D
:103C00004902C0E90114C46004250461C0E9054506
:103C1000047744770121016280F82440C462046380
:103C200080F83840C46380F84040FDF7DBFE08B1FF
:103C3000FDF7C0FC0B4800900620CDE901047F2071
:103C40000594CDE9030569460548FDF7B5FC002854
:103C500001D0FDF7AFFC09B030BD000000010050FD
:103C6000C40000200080F03EF0B587B01421684603
:103C7000FCF735FC2D48C16C41F00401C164C16CF6
:103C800001F004010591C16C41F02001C164C16CD7
:103C900001F020010591C16C41F00101C164C16CCA
:103CA00001F001010591C16C41F00201C164C16CD8
:103CB00001F002010591C16C41F00801C164C06CC2
:103CC0001B4E00F008004FF47F440590012221466E
:103CD0003046FEF772F9174F002204213846FEF7EE
:103CE0006CF90125CDE9004500240294694630466F
:103CF0000394FEF739F8CDE9005469464FF090403F
:103D00000295FEF731F807208DE8310069460A4830
:103D1000FEF72AF804200090CDE9015469463846A0
:103D20000394FEF721F807B0F0BD00000010024038
:103D300000080048000C0048000400481FB500249B
:103D400015480094019402941249039401604F2194
:103D5000C0E901144FF6FF71C0E9031444618461A6
:103D6000FEF703FF08B1FDF725FC0B48FFF73CF910
:103D700008B1FDF71FFC0120CDE9004002940022AC
:103D8000694605480394FFF79DF8002801D0FDF728
:103D900011FC1FBD00480140C801002010B58EB0C5
:103DA00000240794089409940A940B940C941C2101
:103DB00068460D94FCF793FB1D484FF0804101606D
:103DC000C721C0E901146321C0E903148461FEF72F
:103DD000CCFE08B1FDF7EEFB4FF48050079007A929
:103DE0001348FEF787FF08B1FDF7E4FB1048FFF723
:103DF000D0FB08B1FDF7DEFB0B940BA90C480D942A
:103E0000FEF764FE08B1FDF7D5FB6020CDE90004A4
:103E100002940422694606480494FFF728FB08B17F
:103E2000FDF7C8FB0248FFF7FBFA0EB010BD00001B
:103E30003001002010B588B0002417480094019488
:103E400002940394049405941249069401604F214E
:103E5000C0E9011442F20F71C0E903148461FEF756
:103E600084FE08B1FDF7A6FB4FF480500090694630
:103E70000948FEF73FFF08B1FDF79CFB049404A935
:103E800005480694FEF722FE002801D0FDF792FBBC
:103E900008B010BD000400407C010020FEE7FEE7F2
:103EA000704730B501210020FFF744FE4FF47A70CF
:103EB000FDF772FB00210120FFF73CFE41F29071FB
:103EC0001020FFF737FE4FF41C516020FFF732FE41
:103ED00001216120FFF72EFE02214620FFF72AFE76
:103EE00048F210011320FFF725FE48F2FE011220D0
:103EF000FFF720FE4FF4A0610220FFF71BFE41F206
:103F000030010320FFF716FE40F203342146302033
:103F1000FFF710FE21463120FFF70CFE214632202C
:103F2000FFF708FEE51E29463320FFF703FE0321B5
:103F30003420FFF7FFFD21463520FFF7FBFD14215C
:103F40003620FFF7F7FD21463720FFF7F3FD214626
:103F50003820FFF7EFFD21463920FFF7EBFD29461A
:103F60003A20FFF7E7FD03213B20FFF7E3FD214661
:103F70003C20FFF7DFFD4FF4A0513D20FFF7DAFDB5
:103F80004FF400719220FFF7D5FD21469320FFF7F3
:103F9000D1FD40F60D019020FFF7CCFD41F2180154
:103FA0000320FFF7C7FDBDE8304040F27311072042
:103FB000FFF7C0BD10B543F20801E320FFF7BAFDDB
:103FC0001221E720FFF7B6FD41F23121EF20FFF784
:103FD000B1FD00210120FFF7ADFD4FF4E0610220AB
:103FE000FFF7A8FD41F230010320FFF7A3FD0021F8
:103FF0000420FFF79FFD40F207210820FFF79AFDFC
:1040000000210920FFF796FD00210A20FFF792FD0D
:1040100000210C20FFF78EFD00210D20FFF78AFD07
:1040200000210F20FFF786FD00211020FFF782FD01
:1040300007211120FFF77EFD00211220FFF77AFDF6
:1040400000211320FFF776FDC820FDF77BFE41F22B
:1040500090611020FFF76EFD40F227211120FFF73D
:1040600069FD3220FDF76EFE1D211220FFF762FD73
:104070003220FDF767FE4FF400611320FFF75AFD71
:1040800014212920FFF756FD0B212B20FFF752FDAD
:104090003220FDF757FE00212020FFF74BFD0021C5
:1040A0002120FFF747FD07213020FFF743FD40F2B5
:1040B00007713120FFF73EFD06213220FFF73AFD60
:1040C00040F204713520FFF735FD41F604713620CA
:1040D000FFF730FD04213720FFF72CFD00213820A9
:1040E000FFF728FD40F206713920FFF723FD40F26B
:1040F00001713C20FFF71EFD0F213D20FFF71AFD47
:1041000000215020FFF716FDEF215120FFF712FD8F
:1041100000215220FFF70EFD40F23F115320FFF720
:1041200009FD4FF41C516020FFF704FD01216120BF
:10413000FFF700FD00216A20FFF7FCFC0021802032
:10414000FFF7F8FC00218120FFF7F4FC002182201A
:10415000FFF7F0FC00218320FFF7ECFC0021842016
:10416000FFF7E8FC00218520FFF7E4FC10219020F8
:10417000FFF7E0FC00219220FFF7DCFC03219320F5
:10418000FFF7D8FC4FF488719520FFF7D3FC00218E
:104190009720FFF7CFFC00219820FFF7CBFC41F2DE
:1041A00018010320FFF7C6FCBDE8104040F2731170
:1041B0000720FFF7BFBC7047FDF70ABF10B594B0EA
:1041C00038216846FCF78BF914210EA8FCF787F913
:1041D0004FF40070FDF78EFF012000900004019065
:1041E00002200324CDE907041421CDE90A100C9024
:1041F0000D9009946846FEF74DFA08B172B6FEE7D5
:104200000F20CDE90E040020109011901290022191
:104210000EA8FEF719F9002801D072B6FEE714B017
:1042200010BD00000248016841F470010160704750
:1042300088ED00E00148FFF721B80000C801002028
:104240000148FFF71BB800007C0100202DE9F04376
:104250000268264B264D274E274C4FF08049984246
:1042600007D0484505D0A84203D0B04201D0A042B3
:1042700003D122F070074A683A43204FDFF880C02C
:10428000DFF8808098420DD048450BD0A84209D075
:10429000B04207D0A04205D0B84203D0604501D05B
:1042A000404503D122F44075CA682A434D6922F083
:1042B00080022A4302608A68C2620A688262984267
:1042C00007D0A04205D0B84203D0604501D0404598
:1042D00001D109690163012141610169C90703D065
:1042E000016921F001010161BDE8F083002C01406A
:1042F000000400400008004000340140004001403C
:10430000004401400048014010B501F01F030121A5
:10431000046A99408C430462016A9A401143016225
:1043200010BD10B5846842EA032224F47F440A4396
:104330002243826010BD00008268034B1A400A438A
:1043400042F00701816070478FFFCFFF2DE9F043F6
:10435000056A026A22F001020262436882691C4C0B
:1043600025F0020522400C6822F0030214438A68FB
:10437000194E2A43174D194FDFF864C0DFF86490D7
:10438000A84207D0B04205D0B84203D0604501D062
:10439000484506D122F00808CA6842EA080222F01D
:1043A0000402A84207D0B04205D0B84203D060450D
:1043B00001D0484505D14D6923F440731D438B69F5
:1043C0002B4343608461496841630262BDE8F08326
:1043D0008FFFFEFF002C01400034014000400140EF
:1043E0000044014000480140F0B5056A026A22F02D
:1043F0001002026242688369194C1B4E23400C680C
:1044000023F4407343EA042425F020038D6843EA33
:104410000513144DA84201D0B04206D1CF6823F055
:10442000800343EA071323F04003A8420AD0B042B6
:1044300008D00E4DA84205D00D4DA84202D00D4D1A
:10444000A84207D14D6922F4406242EA85028D6993
:1044500042EA850242608461496881630362F0BD7B
:10446000FF8FFFFE002C014000340140004001405E
:104470000044014000480140F0B5056A026A22F498
:10448000807202624368C269194C1B4E22400C685C
:1044900022F00302144325F400728D6842EA0522DB
:1044A000144DA84201D0B04206D1CF6822F4006278
:1044B00042EA072222F48062A8420AD0B04208D021
:1044C0000E4DA84205D00E4DA84202D00D4DA84277
:1044D00007D14D6923F4405343EA05138D6943EA3C
:1044E00005134360C4614968C1630262F0BD000006
:1044F0008FFFFEFF002C01400034014000400140CE
:104500000044014000480140F0B5056A026A22F407
:10451000805202624268C369194C1B4E23400C68EA
:1045200023F4407343EA042425F400538D6843EADE
:104530000533144DA84201D0B04206D1CF6823F410
:10454000004343EA073323F48043A8420AD0B04231
:1045500008D00E4DA84205D00D4DA84202D00D4DF9
:10456000A84207D14D6922F4404242EA85128D6982
:1045700042EA85124260C461496801640362F0BD89
:10458000FF8FFFFE002C014000340140004001403D
:10459000004401400048014030B5056A026A22F437
:1045A000803202624268036D114C23400C681C4348
:1045B00025F400330D8943EA05430E4DA8420BD084
:1045C0000D4DA84208D00D4DA84205D00C4DA84273
:1045D00002D00C4DA84204D14D6922F4803242EA47
:1045E00005224260046549688164036230BD0000B1
:1045F0008FFFFEFF002C01400034014000400140CD
:10460000004401400048014030B5046A026A22F4C7
:10461000801202624268036D114D24F400142B4095
:104620000D6843EA05230D8944EA05540D4DA8425F
:104630000BD00D4DA84208D00C4DA84205D00C4D12
:10464000A84202D00B4DA84204D14D6922F4802229
:1046500042EA8522426003654968C164046230BD54
:10466000FF8FFFFE002C014000340140004001405C
:10467000004401400048014010B5036A046A24F078
:1046800001040462846924F0F00444EA021423F073
:104690000A020A438461026210BD000070B5056A17
:1046A000046A24F0010404628469124EB0420ED000
:1046B000B0F1804F0BD0104EB04208D00F4EB04238
:1046C00005D00F4EB04202D00E4EB04203D124F0BE
:1046D0000304144301E044F001041A0724F0F00439
:1046E00044EA126225F00A0301F00A0119438261CB
:1046F000016270BD002C0140000400400008004031
:10470000003401400040014010B5036A046A24F0FF
:1047100010040462846923F0A00324F4704444EA82
:10472000023243EA01118261016210BD30B5046AB0
:10473000056A25F010050562856925F4407545EA8E
:10474000022222F470454FF6FF7202EA033224F08F
:10475000A0032A43A02404EA0111194382610162E3
:1047600030BDFEE703B401984100009850EAC12033
:1047700018BF04204A0D18BF40F0010040F2FF723C
:10478000B2EB515F08BF40F00200012808BF0520CE
:1047900002B070470907090E002804DB00F1E02091
:1047A00080F80014704700F00F0000F1E02080F85E
:1047B000141D704730380A2801D2012070470020AC
:1047C0007047000010B50B48FDF742FA0948FDF7A5
:1047D00005F900F02FFE9FED081B53EC112B00F0A4
:1047E00079FE9FED071B53EC112B00F073FE41EC9B
:1047F000100B10BDC40000206666666666660A403F
:10480000000000000000303F2DE9F0414C4E002533
:104810004C4C707B01280DD1A0780321401CB0FBCB
:10482000F1F201FB1200A0700020FFF70BF800F07E
:1048300079F97573707E0127012827D1A07810B10E
:1048400001281ED021E0DFF800C1DCF80000D4E927
:104850001021821A65EB010041F2883300219A1A77
:10486000814112D220784C2808D06770A069401C82
:10487000A061DCF80000C4E9100506E002206070C9
:10488000F4E7E07927EA0000E071757696F82510E4
:104890000A2001290ED1A17801290BD1E17921B398
:1048A000E16991FBF0F200FB1211491CC4F81C10E5
:1048B00086F8255096F83110DFF8908001291CD039
:1048C000032934D1A078002831D1D8F8000080F035
:1048D0000200C8F8000000F025F92772D8F800009F
:1048E00040F00800C8F800001FE0216A91FBF0F2D8
:1048F00000FB1211491C2162DAE7A178012901D0DD
:10490000B9B112E0E17941B1E169083191FBF0F20E
:1049100000FB1210401CE06107E0216A083191FBA6
:10492000F0F200FB1210401C206286F83150BDE806
:10493000F0812572D8F8000020F00800D2E70000CE
:104940001402002000000020580000206000002019
:1049500070B5444C444DA078002836D0012861D071
:10496000E0692061206A606140A14448FBF7B6FC21
:1049700042491820FEF7CCFF41A14048A269FBF74D
:10498000ADFC3E494820FEF7C3FFE06A00F0C0FFDF
:1049900041EC100B3EA153EC102B3848FBF79EFC6A
:1049A00036496020FEF7B4FF206B00F0B1FF41EC08
:1049B000100B3CA153EC102B3048FBF78FFCBDE8EB
:1049C00070402E497820FEF7A3BF3BA12B48FBF790
:1049D00085FC2A491820FEF79BFF22783AA1274838
:1049E000FBF77CFC25494820FEF792FF39A12348BC
:1049F000626AFBF773FC21496020FEF789FFA06A19
:104A000000F086FF41EC100B36A153EC102B1B4835
:104A1000FBF764FC19497820FEF77AFF286840F01C
:104A200002001CE033A11548FBF758FC134918207D
:104A3000FEF76EFF33A11148226AFBF74FFC0F49C6
:104A40004820FEF765FF33A10C48E269FBF746FCFE
:104A50000A496020FEF75CFF286820F00200286009
:104A600070BD0000000000206000002020202020F9
:104A700020202020524543442020000080000020B8
:104A800020202020204E3D25642020200000000012
:104A900020202020204D483D252E3166202020203A
:104AA0000000000020202020204D4C3D252E3166A6
:104AB0002020202000000000202020202020202076
:104AC000444154412020000020202020204D3D253D
:104AD000632020002020202020503D256425252013
:104AE000202000002020202020563D252E31662049
:104AF0002020200020202020202020205041524132
:104B0000202000002020202020523D25642020204D
:104B10000000000020202020204B3D256420202084
:104B20000000000010B50F4C01224FF47F412046D9
:104B3000FDF743FA0C4800684FF6FF7101EAC01117
:104B400000222046FDF739FA084C012204212046B4
:104B5000FDF733FA20460022BDE810400421FDF79E
:104B60002CBA00000008004860000020000C00483B
:104B7000FDF736FAFFF722FBFFF776F8FFF736F876
:104B8000FFF70CF9FFF756F9FFF7D8F82A48FEF7B8
:104B900075F82A48FEF772F82948FEF76FF80421E5
:104BA0002648FEF729FD254CC82021688862216827
:104BB0000A20886300212248FEF7CAFA0021204813
:104BC000FEF744FAFEF7E6FE0020FEF73DFF4FF643
:104BD000FF70FEF74DFF0020FEF734FE194900205C
:104BE0000860FFF79FFF1848BFEE000A4FF0FF3143
:104BF00080ED020A80ED000AC160144DC0F8041077
:104C0000FFF7E0FD85ED120B00F036F96863297AB5
:104C100009B1686A00E06862216888632168E86811
:104C20008862FFF77FFF00F013F8FFF7EDFDFFF755
:104C30008FFE00F0B1F8E3E77C0100203001002096
:104C4000C801002060000020B40000200000002007
:104C50002DE9F0474D4C94F801C0BCF1000F7DD018
:104C60004B4AFA237D21642701200025BCF1010F66
:104C7000484ED2F800C04FF03209BCFBF3F803FBFA
:104C800018C3D4F838C003D063453CD225713BE04B
:104C9000634501D2257100E020711268B2FBF7F381
:104CA00007FB1322E36B9A4201D2A57100E0A071C9
:104CB000E268642A02D0607940B110E0A163E57037
:104CC0002071C4F83C906571A07102E0A0790128C0
:104CD00005D1306880F004003060FFF723FFA07931
:104CE0006071E07828B92079012802D1E068401D80
:104CF000E0602079E070E068C82844DBC820E0600C
:104D000065704C2036E020711268B2FBF7F307FBA8
:104D10001322E36B9A4201D2A57100E0A071E26810
:104D2000C82A02D0607940B110E0A163E57020711B
:104D3000C4F83C906571A07102E0A079012805D10A
:104D4000306880F004003060FFF7ECFEA0796071FD
:104D5000E07838B92079012804D100E013E0E06858
:104D6000401FE0602079E070E06864280BDCE760B9
:104D7000657048202070306820F004003060BDE885
:104D8000F047FFF7CFBEBDE8F0870000000000202D
:104D9000580000206000002070B53449344A0846AD
:104DA0000D7890ED0A0A3348B2EE041A4FF4FA6413
:104DB000FFEE000A4FF0FF334C2D12D0D1ED0B1A4D
:104DC000F4EEC01AF1EE10FA0AD2D0ED021AF5EEA6
:104DD000C01AF1EE10FA30D280ED020A1168C160FB
:104DE00070BDD1ED0C1AF4EEC01AF1EE10FAF7D244
:104DF000D0ED001AF5EEC01AF1EE10FA04D280EDF3
:104E0000000A1168416070BD61EE811A20EE011A3E
:104E1000FDEEE11ABDEEC11A11EE905A11EE106AC4
:104E2000B54206D145681268521BA242EBD981ED0A
:104E30000C0AC0ED000A436070BD61EE811A20EEDD
:104E4000011AFDEEE11ABDEEC11A11EE905A11EEF3
:104E5000106AB54206D1C5681268521BA242EBD94E
:104E600081ED0B0AC0ED020AC36070BD0000002096
:104E700058000020B400002010B52DED028BB0EEDC
:104E8000408AF0EE608A9FED160B51EC180B53EC44
:104E9000102B00F0E3FA03D20A20BDEC028B10BD08
:104EA0009FED110B51EC180B53EC102B00F010FC84
:104EB00001D25520F1E79FED0E0B51EC180B53EC8E
:104EC000102B00F007FB9FED0C1B53EC112B00F097
:104ED00035FCBDEC028BBDE8104000F065BA000067
:104EE000000000000000F03F00000000000008404B
:104EF0000000000000C042400000000000803B4075
:104F000010B500290AD00878002807D00548784451
:104F1000FBF7DAFE002801D0002010BD02487844DB
:104F200010BD0000921D00008A1D000021F000420B
:104F3000A2F16052B2F5801F01F0004328BFD2F108
:104F40007F6C0BD95FEA001C43EAC20242EB50704F
:104F500018BF704728BF20F001007047B2F5801FCE
:104F6000BCBF184670474FEA410C1CF5001F02D227
:104F7000084600F043BD70B500F056FB0000008904
:104F8000FFF7F6BF4FF00040A0F58000704700002B
:104F900010B591EA030F48BF83F0004300F1D683B8
:104FA000841A71EB030C05D2121943EB0C03001B9E
:104FB00061EB0C01DFF824E14FEA1154A4EB135C20
:104FC0001EEA430F18BF9EEA445F73D023EA0E0324
:104FD000DCF1200E21EA045143F4801332D322FA8B
:104FE0000CFE10EB0E0023FA0CFE41EB0E01CCF18F
:104FF000200E03FA0EFE10EB0E0051F10001B1F588
:10500000801FCCF1200E32D201EB045112FA0EF2C5
:10501000BDE8104058BF7047401C38BF5FEA4202ED
:1050200018BF7047002814BF20F0010041F10001B3
:105030004FEA410313F5001F38BF7047A1F1C0418B
:1050400000F040BB012A43EB0302ACF1200CDCF181
:105050001F0E32BF4FF0000E23FA0CF310EB0300CB
:1050600041EB0451B4EB115FD0D0A1EB045101F539
:10507000801149085FEA300001EB04510ED350F172
:10508000000038BF12FA0EFE08D1BDE81040C9E793
:10509000401C38BF5FEA4202CAD1C3E7BDE81040F6
:1050A0004FEA410313F5001F38BF7047A1F1C0411B
:1050B00000F008BB9EEA445F08D011EA5E0FBDE82D
:1050C000104004BF01F0004100207047BDE81040CF
:1050D00070B500F0A9FA00BF64FBBE3E0000E0FF1F
:1050E000491058BFC1F140415B1058BFC3F1404364
:1050F0008B42EFF3008070472DE9C04130B4DFF8F8
:10510000A0C23CEA111418BF3CEA131400F0EC8072
:1051100081EA03051CEA111444EAD57418BF1CEA9D
:10512000131500F0C780A4EB05044FF0004545EAD5
:10513000C12145EAC32341EA505143EA525304F1E5
:105140007F74994204F500344FEAC0204FEAC2222E
:1051500008BF904200F09C804FEA13650FF24016A2
:10516000765D4FEA134506FB05F7C7F1807706FB2E
:1051700007F74FEAD737A7FB03687642C8F58038B0
:10518000A7FB06CE38BFA8F1010807FB08E64FF0E1
:10519000000EA6FB028CE6FB03CEDCF1000CCEF188
:1051A000004E38BFAEF1010EA6FB0C584FF00007C1
:1051B0004FF00005E6FB0E87A1FB08C6A0FB07CE5B
:1051C00016EB0E0645F10005E1FB076515F1E04E13
:1051D0007EBFA4F580345FEA46066D4116F1800774
:1051E00045F100054FEA17274FEA066647EA0567CB
:1051F000A6F1DE46B6F1805F4FEA15251FD9384685
:1052000024F0010C05EBC471BCF1FE6F01EB0C1135
:1052100002D8F0BCBDE8008124425CBF01F5801ECD
:105220009EEAC47F02D4F0BCBDE80081244238D499
:10523000F0BCA1F1C041BDE8004100F043BA4FEA23
:10524000D22242EA43524FEAD323A7FB02864FEA17
:10525000D02040EA415007FB03661EEA0E0F4FEADA
:10526000D12105FB026658BFA6EB0056B6EB0056EF
:105270004FEA520E4EEAC37E18EB0E0E56EB530E5B
:10528000BDD518EB02085E417F1C55F10005B6E75D
:105290004FF480154FF000074FF000064FF0000864
:1052A000ADE7F0BC4FF0000001F1C04101F000415A
:1052B000BDE8008111EA0C1F0CEA131500D00CE0C8
:1052C00013EA0C1F00F025804FF00000F0BC81EACB
:1052D000030101F00041BDE80081F0BCBDE80041E0
:1052E00081EA030100F0EEB9F0BCBDE8004170B501
:1052F00000F09AF9097EFC3E00F007B881EA03014C
:105300004FF0000001F00041704781EA030100F016
:10531000D9B9F0BCBDE800414FF000002149704709
:10532000FFFDFBF9F7F5F4F2F0EEEDEBE9E8E6E46A
:10533000E3E1E0DEDDDBDAD8D7D5D4D3D1D0CFCDF1
:10534000CCCBCAC8C7C6C5C4C2C1C0BFBEBDBCBB2A
:10535000BAB9B8B7B6B5B4B3B2B1B0AFAEADACAB25
:10536000AAA9A8A8A7A6A5A4A3A3A2A1A09F9F9EFF
:105370009D9C9C9B9A9999989797969595949393B1
:10538000929191908F8F8E8E8D8C8C8B8B8A898948
:1053900088888787868585848483838282818180CB
:1053A0000000FF070000F87F4FEA41034FEA535324
:1053B000A3F58063D3F11E03C8BFD3F1210C0CDD2C
:1053C0004FF0004242EAC12242EA505232FA03FC54
:1053D0008CEAE17CACEBE1707047102BC4BF00207D
:1053E000704703F5787CBCF1FF3F04D06FF00042BA
:1053F00082EA2100704770B500F016F949922480C6
:1054000000207047F2E710F0004248BF4042B0FA77
:1054100080F310FA03F10AD0C3F11D0303F5806392
:105420004FEA415002EB035202EBD12170474FF09B
:1054300000007047B0FA80F310FA03F10AD0C3F10C
:105440001D0303F580634FEA41504FEA035202EB1C
:10545000D12170474FF000007047000051EA030C63
:1054600017D41CF5801F58BFBCF5801F00F10680C3
:10547000994218BF704708BF9042704707D711F58F
:10548000801F58BF13F5801F19D499427047894275
:1054900070471CF5801F08D5BCF5801FF7D58B42DF
:1054A00018BF704708BF824270474FF4001C1CEBC6
:1054B000410F38BF1CEB430F01D28B42704770B5D0
:1054C00000F0B2F8922449004FF000514FF08053A1
:1054D000FFF706BEDFF848C170B51CEA111E1EBFFB
:1054E0001CEA13159EEA0C0F95EA0C0F00F06F8072
:1054F00081EA030423EA4C134EEAD47E21EA4C11DC
:1055000041F4801143F48013AE44A1FB024CA0FB94
:105510000365AEF17F7E361955EB0C05A1FB034CFC
:105520004CF10003A0FB021C16EB0C06654153F185
:105530000003094218BF46F0010613F4007F0BD1A7
:105540004FEA03314FEA0530340341EA155140EA8E
:1055500016506FF003020AE04FEAC3214FEAC5205C
:10556000F40241EA555140EA56506FF0020202EB54
:105570002E4201EB025585EACE710AD05FEA440C57
:1055800018BF24F0004450F1000041F1000120EA6E
:10559000D47040F2FE7C624500D270BDA84214BFB8
:1055A0004FF080444FF04044002E08BF0024BEF16D
:1055B000806FA8BFA1F1C041BDE8704080F2828039
:1055C0004FF0000001F1C04101F0004170479EEA38
:1055D0000C0F0CEA131518BF95EA0C0F06D04FF00C
:1055E000000081EA030E0EF0004170BD00F01CF8CF
:1055F0008900013E00F007B800F009B84FEA430CFB
:105600005FEA5C5C08D081EA030100F05BB84FEA16
:10561000410C5FEA5C5CF6D14FF000000149704735
:105620000000FF070000F87F0EF1020E2EF0030EBF
:105630005EF8046B364205D4012A43EB030515F5E9
:10564000001F12D8012841EB010C1CF5001F0CD8DB
:105650000ED14FEAD17C15F5001F0CEB4C0C0CF170
:10566000020C08BF4CEBD37C04E04FF0080C01E0C7
:105670004FEAD37C0CEB4C0526FA05F606F007063C
:10568000B6F1040C06D20EEB860CBDE870404CF06F
:10569000010C6047DFE80CF0090B02024FF00041FB
:1056A0004FF00000A1F5002170BD194610460128F9
:1056B00051EB010418BFD4F5001484BF002001F0A1
:1056C000004170BD0808A0F500114FEA3101704794
:1056D00053EA010C17D41CF5801F58BFBCF5801F7E
:1056E00000F106808B4218BF704708BF82427047A6
:1056F00007D713F5801F58BF11F5801F19D48B42AF
:1057000070479B4270471CF5801F08D5BCF5801F71
:10571000F7D5994218BF704708BF904270474FF4C1
:10572000001C1CEB430F38BF1CEB410F01D2994208
:1057300070470FB40CBC03BCFFF7C1BE10B591EAB3
:10574000030F48BF83F000433FF52AAC841A71EB86
:10575000030C07D212198CF0004C43EB0C03001B16
:1057600061EB0C01DFF8A4E14FEA1154A4EB135CE8
:105770001EEA430F18BF9EEA445F00F0B08023EAA0
:105780006E03524221EA0451C3EB6E0338BF5B1E25
:10579000DCF1200E25D322FA0CFE10EB0E0043FAAA
:1057A0000CFE41EB0E01CCF1200E03FA0EFE10EBC5
:1057B0000E0051F10001CCF1200E29D412FA0EF2A4
:1057C00001EB0451BDE8104058BF7047401C1CBF9E
:1057D000B2F1004F704700280CBF491C20F00100B7
:1057E000704712EB020E43EB030218BF4FF0010E9D
:1057F0004EEA4202ACF1200CDCF11E0E54D943FA01
:105800000CFE10EB0E0051F1FF31CCF11E0ED5D580
:105810000EF1010E12FA0EFE404141EB010101EBC7
:10582000445C5FEA5C5C10D910EBDE7001EB045164
:1058300038BFBEF1004FBDE8104018BF70470028C8
:105840000CBF491C20F00100704730D24FEAD42C25
:1058500011F5001124F400641BD0B1FA81F20B3A67
:10586000A41AA41ED2F12003914030FA03F3194385
:10587000904001EBCC71002C01EB0451BDE81040CD
:10588000A8BF704701F1C0414FF0000001F0004196
:105890007047B0FA80F310FA03F100D110BDE41A9A
:1058A000173C4805C90AE4E701EB045110BD491053
:1058B00001EB0451BDE810404FEA300002E04FF028
:1058C000000170474A0008BF0042F8D0B2F5001F3F
:1058D00028BF704701F000414FF0000070479EEA7A
:1058E000445F07D011EA5E0FBDE8104004BF0021FD
:1058F00000207047BDE8104070B5FFF795FE00BF6F
:1059000040DFF63E83F00041104670470000E0FFA4
:1059100043004FEAD30C4FEA3C0C43401FBF400703
:105920000CF1605113F0FE4F70471CF0006F03D173
:1059300000200CF0004170470CF0004343EA507027
:1059400010B540EACC0000F00EF800BF0000009255
:105950004FEA0001FFF7B6BE4FF000414FF00000E4
:10596000A1F5002170470EF1020E2EF0030E5EF835
:10597000044B244204D44FEA4102B2F17F4F11D8C4
:105980004FEA4003B3F17F4F0CD80ED14FEAD07CE1
:10599000B2F17F4F0CEB4C0C0CF1020C08BF4CEB3E
:1059A000D17C04E04FF0080C01E04FEAD17C0CEB15
:1059B0004C0324FA03F404F00704B4F1040C06D2F7
:1059C0000EEB840CBDE810404CF0010C6047DFE8A2
:1059D0000CF0070802024FF00040A0F5800010BD57
:1059E0000846420018BFD2F1807288BF00F0004024
:1059F00010BD4FF04070E1EE100A7047FF2141EA00
:105A0000D050C0057047FAF7C6BE00000000000085
:105A1000000001020304060708090000000000005E
:105A20000000000000000000000000000000000076
:105A30000000000000000000000000000000000066
:105A40000000000000000000000000008001800154
:105A5000800180018001800180018001800180013E
:105A600080018001800100000000800180010000B1
:105A70000000000000000000000000000000CC005A
:105A8000CC00CC00CC00CC00CC000000000000001A
:105A90000000000000000000000000000000000006
:105AA00000000000000000000000000000000000F6
:105AB000000000000000600C600C600C3006300636
:105AC000FE1FFE1F300638071803FE1FFE1F1803B7
:105AD00018038C018C018C01000000008000E003A1
