:020000040800F2
:10000000400D002099020008BB3D0008C1360008E1
:10001000B93D0008111500088B46000800000000DB
:10002000000000000000000000000000D3400008B5
:100030001315000800000000BD3D0008D540000871
:10004000B3020008B3020008B3020008B3020008BC
:10005000B3020008B3020008B3020008B3020008AC
:10006000B3020008B3020008B3020008B30200089C
:10007000B3020008B3020008B3020008B30200088C
:10008000B302000800000000B3020008B302000839
:10009000B3020008B3020008B3020008B30200086C
:1000A000B3020008B302000851410008B30200087F
:1000B0005D41000869410008B3020008B30200086E
:1000C000B3020008B3020008B3020008B30200083C
:1000D000B3020008B3020008B3020008B30200082C
:1000E000B3020008B3020008B3020008B30200081C
:1000F000B3020008B3020008B302000800000000C9
:1001000000000000B302000800000000B302000875
:10011000B302000800000000B3020008B3020008A8
:10012000B3020008B3020008B3020008B3020008DB
:10013000B30200080000000000000000B302000845
:10014000B3020008B3020008000000000000000035
:10015000000000000000000000000000000000009F
:10016000000000000000000000000000B3020008D2
:10017000B3020008000000000000000000000000C2
:1001800000000000B30200080000000000000000B2
:10019000000000000000000000000000000000005F
:1001A0000000000000000000B3020008B3020008D5
:1001B000B3020008B3020008B30200080000000008
:1001C00000000000B3020008000000000000000072
:1001D000B3020008B302000800F002F800F04CF887
:1001E0000AA090E8000C82448344AAF10107DA4592
:1001F00001D100F041F8AFF2090EBAE80F0013F098
:10020000010F18BFFB1A43F001031847F46D0000FB
:10021000146E0000103A24BF78C878C1FAD852078B
:1002200024BF30C830C144BF04680C607047000070
:100230000023002400250026103A28BF78C1FBD8EF
:10024000520728BF30C148BF0B607047662905F0D0
:100250009A85642900F05480002070471FB505F08E
:1002600088FD00F0C1FB04000020002105F0A6F885
:10027000E0601FBD10B510BD00F0B6FC1146FFF7E1
:10028000EDFF04F02BFF00F0D4FC03B4FFF7F2FF06
:1002900003BC00F017FD00000948804709480047EB
:1002A000FEE7FEE7FEE7FEE7FEE7FEE7FEE7FEE726
:1002B000FEE7FEE704480549054A064B7047000083
:1002C00041410008D901000840070020400D0020EE
:1002D00040090020400900200FB41CB5074B06AAB6
:1002E0007B4469460090059800F065FB0020694654
:1002F00000F074FB1CBC5DF814FB0000F906000064
:100300002DE9F0410646002410687529314616A5EE
:1003100010D0AFF30080002802DA404213A507E0B6
:1003200031688A0701D512A502E0490704D511A555
:10033000012401E0AFF3008000210A2206F1240726
:1003400009E0B0FBF2FCB0FBF2F302FB1C00303022
:1003500078541846491C0028F3D123462A463046D3
:10036000BDE8F04100F0B9B8000000002D00000029
:100370002B000000200000002DE9F0474FF0000A9C
:1003800089460446C0F820A02046E1688847002836
:1003900076D0252806D0D4E901219047206A401C58
:1003A0002062F1E7E168204600258847C4F81CA0D8
:1003B00006460027C4F818A02A2E09D0304604F0BB
:1003C0008DF938B304EB8708303EC8F8186019E09F
:1003D00059F8041B204604EB87029161E1688847C5
:1003E000012F064618D1E069002820DA25F0200503
:1003F0001DE0D8F8180000EB800006EB4000303814
:10040000C8F818002046E1688847064604F066F9F7
:100410000028EED1012F0AD02E2E08D12046E16807
:1004200088477F1C0646022F45F02005C4DBA069E3
:10043000002803DA404245F00105A061E80701D039
:1004400025F01005B6B1A6F14100192802D82036D2
:1004500045F400654A463146204625604D46FFF783
:10046000F5FE58B1012806D0ED1D25F0070000F17A
:10047000080989E704E005F1040985E730468AE7C1
:10048000206ABDE8F0874FF0000200B5134694469D
:100490009646203922BFA0E80C50A0E80C50B1F1DC
:1004A0002001BFF4F7AF090728BFA0E80C5048BFF0
:1004B0000CC05DF804EB890028BF40F8042B08BF8E
:1004C000704748BF20F8022B11F0804F18BF00F88A
:1004D000012B70477047704770472DE9F0470D4674
:1004E00099469246044600F124080168880604D51E
:1004F000E06921F01001216000E00120A84201DD47
:10050000471B00E00027A1697A1902EB0900081ACD
:10051000A0612078C00602D42046AFF300800026F8
:1005200008E0D4E901211AF806009047206A401C2F
:10053000761C20624E45F4DB2078C0060AD52046A2
:10054000AFF3008006E0D4E9012130209047206A13
:10055000401C2062381EA7F10107F4DC07E0D4E953
:10056000012118F805009047206A401C2062281ECF
:10057000A5F10105F3DC2046AFF3008020780006EA
:1005800002D50220BDE8F0870120FBE770472DE986
:10059000FF4F0C461E464FF0FF378BB0D2E90001EB
:1005A000DDF860800A908A46C1F30A5505B93D46D8
:1005B000002108464FF00000BAF1000F00F440009F
:1005C00005DA00EB80004FF4400101EA50004FEAE9
:1005D0009059B9F1010F00DDB9460A9850EA4A0076
:1005E0000ED044F61050A5F2FF3545432F14B8F154
:1005F000000F1ED07542291E1EDDC9F100021CE04D
:10060000B8F1010F4FF0000001D0302103E0F243B8
:1006100005E02154401CB042FBDB304600220021A3
:1006200021540B99C1F80880C1E900200FB0BDE842
:10063000F08FBD1B6D1CDEE74A4600DA694206A852
:1006400000F05CFA06AB93E8070003AB83E8070011
:1006500050460A9900F03DFB8DE80700A0F50050D8
:100660001F3800900398002D0ADD42F21F014A4610
:100670000844002303A90390684600F0A6FD09E0A2
:10068000A0F500504A461F38002303A9039068468E
:1006900000F0B0FD8DE807000004000C03D04FF01F
:1006A000FF30410800E01046B8F1000F03D00022EF
:1006B000009215461EE0751E05D400F099F93032FF
:1006C00062556D1EF9D5B3460122084302D00022BF
:1006D0007F1C04E02078302801D100227F1E002AF0
:1006E000099784D01DE0112D07DA00F081F930322E
:1006F00062556D1C50EA0102F5D1084302D0009802
:10070000C8B10EE00021681E05E0235C625C635402
:100710002254401E491C8142F7DBAB46A81B401EF9
:100720000990002004F80B000B98099AC0F8088083
:10073000C0E9002B7AE711264FF0000857E72DE9B2
:10074000F04F88460446D21D22F0070191B0D1E94E
:100750000001CDE90A0103F099FF02460B98C00F92
:1007600001D02D2007E02068810701D52B2002E071
:10077000202101EAC000032A099001D0072A05DBE5
:1007800003464146204600F079F90BE120788006C7
:1007900001D5E06900E00620B8F1650F814606D07A
:1007A000B8F1660F18D0B8F1670F70D131E00020B2
:1007B000B9F1110F009001DB112301E009F10103F0
:1007C0000AAA01A90CA8FFF7E2FEDDE90C700026D9
:1007D00009F10105834647E001204B4600904FF0A8
:1007E00000470AAA01A90CA8FFF7D1FEDDE90DB068
:1007F0000C995D46002610B909F101000D18B9EBFE
:10080000050003D4C0F1FF3609F10105A5EB09008D
:100810002BE0B9F1010F01DA4FF001090020B9F125
:10082000110F0090484601DD112300E003460AAA9B
:1008300001A90CA8FFF7ABFEDDE90C704D460026C0
:100840008346207800070AD4AB4500DA5D4601A84C
:10085000012D04DD411911F8011C302907D04F4545
:1008600002DA17F1040F04DA012082460FE06D1E50
:10087000EEE7002F02DCED1B3E4403E0781CA842AB
:1008800000DD7D1CB81B00F1010A4FF00047207805
:10089000000703D4AA4501DB4FF0FF3A0021B7F16E
:1008A000004F0DF143088DF8431024D002202B2374
:1008B000002F01DA7F422D230A21021EA0F1010040
:1008C00000DC5FB197FBF1FC97FBF1F201FB1C7CB4
:1008D00017460CF1300C08F801CDEEE7A8F1010045
:1008E00003702188090501D5452100E06521A0F1AB
:1008F000010800F8011C09980FA9A1EB0807FF1DCA
:1009000000B10120411901EBEA70A1693844081ACD
:10091000401EA0612078C00602D42046AFF30080BC
:10092000099828B1D4E901219047206A401C20622F
:100930002078C00622D52046AFF300801EE0002EAE
:1009400004DBB34502DD01A8805D00E03020D4E97E
:1009500001219047206A401C2062761CAAF1010008
:100960005FEA000A0AD100F03FF8C0680168405C05
:10097000D4E901219047206A401C2062281EA5F17D
:100980000105DCDC07E0D4E9012118F8010B9047F0
:10099000206A401C2062381EA7F10107F3DC2046C4
:1009A000AFF30080032011B041E6000001694A1C4A
:1009B00002610878704700B58FB0CDE901310021A0
:1009C000059105497944CDE9031011466846FFF7C2
:1009D000D3FC0FB000BD0000E5FFFFFF0A6802F87E
:1009E000010B0A60704700000048704700070020B4
:1009F00030B5B0F10A024FEA900E71F100034EEAF1
:100A0000817EB0EB0E0061EB91014FEA101E4EEAC1
:100A1000017E10EB0E0041EB11114FEA102E4EEA51
:100A2000016E10EB0E0041EB11214FEA104E4EEA21
:100A3000014E10EB0E0041EB1141401841F1000155
:100A40004FEAD00040EA41704FEAD10110EB800537
:100A50004FEA810444EA907444EB01046D1944EBBD
:100A60000404521BA3414FF0000348BF0A3200D5D3
:100A700030BD401C41F1000130BD00002DE9F041C6
:100A80001F46044603260168072A01F4006004DBC0
:100A900008B116A505E016A503E008B115A500E00C
:100AA00015A521F010002060A069C01EA0610FB143
:100AB000401EA0612046AFF300804FB1D4E9012170
:100AC00038469047206A401C2062C01C206206E025
:100AD000206AFAE7D4E9012115F8010B9047761E48
:100AE000F8D22046AFF30080BDE8F0814E414E00C1
:100AF0006E616E00494E4600696E66002DE9F04752
:100B0000814616468AB0354878440DC88DE80D00F8
:100B100032487844801C03AC0DC884E80D0041F6CF
:100B20009B300844372190FBF1F290FBF1F5A5F1E1
:100B3000800501FB12041B3C02D56442012000E049
:100B40000020DFF898A080460027FA44AAF1BE0AE8
:100B50000EE0E0070AD03246684607EB4701012362
:100B60000AEB810100F046FB8DE8070064107F1C52
:100B7000002CEED1194F7F44AE3F19E0E80715D0A5
:100B800007EB04100DF1180A90E80E008AE80E0039
:100B9000C068F04201D1981908903246012306A995
:100BA00003A800F027FB03AB83E807006D10641C6B
:100BB000002DE3D14FF0010332466946B8F1000F32
:100BC00003A802D000F001FB01E000F013FBC9E92B
:100BD0000001C9F808200AB0BDE8F087DC64000015
:100BE00000487047E00600207546FFF7F9FFAE4663
:100BF00005006946534620F00700854618B020B529
:100C0000FFF758FBBDE820404FF000064FF000070B
:100C10004FF000084FF0000B21F00701AC46ACE8A4
:100C2000C009ACE8C009ACE8C009ACE8C0098D4611
:100C3000704710B50446AFF300802046BDE8104071
:100C4000FFF723BB4FF0013C50F8042B51F8043B55
:100C50009A4221D1A2EB0C03934313EACC1317D190
:100C600050F8042B51F8043B9A4215D1A2EB0C0327
:100C7000934313EACC130BD150F8042B51F8043BE7
:100C80009A4209D1A2EB0C03934313EACC13DBD0B5
:100C90004FF00000704700BFD01A01BAB1FA81F1DD
:100CA00001F0180122FA01F0CB40C1F12001DBB2C2
:100CB000C0B2C01A2CFA01F3D11A914311EAC31140
:100CC000E6D1704701491820ABBEFEE726000200BE
:100CD00070475FEA400C08BF91F0000F4FEA8C2389
:100CE0004FEAC12243EA51514FEA1C5018BF00F5A8
:100CF000F0404FEA300018BF41F000415FEA6C5C01
:100D000000F02980BCF1FF3F08BF40F080407047F1
:100D1000130C06BF12044FF0100C4FF0000C130E12
:100D200004BF12020CF1080C130F04BF12010CF1E6
:100D3000040C930F04BF92000CF1020CD30F04BFFC
:100D400052000CF1010C11464FF00002A0F11F00FF
:100D5000A0EB0C00704711F0004F08BF704731F056
:100D600000413FF4D5AF0B0C06BF09044FF0100C47
:100D70004FF0000C0B0E04BF09020CF1080C0B0F16
:100D800004BF09010CF1040C8B0F04BF89000CF1A6
:100D9000020CCB0F04BF49000CF1010CCCF1200375
:100DA000A0EB0C0022FA03F302FA0CF241EA030171
:100DB00000F10100704720F07F4C80EA030023F02F
:100DC0007F47ACEB070303F57C5300F0004003F1D1
:100DD000FF032DE980494FEA154B09B44FEA14434C
:100DE00025EA0B4E24EA03480FF2042606EB1327EC
:100DF00049083E785FEA320203FB0667C7F5000741
:100E000007FB06F64FEA54374FEAD64606F10206CC
:100E100007FB066CCCF1005C4FEA1C472CEA074C40
:100E200007FB06F40CFB06F504EB15464FEA961695
:100E300034BF00204FF000404FEAD13706FB07FCDB
:100E40004FEA1C4C0CFB0BF7D21B03FB0CF761EBBE
:100E500007010CFB0EF7B0EB074072EB17420CFBDF
:100E600008F734BFA2EB0742B2EB074261EB174130
:100E70004FEA0C444FEA910706FB07FC4FEA1C4C73
:100E80000CFB0BF7B0EBC74072EB573203FB0CF7D0
:100E900034BFA2EBC742B2EBC74261EB57310CFB48
:100EA0000EF7B0EBC70072EB57720CFB08F734BFBC
:100EB000A2EBC702B2EBC70261EB5771039F4FEA87
:100EC000816141EA921104EBCC044FEAD1374FEA39
:100ED000826206FB07FC42EA90124FEA80604FEA0A
:100EE0001C4C0CFB0BF7D21B03FB0CF761EB07014F
:100EF0000CFB0EF7B0EB074072EB17420CFB08F748
:100F000034BFA2EB0742B2EB074261EB17414FEA55
:100F10008C554FEA910704EB9C2406FB07FC4FEA33
:100F20001C4C0CFB0BF7B0EBC74072EB573203FBCA
:100F30000CF734BFA2EBC742B2EBC74261EB5731AB
:100F40000CFB0EF7B0EBC70072EB57720CFB08F707
:100F500034BFA2EBC702B2EBC70261EB577115EBCE
:100F60004C254FEA816141EA92114FEA82624FEAD1
:100F7000D13742EA901206FB07FC44F100044FEA25
:100F800080604FEA1C4C0CFB0BF7D21B03FB0CF7E9
:100F900061EB07010CFB0EF7B0EB074072EB174259
:100FA0000CFB08F734BFA2EB0742B2EB074261EB40
:100FB000174115EB1C154FEA813141EA92414FEA86
:100FC000823242EA90424FEA80304FEA0C7644F196
:100FD000000448EA03434EEA0B484FF0000EB2EB20
:100FE000080C71EB030724BF624639464EEB0E0E28
:100FF0004FF0000B0018524149414BEB0B0BB2EB89
:10100000080C71EB03077BF1000B24BF62463946E5
:101010004EEB0E0E4FF0000B0018524149414BEBC6
:101020000B0BB2EB080C71EB03077BF1000B24BF39
:10103000624639464EEB0E0E51EA020718BF46F0E3
:10104000010616EB0E7655F1000254F1000103D5AE
:10105000BDE88901BDE80088BDE88901BDE8004818
:10106000B619524141EB0101A3F1010370478080A1
:101070007F7E7D7C7B7A79787776767574737271F2
:1010800071706F6E6E6D6C6C6B6A6A6968686766AA
:1010900066656464636362616160605F5F5E5E5D3C
:1010A0005D5C5C5B5B5A5A595958585757565655B0
:1010B00055555454535352525251515050504F4F12
:1010C0004F4E4E4D4D4D4C4C4C4B4B4B4A4A4A4962
:1010D00049494848484747474746464645454544A5
:1010E0004444444343434342424242414141002B32
:1010F0009C4630D477002BD01CB54FEA370703B499
:101100004FF010004FF01001BAF1000F06D0BCF103
:10111000000FDCBF40F0080040F008014FF0000075
:101120000FBCBDE810400BF1010BBBF1010F08BF74
:101130005FEA170722BF12F1010211F101014FF01E
:10114000004143F1000300F0004043EA0000704713
:10115000F9D35708D0E746EA064613F1400F4FEAA5
:1011600016461FDD13F1200FDFBF16430A4600218C
:1011700020335B42BED0C3F1200746EA064602FA9E
:1011800007F74FEA164646EA0706C3F1200722FA98
:1011900003F201FA07F721FA03F14FF0000342EAE4
:1011A0000702A7E746EA020646EA06464FEA16465F
:1011B00046EA0106BCBF46EA0646360C4FF000037D
:1011C0004FF000024FF0000194E72DE9804C9A4661
:1011D000934670B491E8380007C831EA400C48BF24
:1011E00034EA430C03D5FFF7E6FDFFF780FFF0BCC0
:1011F000BDE8008C2DE9804C9A46934670B491E886
:10120000380007C810F0804F08BF13F0804F03D19B
:1012100000F005F8FFF76BFFF0BCBDE8008C20F094
:101220007F4780EA030023F07F4C07EB0C03A3F514
:101230007C5300F00040A3F1FE0392F0000F00F099
:10124000B38095F0000F00F077802DE901494FEA57
:1012500011404FEA144621EA004800FB06FC24EA4C
:10126000064708FB06F607FB08F800FB07F718EB34
:1012700006484CEB164C4FEA124B18EB07484FEA66
:1012800015464CEB174022EA0B4E0BFB06FC25EAF9
:1012900006470EFB06F607FB0EFE0BFB07F71EEBE1
:1012A000064E4CEB164C4FF000061EEB074E4CEB77
:1012B000174B18EB0B0840F1000018EB0E0B58EB26
:1012C000000840F100008F1A4FF000013CBFC943F5
:1012D000661B14BFB5EB040C00213CBFC943F61BD1
:1012E0004FEA17444EEA8E0E27EA04454FEA1C47A0
:1012F00004FB07622CEA074C05FB07F70CFB05F61D
:1013000004FB0CFC16EB074642EB174216EB0C46AF
:1013100042EB1C421BEB060658EB0202414146EA37
:101320009E0601D5BDE80189B619524141EB010184
:10133000A3F10103BDE801894FEA14454FEA1147C3
:1013400024EA054621EA074C05FB07F406FB07F7EC
:101350000CFB06F105FB0CFC11EB074144EB1744B9
:101360004FEA124711EB0C4144EB1C4422EA074CB4
:1013700005FB07F206FB07F70CFB06F605FB0CFC6A
:1013800016EB074642EB174216EB0C4642EB1C45A8
:101390006A1854F1000148BF7047B619524141EB39
:1013A0000101A3F10103704795F0000F37D04FEA18
:1013B00011424FEA144721EA024624EA074C02FB95
:1013C00007F106FB07F70CFB06F402FB0CFC14EB21
:1013D000074441EB17414FEA154714EB0C4441EB2E
:1013E0001C4125EA074C02FB07F506FB07F70CFB3F
:1013F00006F602FB0CFC16EB074645EB174516EB11
:101400000C4645EB1C42121951F1000148BF7047D0
:10141000B619524141EB0101A3F1010370474FEAB4
:1014200014454FEA114724EA054621EA074C05FB1B
:1014300007F106FB07F70CFB06F24FF0000605FB71
:101440000CFC12EB074241EB174112EB0C4251EB43
:101450001C4148BF7047921841EB0101A3F1010301
:1014600070470000F8B504460020009020688168AD
:1014700011F0010F41D18168214A11422ED18168BA
:10148000D5432940491C81601E48806800F0E07007
:1014900000020DD51C481D490068B0FBF1F0401C4E
:1014A00000EB4000800000E0401E00900028FBD1CF
:1014B00000F046FD06461BE0816811F0010F03D1E4
:1014C00081682940491C816000F03AFD801B022898
:1014D0000ED920680068C043C00709D0E06D40F015
:1014E0001000E065206E40F0010020660120F8BD8C
:1014F00020680168C943C907DED10020F8BD00009B
:101500003F000080000300506C000020400D0300ED
:10151000FEE77047002240F6B83306E00021491C80
:1015200089B29942FBD3521C92B28242F6D37047E1
:1015300072B6FEE72DE9F84F00270446009790F8B1
:101540005800DFF8E0930D46B846012811D0012677
:1015500084F85860206802F09BFA60B1E06D40F0BA
:101560002000E0655FF0010784F858803846BDE848
:10157000F88F0220FBE7D5E900210C23206803EA5D
:1015800091131844036B01F01F014FF01F0C0CFA6C
:1015900001FCC2F3846223EA0C038A401343036311
:1015A000206802F075FA8246206802F06DFA5AEA65
:1015B00000003CD1AA6829682068B2F1004F37D0FA
:1015C00002F06AFA2068416921F000414161206817
:1015D0006969C268C2F3C102520091402A69042AB3
:1015E00031D000EB82002B68026EDFF83CC303F0C1
:1015F000F84302EA0C020B431A4342F00041016631
:1016000020682A69A96900EB8200026E22F08072CC
:101610000A430266297F22682869012910D0002127
:1016200002EB8000026E22F000720A4302667DE047
:10163000002202F031FA2068416941F00041C5E71B
:101640004FF00071ECE7002102F018FA4003206827
:101650004FF0000172D002F011FA90FAA0F0B0FA47
:1016600080F1286842036ED090FAA0F0B0FA80F0C2
:10167000814204D100221146206802F01CFA0121A7
:10168000206802F0FBF9400320684FF001015DD0B3
:1016900002F0F4F990FAA0F0B0FA80F12868420361
:1016A00059D090FAA0F0B0FA80F0814204D1002223
:1016B0000121206802F0FFF90221206802F0DEF922
:1016C000400320684FF0020148D002F0D7F990FAA9
:1016D000A0F0B0FA80F12868420344D090FAA0F05C
:1016E000B0FA80F0814204D100220221206802F089
:1016F000E2F90321206802F0C1F9400320684FF0AD
:10170000030133D002F0BAF990FAA0F0B0FA80F1F8
:10171000286842032FD090FAA0F0B0FA80F08142FE
:1017200004D100220321206802F0C5F920688168F5
:1017300011F0010F22D0ACE000E004E002F09EF9CD
:10174000C0F384618DE7C0F3846091E702F096F9FD
:10175000C0F38461A2E7C0F38460A6E702F08EF9CB
:10176000C0F38461B7E7C0F38460BBE702F086F999
:10177000C0F38461CCE7C0F38460D0E72A7B29689A
:1017800050F8B03FC1F3120C23EA0C0302F0180C1E
:10179000664A22FA0CF20A4013430360E96849459D
:1017A00077D1286841031CD090FAA0F1B1FA81F1F9
:1017B000491C01F01F0109294FEA403132D80029A4
:1017C00012D000BF90FAA0F1B1FA81F101F101014C
:1017D00001F01F0106FA01F609D100BFC0F38461D0
:1017E00009E0C0F38461E3E7C0F38461EEE790FAB7
:1017F000A0F1B1FA81F101F1010101F01F0146EA06
:10180000816102D1C0F3846003E090FAA0F0B0FAE5
:1018100080F000F1010000F01F0000EB400041EA01
:10182000005132E000290ED090FAA0F1B1FA81F116
:1018300001F1010101F01F0106FA01F606D100BF16
:10184000C0F3846106E0C0F38461F1E790FAA0F18F
:10185000B1FA81F101F1010101F01F0146EA816154
:1018600002D1C0F3846003E090FAA0F0B0FA80F0F7
:1018700000F1010000F01F002D4A00EB400002EBD8
:10188000005041EA000141F00071AA68206802F0AE
:1018900003F928482A6802423FF466AE2648816868
:1018A000264B01F0E0719A4202D0254B9A421CD19E
:1018B0000B021AD42268B2F1A04F7FF455AE8268B1
:1018C00041F4000122F0E0720A4382601D481E4983
:1018D0000068B0FBF1F0401C00EB4000800000E02D
:1018E000401E00900028FBD13EE6184D184BAA423E
:1018F00007D1CD0105D422689A42F5D041F080711C
:1019000009E0144DAA42EFD14A02EDD422689A426E
:10191000EAD041F48001826822F0E0720A438260DA
:1019200022E6000000007F4000F0FF03FFFF0700F9
:10193000000020FE0000088000030050000021C3CA
:101940001000C0906C000020400D0300000052C742
:1019500000010050000084CB0068006C704700005C
:10196000F8B54FF0000504002E46009502D0E06D5A
:1019700010B107E00120F8BD204600F0EBF8266624
:1019800084F8586020688168C1F3407119B181689A
:10199000684A1140816020688168C1F3007189B98B
:1019A0008168654A114041F0805181606348644913
:1019B0000068B0FBF1F04000801C00E0401E009089
:1019C0000028FBD120688168C1F3007141B9E16D45
:1019D00041F01001E165216E41F001012166012510
:1019E00002F056F8E16DC90600D430B1E06D40F068
:1019F0001000E06501252846F8BDE06D20F48070F8
:101A000040F00200E0652068806810F0010F11D1FD
:101A10004FF0A04080684B4900F00100896801F058
:101A20000101084306D148486168826822F47C12AB
:101A30000A438260E168E06B627F0843A16841EA83
:101A40004231084394F8241040EA0140012904D1AE
:101A5000218D3E4A02EB41410843E16A29B101F47C
:101A60007871226B014342EA01002268D168384B49
:101A700019400143D16020680169626B21F0406127
:101A800011430161206801F0FFFF70BB207F94F8D3
:101A90003810800340EA41022168C86844F202031A
:101AA00098431043C86020690028206801690AD063
:101AB00041F480310161206850F8C01F22696FF342
:101AC0000D01114307E021F480310161206850F8D5
:101AD000C01F6FF30D01016094F8400001280CD085
:101AE0002068016921F00101016160690128206815
:101AF000016B21F00F0111D013E0D4E9110108436B
:101B0000D4E913121143084321680A6940F2FC73B7
:101B10009A43104340F001000861E6E7226A521E32
:101B200011430163E06D20F0020040F00100E06528
:101B300061E70000C0FFFF5FC0FFFF7F6C00002077
:101B4000400D030000010050000300500000FEFFA4
:101B50000740F0FF10B598B00446142111A8FEF715
:101B600092FC44216846FEF78EFC154920688842A5
:101B700023D1C401400500940F90684600F0DEFABE
:101B800008B1FFF7D5FC0F48C16C41F40051C164A6
:101B9000C16C01F400511691C16C41F00201C164A5
:101BA000C06C11A900F0020016900320CDE911408D
:101BB00000201390044800F095F818B010BD000004
:101BC0000001005000100240000400482DE9F041DF
:101BD00004463848806800F01F05206801F058FF6F
:101BE00018B102210846BDE8F08194F85800012898
:101BF0000CD0012084F858002046FFF733FC010088
:101C00004FF0000304D084F85830EBE70220EAE7F5
:101C1000E06D40F60162904340F48070E065264A32
:101C200020684FF0A046904201D1374600E00746B9
:101C3000874200D01DB9E76D27F48017E765E76D8F
:101C4000FF0404D5276E27F00607276600E0236609
:101C50001C27076084F858302068904201D1334631
:101C600000E00346834215D0A5B1052D12D0092D01
:101C700010D0E36D43F48013E365904200D1304609
:101C8000C0688001AED5E06D20F4005040F4805073
:101C9000E065A7E7C268920105D5E26D22F4005223
:101CA00042F48052E2658268044B1A40121D826041
:101CB00098E700000003005000010050C0FFFF7FC4
:101CC00070B5044600F03CF90546601C02D004489B
:101CD0004068044400F034F9401BA042FAD370BDC0
:101CE000600000202DE9F04FDFF82092002301264C
:101CF0000324A9F1040B85B00F2709F1040AABF105
:101D0000040EFAE006FA03F52A407CD091F804C0EC
:101D10000CF0030CBCF1010F02D0BCF1020F26D174
:101D2000D0F808C0CDF800C04FEA430C04FA0CF814
:101D3000CDF810C0DDF800C02CEA080CCDF800C0CA
:101D4000D1F80C80DDF810C008FA0CF8DDF800C0FE
:101D500048EA0C08C0F80880D0F804C02CEA050C4A
:101D60000D79C5F300159D4045EA0C0545600D79D8
:101D7000ED43AD070ED0C5684FEA430804FA08FCEE
:101D800025EA0C05D1F808C00CFA08FC4CEA050C51
:101D9000C0F80CC00D7905F00305022D16D1DD0841
:101DA00000EB850CCDF808C0DCF820805D074FEA19
:101DB000D56C07FA0CF528EA05080D6905FA0CF54B
:101DC000DDF808C045EA0805CCF8205005684FEA60
:101DD000430CCDF808C004FA0CFC25EA0C0591F878
:101DE00004C00CF00308DDF808C008FA0CF848EA53
:101DF0000508C0F800804D6815F4403F7CD0444D84
:101E0000D5F860C000E077E04CF0010CC5F860C088
:101E10002D6E23F0030C05F0010500953D4D654442
:101E20000295AD684FEA837C4FEA1C7807FA08FCFC
:101E300025EA0C05B0F1904F06D0DFF8DCC0604514
:101E400005D14FF0010C20E04FF0000C1DE0DFF851
:101E5000CCC0604502D14FF0020C16E0DFF8C0C0E4
:101E6000604502D14FF0030C0FE0DFF8B8C06045C9
:101E700002D14FF0040C08E0DFF8ACC0604502D19D
:101E80004FF0050C01E04FF0060C0CFA08FC4CEA90
:101E9000050C029DC5F808C0D9F80050CC46D1F811
:101EA000048095435FEAC82800D51543CCF800505C
:101EB000DAF80050D446D1F8048095435FEA8828C8
:101EC00000D51543CCF80050DBF80050DC46D1F8C3
:101ED000048095435FEA883800D51543CCF800505C
:101EE000DEF80050F446D1F8048095435FEAC83824
:101EF00000D51543CCF800505B1C0A6832FA03F594
:101F00007FF400AF05B0BDE8F08F00000804014089
:101F10000010024000000140000400480008004892
:101F2000000C0048001000480014004800690840F8
:101F300000D0012070470AB181617047816270470B
:101F400001488068704700006000002002488168F6
:101F500042681144816070476000002010B5002481
:101F6000032000F073F80F2000F008F808B10124F6
:101F700001E000F025F8204610BD000070B50E4EBF
:101F800005460024706898B14FF47A71B1FBF0F007
:101F90000A490968B1FBF0F000F03CFD40B9102D92
:101FA00006D200222946501E00F030F8356000E0CD
:101FB0000124204670BD0000600000206C0000205D
:101FC0000A4882B0016E41F001010166016E01F024
:101FD00001010091816D41F080518165806D00F0BB
:101FE0008050009002B000F0A1B800000010024044
:101FF000002809DB00F01F02012191404009800008
:1020000000F1E020C0F8001170470000F0B40E4B62
:102010001B680C46C3F30223C3F10705042D00D946
:102020000425191D072901D2002300E0DB1E01262B
:1020300006FA05F1491E214099409E40761E164041
:102040003143F0BC02F03ABB0CED00E0064900F071
:10205000070208684FF6FF03184040EA0220034ACF
:1020600010430860704700000CED00E00000FA0526
:102070002B492C4B0A6832214A432B4940B1B0F519
:10208000007F086829D020F4C06040F480602CE014
:102090000868C0F34120022804D051F8800F20F4D2
:1020A000807022E0D1F8800020F48070C1F88000B8
:1020B000086820F4C06040F400700860B2FBF3F0E0
:1020C000401C00E0401E4A69520501D50028F9D1A4
:1020D000486940050AD503207047C0F34120022813
:1020E00006D051F8800F40F48070086000207047DF
:1020F000D1F8800040F48070C1F88000086820F4B6
:10210000C06040F400700860B2FBF3F0401C00E0D7
:10211000401E4A695205DBD50028F9D1D8E70000F6
:102120006C00002040420F000070004002488168AF
:1021300041F4804181607047007000402DE9F84310
:102140000446006800269D4D00035ED5A86D00275B
:10215000C00008D4A86D40F08050A865A86D012784
:1021600000F080500090DFF85892D9F8001041F448
:102170008071C9F80010FFF7E3FE804606E000BF5B
:10218000FFF7DEFEA0EB080002282BD8D9F80000EC
:10219000C005F5D5D5F8900010F4407014D0216C2E
:1021A000814211D0D5F89000D5F8901020F44070FD
:1021B00041F48031C5F89010D5F8901021F48031A9
:1021C000C5F89010C5F89000C00711D0FFF7B8FE11
:1021D000804641F2883907E0FFF7B2FEA0EB080124
:1021E000494501D903260BE0D5F890008007F3D5C7
:1021F000D5F89000216C20F440700843C5F8900099
:102200001FB1A86D20F08050A8652078C00707D0C6
:10221000D5F88800616820F003000843C5F88800FD
:102220002078800707D5D5F88800A16820F00C0039
:102230000843C5F888002078400707D5D5F88800FE
:10224000E16820F030000843C5F8880020780007D6
:1022500007D5D5F88800216920F0C0000843C5F8EB
:1022600088002078800607D5D5F88800616920F4B9
:1022700040600843C5F888002078400607D5D5F8A7
:102280008800A16920F440500843C5F888002078F0
:10229000000607D5D5F88800E16920F440400843DE
:1022A000C5F888002088C00507D5D5F88800216AC0
:1022B00020F440300843C5F888002088800507D501
:1022C000D5F88800616A20F440200843C5F88800EA
:1022D000208840050FD5D5F88800A16A20F4401069
:1022E0000843C5F88800A06AB0F5801F03D1E868EC
:1022F00040F48010E860208800050FD5D5F88800EC
:10230000E16A20F440000843C5F88800E06AB0F5AF
:10231000800F03D1E86840F48010E8602088C00492
:102320000FD5D5F88800216B20F040700843C5F820
:102330008800206BB0F1807F03D1E86840F4801002
:10234000E86020884FF0006180040ED5D5F8880041
:10235000626B20F040601043C5F88800606B8842D3
:1023600003D1E86840F48010E860208840040ED56E
:10237000D5F88800A26B20F040601043C5F88800B3
:10238000A06B884203D1E86840F48010E8602088A0
:1023900000040FD5D5F88800E16B20F040500843C9
:1023A000C5F88800E06BB0F1805F03D1E86840F4C5
:1023B0008030E8603046BDE8F8830000001002403D
:1023C000007000402DE9F0470E4605004FF0000771
:1023D00025D0DFF8AC81D8F8000000F00F00B04243
:1023E0000CD2D8F8001021F00F013143C8F80010CA
:1023F000D8F8000000F00F00B04210D12968614CFD
:10240000C80741F2883A5AD06868DFF87C910328FF
:1024100008D0022820682DD0400500282CDB0120A0
:10242000BDE8F08720688001F9D5E06800F003027C
:10243000E068C0F30310401C032A19D0534A00BFC0
:10244000B2FBF0F0E268C2F306225043E268C2F346
:102450004162521C5200B0FBF2F0484517D9A06807
:1024600010F0F00F0CD0880711D5A86840B10EE02D
:10247000474AE5E78003D0E700F092F8484506D9DF
:10248000A06820F0F00040F08000A0608027A068E5
:10249000696820F003000843A060FFF751FD814602
:1024A00006E000BFFFF74CFDA0EB090151453AD80B
:1024B000A068696800F00C00B0EB810FF2D12868C9
:1024C000810714D5400703D5A06840F4E060A06000
:1024D0002878000705D5A06820F4605040F4E0603B
:1024E000A060A068A96820F0F000084304E0802FF5
:1024F00003D1A06820F0F000A060D8F8001040469A
:1025000001F00F01B14216D9016821F00F013143EA
:102510000160FFF715FD074607E000BFFFF710FD5C
:10252000C11B514501D903207AE7D8F8000000F01B
:102530000F00B042F2D12878400705D5A068E968BD
:1025400020F4E0600843A0602878000706D5A06862
:10255000296920F4605040EAC100A06000F020F832
:10256000A1680C4AC1F30311515C01F01F01C8407E
:102570000949086009480068BDE8F047FFF7FEBC5C
:10258000002002400010024000B4C4040024F40003
:1025900000366E018A5D00086C000020600000209B
:1025A000184910B58868C0F381021748012A0BD07A
:1025B0008A68164BC2F38102022A06D08A68C2F3E7
:1025C0008102032A03D0002010BD184610BDCA683E
:1025D00002F00304CA68C2F30312521C032C02D097
:1025E000B0FBF2F001E0B3FBF2F0CA68C968C2F3D5
:1025F00006225043C1F34161491C4900B0FBF1F090
:1026000010BD0000001002400024F40000366E01EE
:102610002DE9F84304007AD02078F84DC00747D060
:10262000A868E96800F00C0001F003010C2802D052
:10263000082817D001E0032914D06068B0F5803F66
:1026400017D0B0F5A02F286817D020F4803028606C
:10265000286820F4802028606068E0B1FFF770FCF3
:10266000064614E02868800322D560680028D2D08E
:102670001EE0286840F48030EDE740F480202860B8
:10268000F7E700BFFFF75CFC801B642870D8286860
:102690008003F7D50CE0FFF753FC064605E000BFCA
:1026A000FFF74EFC801B6428F0D828688003F7D41D
:1026B000207880074CD5A868E96800F00C0001F08C
:1026C00003010C2802D004280DD001E002290AD011
:1026D000E068002828682BD040F480702860FFF75D
:1026E0002FFC064619E02868400502D5E06800285E
:1026F00091D06868217C20F0FE4040EA016068606B
:10270000BF480068FFF73AFC002800D120E072E1E2
:10271000FFF716FC801B0228B8D828684005F7D5BB
:102720006868217C20F0FE4040EA016068600FE0AC
:1027300020F480702860FFF703FC064605E000BF28
:10274000FFF7FEFB801B0228A0D828684005F7D4BD
:102750002078000729D560690028D5F8940013D0A7
:1027600040F00100C5F89400FFF7EAFB064606E0DA
:1027700090E000BFFFF7E4FB801B022886D8D5F865
:1027800094008007F6D510E020F00100C5F8940011
:10279000FFF7D6FB064604E0FFF7D2FB801B0228BA
:1027A00078D8D5F894008007F6D42078400761D512
:1027B000A86D0026C00008D4A86D40F08050A86520
:1027C000A86D012600F0805000908E480168C90570
:1027D00011D40168804641F480710160FFF7B0FBBD
:1027E000074604E0FFF7ACFBC01B022852D8D8F81C
:1027F0000000C005F6D5A068012815D00528D5F839
:10280000900016D020F00100C5F89000D5F8900097
:1028100020F00400C5F89000A06841F28838B8B1F3
:10282000FFF78EFB07460EE0D5F8900040F0010060
:10283000F0E740F00400C5F89000F5E7FFF780FBF3
:10284000C11B414526D8D5F890008007F6D50CE08D
:10285000FFF776FB074604E0FFF772FBC11B41451B
:1028600018D8D5F890008007F6D41EB1A86D20F0D6
:102870008050A8652078800629D5A0690028D5F861
:10288000980013D040F00100C5F89800FFF758FBFE
:10289000064606E075E000BFFFF752FB801B0228EA
:1028A0006FD8D5F898008007F6D510E020F0010029
:1028B000C5F89800FFF744FB064604E0FFF740FB2D
:1028C000801B02285DD8D5F898008007F6D4E0690F
:1028D000F0B3A968C1F3810103295DD002282868FB
:1028E00020F08070286003D0FFF72AFB04464BE0FD
:1028F000FFF726FB064604E0FFF722FB801B0228B9
:102900003FD828688001F7D4F4E908016FF00F027E
:1029100002EB01110843218A5204490802EB41519C
:10292000A26841EA02210843217D4FF07E42490816
:1029300002EB41610843217B40EAC160E968324A09
:1029400011400843E860286840F08070286000E08B
:102950005EE0E86840F08070E860FFF7F1FA044656
:1029600005E000BFFFF7ECFA001B022809D8286831
:102970008001F7D54CE000BFFFF7E2FA001B022808
:1029800002D90320BDE8F88328688001F4D4E86800
:102990001E490840E8603BE00128F3D0E868226A5D
:1029A00000F00301914226D1616A00F0F0020901B2
:1029B000103991421FD1A26A00F4FE41B1EB022FFF
:1029C00019D194F82C2000F07841B1EBC26F12D1EC
:1029D000218E00F4C00249084905A1F50011914279
:1029E00009D194F8341000F0C06049084906A1F1FB
:1029F000007181420CD00120C4E7000000100240A9
:102A000060000020007000400C809F01FCFFEEFE83
:102A10000020B7E710B5401EB0F1807F01D3012040
:102A200010BD4FF0E02460610F21601701F046FEF9
:102A30000020A06107202061002010BD7047704772
:102A40007047704770477047F0B590F83C20012AF6
:102A50003AD0012580F83C50022280F83D200368DE
:102A60005A689C68194E1A4FB34201D0BB4204D138
:102A700022F4700C4A6842EA0C02DFF858C002EAFD
:102A80000C02D1F800C04CEA020CC3F804C0026882
:102A9000B2420DD0B2F1804F0AD00F4B9A4207D00C
:102AA0000E4B9A4204D0BA4202D00D4B9A4204D146
:102AB000896824F080031943916080F83D5000211B
:102AC00080F83C100846F0BD0220F0BD002C01400B
:102AD000003401408FFFFFFD00040040000800406B
:102AE00000400140704710B5040003D094F83D0049
:102AF00010B107E0012010BD002084F83C00204602
:102B000000F022F8022084F83D00211D206801F029
:102B100031FB012084F8480084F83E0084F83F002F
:102B200084F8400084F8410084F8420084F84300AF
:102B300084F8440084F8450084F8460084F847008F
:102B400084F83D00002010BD10B586B00446142165
:102B50006846FDF798FC21682748B1F1804F15D0F1
:102B6000264A914236D1816D41F002018165806D26
:102B7000002200F00200059011461D20FFF746FAE2
:102B80005FF01D00FFF734FA06B010BD816D41F013
:102B900001018165816D01F001010591C16C41F078
:102BA0000101C164C06C694600F00100059002207B
:102BB00000900190002002900390012004904FF0BB
:102BC0009040FFF78FF8002211461C20FFF71EFAF5
:102BD0001C20D7E70A4A9142D6D1016E41F48021E8
:102BE0000166006E002200F48020059011461A2034
:102BF000FFF70CFA1A20C5E700100240000400405D
:102C00000048014090F83D10012901D00120704793
:102C1000022180F83D100168CA6842F00102CA60D2
:102C20000068104988420ED0B0F1804F0BD00E4999
:102C3000884208D00D49884205D00D49884202D00B
:102C40000C49884207D181680B4A1140062906D0F9
:102C5000B1F5803F03D0016841F00101016000201F
:102C600070470000002C01400004004000080040B4
:102C700000340140004001400700010070B50446E7
:102C800090F83C000025012814D0012684F83C600F
:102C9000022084F83D0022689068364B184020F4EA
:102CA0007F409060086870282ED010DC10F00F0F65
:102CB00003D021E04FF0020070BD4FEA2012072A36
:102CC0001AD2DFE802F0525252524A3840002A4BE0
:102CD000C21A984249D009DCB0F5805F0DD0B0F53A
:102CE000005F1CD0B0F1101F06D13EE0102A3CD08E
:102CF000202A3AD0502A38D0012584F83D6000209F
:102D000084F83C00284670BDCB68D1E901212068D9
:102D100001F09BFA2068816841F0770109E0CB68F7
:102D2000D1E90121206801F090FA2068816841F41E
:102D300080418160E1E7CA684968206801F030FCA1
:102D40005021206806E0CA684968206801F070FCDC
:102D50006021206801F084FACFE7CA6849682068DA
:102D600001F01EFC40212068F4E72268014610466D
:102D7000F0E7000088FFCEFF2000100070B5044689
:102D80000068B0F1804F10D1207F02280DD10421BE
:102D9000204600F07FFC054D00216860204600F0D1
:102DA00079FCA86021680020486270BD780000208E
:102DB0002DE9F041054690F83C0000260C4601281C
:102DC00010D0012085F83C0072B1042A1CD0082ADA
:102DD0002CD00C2A50D00126002085F83C0030462B
:102DE000BDE8F0810220FBE7D4E90012E36828681F
:102DF00001F0E8FB2868816921F00C0181612868F5
:102E00008169A26811430FE0D4E90012E3682868E1
:102E100001F020FC2868816921F440618161286803
:102E20008169A26841EA02218161D5E72868D4E975
:102E3000002C277B036A016A21F480710162C16959
:102E400023F4206321F0030141EA0C0121F0F00C8E
:102E500039074FF420674CEA116107EA02221A434E
:102E6000C16102622868C16921F00C01C161286852
:102E7000C169A26811432BE02868D4E90021E76802
:102E8000036AD0F820C02CF4805CC0F820C0D0F8D1
:102E90001CC023F420432CF4407C4CEA012121F493
:102EA000704C4FF6FF7101EA07314FF4204741EAB9
:102EB0000C0107EA02321A43C16102622868C16943
:102EC00021F44061C1612868C169A26841EA022118
:102ED000C16181E710B5040003D094F83D0010B142
:102EE00007E0012010BD002084F83C00204600F0DF
:102EF00022F8022084F83D00211D206801F03AF9F3
:102F0000012084F8480084F83E0084F83F0084F8EB
:102F1000400084F8410084F8420084F8430084F8BB
:102F2000440084F8450084F8460084F8470084F89B
:102F30003D00002010BD704710B5044679B104294A
:102F400012D0082915D00C2918D0102919D094F8BE
:102F5000430000BF94F84720012817D114E094F8EB
:102F60003E0094F84420F7E794F83F0094F8452099
:102F7000F2E794F8400094F84620EDE794F8410019
:102F8000E8E794F84200E5E7012A01D0012010BDEE
:102F9000022081B3042934D0082937D00C293AD033
:102FA00010293BD084F8430084F8470001222068B0
:102FB00001F03EF91B49206888420ED0B0F1804FE5
:102FC0000BD01949884208D01849884205D01849C1
:102FD000884202D01749884207D18168164A1140B9
:102FE000062906D0B1F5803F03D0016841F0010108
:102FF0000160002010BDFFE784F83E0084F8440023
:10300000D4E784F83F0084F84500CFE784F8400017
:1030100084F84600CAE784F84100C5E784F8420016
:10302000C2E70000002C01400004004000080040FE
:1030300000340140004001400700010030B5044663
:10304000002571B1042911D0082914D00C2917D0FA
:10305000102918D094F8430094F84720012817D17C
:1030600014E094F83E0094F84420F7E794F83F0009
:1030700094F84520F2E794F8400094F84620EDE7F4
:1030800094F84100E8E794F84200E5E7012A01D00E
:10309000012030BD022079B1042916D008291DD0A5
:1030A0000C2949D010294AD084F8430084F84700FD
:1030B0000C2947D001253DE084F83E0084F8440007
:1030C0002068C26842F0020210E084F83F0084F8F1
:1030D00045002068C26842F0040207E084F840001E
:1030E00084F846002068C26842F00802C2600122EB
:1030F000206801F09DF81649206888420ED0B0F192
:10310000804F0BD01349884208D01349884205D01C
:103110001249884202D01249884207D18168114A77
:103120001140062906D0B1F5803F03D0016841F077
:1031300001010160284630BD84F84100B6E784F8FB
:103140004200B3E72068C26842F01002CEE70000F8
:10315000002C014000040040000800400034014001
:1031600000400140070001002DE9F04104460068DD
:10317000C66805694FF00007A90713D5B10711D537
:10318000F91E0161012020772068806980072046B0
:1031900002D0FFF7F3FD04E000F0E0F8204600F075
:1031A000A2F92777680716D5700714D521686FF044
:1031B00004000861022020772068806910F4407FB5
:1031C000204602D0FFF7DAFD04E000F0C7F8204601
:1031D00000F089F92777280715D5300713D521681E
:1031E0006FF008000861042020772068C06980071C
:1031F000204602D0FFF7C2FD04E000F0AFF8204601
:1032000000F071F92777E80616D5F00614D5216885
:103210006FF010000861082020772068C06910F462
:10322000407F204602D0FFF7A9FD04E000F096F8A9
:10323000204600F058F92777E80708D0F00706D0B5
:1032400021686FF001000861204600F0CBF92806E4
:1032500001D4A80408D5300606D521686FF40250C1
:1032600008612046FFF7EBFBE80508D5300606D5D8
:1032700021686FF4807008612046FFF7DFFB680665
:1032800008D5700606D521686FF040000861204619
:1032900000F015FAA80608D5B00606D521686FF02B
:1032A000200008612046FFF7CBFBE80208D5F002BA
:1032B00006D521686FF4801008612046FFF7C2FB35
:1032C000A80208D5B00206D521686FF40010086185
:1032D0002046FFF7B6FB680208D5700206D52168C4
:1032E0006FF4800008612046FFF7ADFB28020AD585
:1032F000300208D521686FF4000008612046BDE85F
:10330000F041FFF7EFBBBDE8F081000010B586B0DB
:10331000044614216846FDF7B6F80E492068884235
:1033200015D10D48C16C41F00101C164C06C002190
:1033300000F001000590802000900220CDE90101FD
:10334000CDE9031069464FF09040FEF7CBFC06B084
:1033500010BD00000004004000100240704770B52E
:10336000044690F83C0000260D4601280BD00120B1
:1033700084F83C000C2A4AD007DC82B1042A20D011
:10338000082A06D131E0022070BD102A53D0142A39
:1033900063D00126002084F83C00304670BD2068D0
:1033A00000F068FF2068816941F0080181612068B0
:1033B000816921F004018161206881692A691143D2
:1033C00011E0206800F0A4FF2068816941F40061E9
:1033D00081612068816921F480618161206881694F
:1033E0002A6941EA02218161D4E7206800F0D8FF10
:1033F0002068C16941F00801C1612068C16921F0FC
:103400000401C1612068C1692A69114311E0206883
:1034100001F00EF82068C16941F40061C1612068C3
:10342000C16921F48061C1612068C1692A6941EAEA
:103430000221C161AEE7206801F042F82068016D09
:1034400041F0080101652068016D21F0040101656A
:103450002068016D2A69114311E0206801F068F8C5
:103460002068016D41F4006101652068016D21F45F
:10347000806101652068016D2A6941EA02210165C8
:1034800088E710B5040003D094F83D0010B107E0C0
:10349000012010BD002084F83C00204600F022F8F6
:1034A000022084F83D00211D206800F063FE012009
:1034B00084F8480084F83E0084F83F0084F8400017
:1034C00084F8410084F8420084F8430084F8440002
:1034D00084F8450084F8460084F8470084F83D00ED
:1034E000002010BD7047704730B50446022269B114
:1034F000042912D0082917D00C291CD0102921D05A
:1035000094F84300012824D0012030BD94F83E00F7
:103510000128F9D184F83E201DE094F83F000128ED
:10352000F2D184F83F2016E094F840000128EBD156
:1035300084F840200FE094F841000128E4D184F899
:10354000412008E094F842000128DDD184F84220AF
:1035500001E084F843200122206800F069FE194B45
:1035600020681949194A984209D0884207D09042E8
:1035700005D0174DA84202D0164DA84203D1456C84
:1035800045F400454564206898420CD0B0F1804F66
:1035900009D0114B984206D0104B984203D0884274
:1035A00001D0904207D181680D4A1140062906D00A
:1035B000B1F5803F03D0016841F0010101600020B6
:1035C00030BD0000002C01400034014000400140AB
:1035D0000044014000480140000400400008004051
:1035E0000700010070B50068274988424AD1274D7D
:1035F00001212846FEF79AFC254C022160722846DC
:10360000FEF794FC607404212846FEF78FFC607678
:1036100001214FF09040FEF789FC012184F8210040
:103620000B46002204EBC100857825B1012D06D0A0
:10363000022D24D10AE045780DBB83701FE0457848
:103640000DB182701BE00225857018E04578002DD1
:10365000456804D0BE2D0DD204F831300CE06D1C4D
:103660004560C82D0BD9C5784DB9C370042004F846
:10367000310004E004F8312082704260C270491CBD
:103680000429CFDD70BD000000480140000400485F
:10369000B80600200246002041B1042909D00829BB
:1036A0000AD00C2901D11068006C70471068406B7B
:1036B00070471068806B70471068C06B7047704728
:1036C000FEE7000000B585B014216846FCF7DBFE7C
:1036D0004FF6FF70009000200321CDE90201019018
:1036E00069460248FEF7FEFA05B000BD0008004832
:1036F00000B585B014216846FCF7C5FE4FF6FF7093
:103700000090012001900320039000200290694660
:103710000248FEF7E7FA05B000BD000000080048C7
:1037200070B5002406462146204600F003F900F05B
:1037300041F94FF49635304600F010F9641CAC4264
:10374000F9D370BD30B587B014216846FCF79BFEF5
:103750001E48C16C41F00401C164C16C01F0040158
:103760000591C16C41F00101C164C16C01F001011E
:103770000591C16C41F00201C164C06C012500F0EB
:10378000020005904FF44870CDE900050024039431
:10379000694602940E48FEF7A5FA280203940090A9
:1037A000CDE901544FF0904469462046FEF79AFA5D
:1037B000FFF79EFFA06940F48070A06104481830B4
:1037C000016841F40871016007B030BD001002408B
:1037D00000040048203AD2B2034B02EB420203EB52
:1037E000021200F019B800009A5D0008F0B50E460C
:1037F0000746002540F23F1407E021463846FFF710
:10380000E9FF103C6D1CA4B2761C3278002A01D06E
:10381000142DF2D3F0BD00002DE9F04791468A4601
:103820000026044600F086F8DFF84080012700BF3C
:1038300000F0C0F85FF0000539F8160007FA05F14E
:103840000842404601D1408800E0008800F086F838
:103850006D1C102DF0D3641CE4B25146204600F0DC
:1038600069F8761C182EE3D3BDE8F08770000020BD
:1038700010B5FFF767FF002000F014F8084CA08097
:10388000A088A0F50241303906D000F021FB0020CD
:1038900000F008F8A08010BD00F091FAF7E70000F2
:1038A0007000002070B51D490A6842F400720A6079
:1038B0000A6842F480720A60184C103C226842F098
:1038C00020022260164A1060086840F0200008605C
:1038D00000BF00BF00BF206840F0200020602068CB
:1038E00040F480702060FFF7EDFE4FF09041886A51
:1038F00040F48070886200BF00BF00BF0848001F0E
:10390000006885B2886940F480708861FFF7F0FE36
:10391000206840F400702060284670BD28040048EC
:103920001408004801B5BDF800000149488008BDF1
:103930007000002010B50C460146202000F068F809
:103940002146BDE81040212000F062B801B5BDF865
:1039500000000149088008BD70000020134A11686A
:1039600041F400711160114910390B6843F4807300
:103970000B600B6843F020030B600D4B1860106860
:1039800040F02000106000BF00BF00BF086840F09A
:1039900020000860086840F48070086000BF00BF25
:1039A00000BF086840F400700860704728040048B1
:1039B000140800481449086840F40070086008685A
:1039C00040F48070086010481038026842F020020D
:1039D00002600E4B22221A600A6842F020020A603E
:1039E00000BF00BF00BF016841F020010160016815
:1039F00041F48071016000BF00BF00BF016841F465
:103A00000071016070470000280400481408004855
:103A1000184B10B51A6842F400721A601A6842F422
:103A200080721A60134A103A146844F0200414603B
:103A3000114C2060186840F02000186000BF00BFE3
:103A400000BF106840F020001060106840F48070E3
:103A500010602160186840F02000186000BF00BFAF
:103A600000BF106840F020001060106840F48070C3
:103A7000106010BD280400481408004800EB8100C5
:103A8000006E00F0F84070478068C0F3C0007047D7
:103A90008068C0F380007047042303EAD15310B557
:103AA00018444369C1F3045107248C40A3438A405E
:103AB0001343436110BD00EB8100016E21F0004112
:103AC000114301667047000030B589B02021684677
:103AD000FCF7D9FC19481849002401604902C0E9E3
:103AE0000114C46004250461C0E9054504774477E6
:103AF0000121016280F82440C462046380F83840E8
:103B0000C46380F84040FDF72BFF08B1FDF710FDBE
:103B10000B48009006200190072002907F2005941A
:103B2000CDE9030569460548FDF704FD002801D0ED
:103B3000FDF7FEFC09B030BD000100506805002013
:103B40000080F03E2DE9F04186B014216846FCF774
:103B50009AFC3648C16C41F00401C164C16C01F0AB
:103B600004010591C16C41F02001C164C16C01F0F8
:103B700020010591C16C41F00101C164C16C01F0EB
:103B800001010591C16C41F00201C164C16C01F0F9
:103B900002010591C16C41F00801C164C06C244E62
:103BA00000F008004FF47F44059001222146304682
:103BB000FEF7C1F94FF09047002240213846FEF74A
:103BC000BAF9DFF87080002204214046FEF7B3F90D
:103BD0000125CDE90045002402946946304603944E
:103BE000FEF780F8CDE90054694638460295FEF7A5
:103BF00079F840200090CDE9015469463846039495
:103C0000FEF770F807208DE8310069460A48FEF794
:103C100069F804200090CDE90154694640460394B8
:103C2000FEF760F806B0BDE8F08100000010024029
:103C300000080048000C0048000400480C4810B57B
:103C40000A4901604F214160002142F20F72C0E930
:103C50000212016141618161FEF745FF002803D036
:103C6000BDE81040FDF764BC10BD000000480140F5
:103C70006C06002010B58CB00024059426480494EE
:103C80000694079408940A94099400940194029469
:103C90004FF08041039401604F21C0E90114611E7F
:103CA000C0E903148461FEF71EFF08B1FDF740FC74
:103CB0004FF48050049004A91748FEF7DFFF08B1C5
:103CC000FDF736FC1448FFF705F908B1FDF730FCA5
:103CD000089408A910480A94FEF7B6FE08B1FDF74B
:103CE00027FC02200090CDE90104002269460A4821
:103CF0000394FFF75DF808B1FDF71AFC0120CDE948
:103D00000040042269460448FFF752F8002801D019
:103D1000FDF70EFC0CB010BDD405002010B58EB020
:103D200000240794089409940A940B940C941C2181
:103D300068460D94FCF7A7FB1E481D4901604F2102
:103D4000C0E901146321C0E903148461FEF7CBFECE
:103D500008B1FDF7EDFB4FF48050079007A9154817
:103D6000FEF78CFF08B1FDF7E3FB1248FFF789FB74
:103D700008B1FDF7DDFB0B940BA90E480D94FEF77F
:103D800063FE08B1FDF7D4FB602000903120CDE93F
:103D900001040422694607480494FFF7E0FA08B1D9
:103DA000FDF7C6FB0348FFF7B1FA0EB010BD0000E7
:103DB0000004004020060020FEE7FEE7704730B513
:103DC00001210020FFF724FE4FF47A70FDF7A2FBDB
:103DD00000210120FFF71CFE41F290711020FFF737
:103DE00017FE4FF41C516020FFF712FE01216120E5
:103DF000FFF70EFE02214620FFF70AFE48F21001EF
:103E00001320FFF705FE48F2FE011220FFF700FE27
:103E10004FF4A0610220FFF7FBFD41F230010320C7
:103E2000FFF7F6FD40F2033421463020FFF7F0FDA6
:103E300021463120FFF7ECFD21463220FFF7E8FD57
:103E4000E51E29463320FFF7E3FD03213420FFF769
:103E5000DFFD21463520FFF7DBFD14213620FFF77B
:103E6000D7FD21463720FFF7D3FD21463820FFF745
:103E7000CFFD21463920FFF7CBFD29463A20FFF739
:103E8000C7FD03213B20FFF7C3FD21463C20FFF780
:103E9000BFFD4FF4A0513D20FFF7BAFD4FF4007174
:103EA0009220FFF7B5FD21469320FFF7B1FD40F6C4
:103EB0000D019020FFF7ACFD41F218010320FFF740
:103EC000A7FDBDE8304040F273110720FFF7A0BD09
:103ED00010B543F20801E320FFF79AFD1221E72015
:103EE000FFF796FD41F23121EF20FFF791FD002110
:103EF0000120FFF78DFD4FF4E0610220FFF788FD00
:103F000041F230010320FFF783FD00210420FFF779
:103F10007FFD40F207210820FFF77AFD00210920EC
:103F2000FFF776FD00210A20FFF772FD00210C202B
:103F3000FFF76EFD00210D20FFF76AFD00210F2025
:103F4000FFF766FD00211020FFF762FD0721112019
:103F5000FFF75EFD00211220FFF75AFD002113201C
:103F6000FFF756FDC820FDF7ABFE41F2906110202F
:103F7000FFF74EFD40F227211120FFF749FD3220C7
:103F8000FDF79EFE1D211220FFF742FD3220FDF7B6
:103F900097FE4FF400611320FFF73AFD142129200A
:103FA000FFF736FD0B212B20FFF732FD3220FDF706
:103FB00087FE00212020FFF72BFD00212120FFF7A5
:103FC00027FD07213020FFF723FD40F20771312044
:103FD000FFF71EFD06213220FFF71AFD40F20471A3
:103FE0003520FFF715FD41F604713620FFF710FD6F
:103FF00004213720FFF70CFD00213820FFF708FDD2
:1040000040F206713920FFF703FD40F201713C20B8
:10401000FFF7FEFC0F213D20FFF7FAFC00215020A6
:10402000FFF7F6FCEF215120FFF7F2FC00215220B0
:10403000FFF7EEFC40F23F115320FFF7E9FC4FF48D
:104040001C516020FFF7E4FC01216120FFF7E0FC38
:1040500000216A20FFF7DCFC00218020FFF7D8FC5C
:1040600000218120FFF7D4FC00218220FFF7D0FC43
:1040700000218320FFF7CCFC00218420FFF7C8FC3F
:1040800000218520FFF7C4FC10219020FFF7C0FC21
:1040900000219220FFF7BCFC03219320FFF7B8FC1E
:1040A0004FF488719520FFF7B3FC00219720FFF7AC
:1040B000AFFC00219820FFF7ABFC41F21801032070
:1040C000FFF7A6FCBDE8104040F273110720FFF790
:1040D0009FBC7047FDF73ABF10B594B038216846D1
:1040E000FCF7D1F914210EA8FCF7CDF94FF40070BC
:1040F000FDF7BEFF01200090000401900220032480
:10410000CDE907041421CDE90A100C900D90099413
:104110006846FEF77DFA08B172B6FEE70F20CDE9DA
:104120000E04002010901190129002210EA8FEF7AC
:1041300049F9002801D072B6FEE714B010BD0000A6
:104140000248016841F470010160704788ED00E0A9
:104150000148FFF709B800006C0600200148FFF78E
:1041600003B80000D40500200148FEF7FDBF0000A1
:10417000200600202DE9F0430268264B264D274EED
:10418000274C4FF08049984207D0484505D0A842B7
:1041900003D0B04201D0A04203D122F070074A6898
:1041A0003A43204FDFF880C0DFF8808098420DD07E
:1041B00048450BD0A84209D0B04207D0A04205D054
:1041C000B84203D0604501D0404503D122F4407588
:1041D000CA682A434D6922F080022A4302608A6835
:1041E000C2620A688262984207D0A04205D0B842F3
:1041F00003D0604501D0404501D109690163012127
:1042000041610169C90703D0016921F00101016120
:10421000BDE8F083002C014000040040000800408D
:10422000003401400040014000440140004801408A
:1042300010B501F01F030121046A99408C43046208
:10424000016A9A401143016210BD10B5846842EAC8
:10425000032224F47F440A432243826010BD0000FD
:104260008268034B1A400A4342F00701816070479D
:104270008FFFCFFF2DE9F043056A026A22F00102A9
:104280000262436882691C4C25F0020522400C68DA
:1042900022F0030214438A68194E2A43174D194F1E
:1042A000DFF864C0DFF86490A84207D0B04205D0C0
:1042B000B84203D0604501D0484506D122F0080835
:1042C000CA6842EA080222F00402A84207D0B042BB
:1042D00005D0B84203D0604501D0484505D14D69AD
:1042E00023F440731D438B692B4343608461496809
:1042F00041630262BDE8F0838FFFFEFF002C0140A6
:1043000000340140004001400044014000480140A9
:10431000F0B5056A026A22F01002026242688369FF
:10432000194C1B4E23400C6823F4407343EA0424C9
:1043300025F020038D6843EA0513144DA84201D0EF
:10434000B04206D1CF6823F0800343EA071323F07D
:104350004003A8420AD0B04208D00E4DA84205D072
:104360000D4DA84202D00D4DA84207D14D6922F44F
:10437000406242EA85028D6942EA850242608461B8
:10438000496881630362F0BDFF8FFFFE002C01408E
:104390000034014000400140004401400048014019
:1043A000F0B5056A026A22F4807202624368C2694B
:1043B000194C1B4E22400C6822F00302144325F4D2
:1043C00000728D6842EA0522144DA84201D0B04225
:1043D00006D1CF6822F4006242EA072222F480620A
:1043E000A8420AD0B04208D00E4DA84205D00E4DCA
:1043F000A84202D00D4DA84207D14D6923F4405385
:1044000043EA05138D6943EA05134360C4614968B3
:10441000C1630262F0BD00008FFFFEFF002C01406F
:104420000034014000400140004401400048014088
:10443000F0B5056A026A22F4805202624268C369DA
:10444000194C1B4E23400C6823F4407343EA0424A8
:1044500025F400538D6843EA0533144DA84201D07A
:10446000B04206D1CF6823F4004343EA073323F474
:104470008043A8420AD0B04208D00E4DA84205D0D1
:104480000D4DA84202D00D4DA84207D14D6922F42E
:10449000404242EA85128D6942EA85124260C46157
:1044A000496801640362F0BDFF8FFFFE002C0140EC
:1044B00000340140004001400044014000480140F8
:1044C00030B5056A026A22F4803202624268036DE6
:1044D000114C23400C681C4325F400330D8943EA3A
:1044E00005430E4DA8420BD00D4DA84208D00D4DEE
:1044F000A84205D00C4DA84202D00C4DA84204D1D0
:104500004D6922F4803242EA05224260046549681E
:104510008164036230BD00008FFFFEFF002C01406C
:104520000034014000400140004401400048014087
:1045300030B5046A026A22F4801202624268036D96
:10454000114D24F400142B400D6843EA05230D8916
:1045500044EA05540D4DA8420BD00D4DA84208D099
:104560000C4DA84205D00C4DA84202D00B4DA842DC
:1045700004D14D6922F4802242EA8522426003651B
:104580004968C164046230BDFF8FFFFE002C01400A
:104590000034014000400140004401400048014017
:1045A00010B5036A046A24F001040462846924F0EB
:1045B000F00444EA021423F00A020A43846102620E
:1045C00010BD000070B5056A046A24F0010404629D
:1045D0008469124EB0420ED0B0F1804F0BD0104E15
:1045E000B04208D00F4EB04205D00F4EB04202D0BC
:1045F0000E4EB04203D124F00304144301E044F012
:1046000001041A0724F0F00444EA126225F00A03B8
:1046100001F00A0119438261016270BD002C014062
:104620000004004000080040003401400040014008
:1046300010B5036A046A24F010040462846923F04C
:10464000A00324F4704444EA023243EA0111826177
:10465000016210BD30B5046A056A25F010050562D7
:10466000856925F4407545EA022222F470454FF62B
:10467000FF7202EA033224F0A0032A43A02404EAD2
:10468000011119438261016230BDFEE703B4019854
:104690004100009850EAC12018BF04204A0D18BFFD
:1046A00040F0010040F2FF72B2EB515F08BF40F0F2
:1046B0000200012808BF052002B070470907090E53
:1046C000002804DB00F1E02080F80014704700F0BF
:1046D0000F0000F1E02080F8141D704730380A28E0
:1046E00001D20120704700207047000010B50F482C
:1046F000FDF76CFA0D48FDF72FF900EE100AB8EE41
:10470000C00A10EE100A01F0C3FA9FED091B53EC2A
:10471000112B01F0C9F89FED081B53EC112B01F090
:10472000C3F800F061FE00EE100A10BD680500201D
:104730006666666666660A40000000000000303F5C
:1047400010B515481549164C0068B1FBF0F16164CD
:10475000144991ED000AF8EE400A00EE100AB8EE96
:10476000401A80EE810ADFED100A20EE200ABCEE2E
:10477000C00A84ED120AFFF7B9FF84ED160AFFF7AD
:10478000B5FF84ED160AFFF7B1FF84ED160A00F0BD
:1047900077F984ED170A10BD7C00002040420F001D
:1047A00000000020800000200000C8422DE9F047F2
:1047B000234DA879012841D101260024DFF8848007
:1047C000DFF8849027464FF0640A00BFFFF7B8FF78
:1047D00000F0CCFB00F07CFA00F06EFD88F8207051
:1047E00088F8187088F8107088F80870D9F80010E8
:1047F000B1FBFAF20AFB1210322801D9012000E0C5
:1048000000209EB990B1114A696C42F8241002F55B
:10481000C872A96C42F8241002F5C87101EB84013A
:1048200095ED160A641C81ED000AE4B20646286B79
:1048300000EB8000B4EB400FC8D3AF71BDE8F08748
:1048400000000020B806002068000020B80000200A
:104850002DE9F05F6C4CDFF8B4A14FF000082DEDAE
:10486000088B4FF0640BE079012837D1012700262F
:104870004FEA0B09FFF764FF00F078FB00F028FA1D
:1048800000F026F984F8068000F016FDDAF8001032
:10489000B1FBF9F209FB1210322801D9012500E021
:1048A00000256FB965B15A48E16A50F82600B0FB9F
:1048B000F1F0584951F8261000F090FC761CF6B241
:1048C000206B2F4600EB8000B6EB400FD2D384F86C
:1048D0000780012142F2107000F080FC207A01284C
:1048E0007DD1D146DA460127DFF82CB1002500BF83
:1048F000FFF726FF00F03AFB00F0EAF900F0E8F8D5
:1049000084F8068000F0D8FCD9F80010B1FBFAF268
:104910000AFB1210322801D9012600E00026EFBB65
:10492000E6B30BEB8500D4ED108A90ED008AB4EE6F
:10493000E88AF1EE10FA01D20A2046E018EE100AD9
:104940003649884201DD64203FE018EE900A01F00C
:104950009FF99FED33BB53EC1B2B01F0A3F841EC07
:10496000100B53EC102B9FED300B51EC100B00F0A3
:1049700015FE9FED2F1B53EC112B01F093F841EC2A
:10498000190B18EE100A01F083F941EC1A0B18EE1E
:10499000900A01F07DF953EC1B2B00E01CE001F0C4
:1049A00081F841EC100B53EC102B9FED230B51ECD5
:1049B000100B00F0F3FD53EC1A2B00F075FF53ECD5
:1049C000192B00F043FD00F041FF811C4FF47A7079
:1049D00000F004FC6D1CEDB23746206B00E00FE0E8
:1049E00000EB8000B5EB400F82D384F808800121F2
:1049F000BDEC088B42F21070BDE8F05F00F0EEBB3A
:104A0000BDEC088BBDE8F09F00000020680000208E
:104A1000B800002048020020D80300203333534060
:104A20006666666666660A40000000000090724096
:104A300000000000000059400000000000805640C7
:104A400000B587B014216846FBF71DFD0B48C16C0B
:104A500041F00101C164C06C022100F00100059029
:104A6000402000900120CDE90201019069464FF0FD
:104A70009040FDF737F907B000BD0000001002407C
:104A800010B500F0F3FBCC2000F0DEFB442000F07A
:104A9000DBFB0120FDF714F900F0E8FBCC2000F06F
:104AA000D3FBBE2000F0D0FB00F0CAFB044600F0B0
:104AB000C7FB04EB002080B200EE100ADFED030A12
:104AC000B8EE400A20EE200A10BD00000000803D34
:104AD0002DE9F0417A4C00262DED028BE078794DDE
:104AE000012803D0287A012809D030E085F8206019
:104AF0002E762E742E72BDEC028BBDE8F081207BE9
:104B0000012802D0032809D010E06169616294EDA8
:104B10000D0A84ED0F0AA169A16207E0E169E16273
:104B200094ED0E0A84ED100A216A2163401C00F006
:104B3000030020730020FEF7F3FD207B012802D044
:104B4000032802D002E0267100E066712E72287CF4
:104B5000012701281FD1207B38B10321012806D06D
:104B600002280CD003280ED014E0A77112E020799F
:104B7000401CB0FBF1F201FB120020710AE06665F7
:104B80002665E66406E06079401CB0FBF1F201FBAB
:104B9000120060712E74287E9FED4B8B01283DD151
:104BA000207B20B1012804D003281DD035E02772D6
:104BB00033E0207920B1012807D0022810D02CE062
:104BC000606900F57A70606127E0606B01F060F861
:104BD00053EC182B00F03AFC00F006FC60631CE07C
:104BE000A069401CA06118E0607920B1012806D0BE
:104BF00002280FD011E0E069401CE0610DE0A06BDD
:104C000001F046F853EC182B00F020FC00F0ECFB10
:104C1000A06302E0206A801C20622E7695F82000B6
:104C200001283ED1207B20B1012804D003281DD0CB
:104C300035E0E77133E0207920B1012807D0022860
:104C400010D02CE06069A0F57A70606127E0606B9D
:104C500001F01EF853EC182B00F030FF00F0C4FBFD
:104C600060631CE0A069401EA06118E0607920B17B
:104C7000012806D002280FD011E0E069401EE06153
:104C80000DE0A06B01F004F853EC182B00F016FFB8
:104C900000F0AAFBA06302E0206A801E206285F873
:104CA0002060287E04287FF426AF95F82000042891
:104CB000F9D100F047FB85F820602E761BE7000055
:104CC00000000020B8060020333333333333D33FA2
:104CD00010B55E4C207B002837D15DA16048FBF702
:104CE000FBFA5F491820FEF781FD5EA15C48626C0B
:104CF000FBF7F2FA5A494820FEF778FD5DA15848C3
:104D0000A26CFBF7E9FA56496020FEF76FFDA06D33
:104D100000F0BEFF41EC100B5AA153EC102B504891
:104D2000FBF7DAFA4E497820FEF760FDE06D00F0FF
:104D3000AFFF41EC100B57A153EC102B4848FBF789
:104D4000CBFA47499020FEF751FD207B012828D15E
:104D500054A14348FBF7C0FA41491820FEF746FD2D
:104D600054A13F486269FBF7B7FA3D494820FEF776
:104D70003DFD606B00F08CFF41EC100B51A153EC3A
:104D8000102B3748FBF7A8FA35496020FEF72EFDB7
:104D900051A13348A269FBF79FFA31497820FEF709
:104DA00025FD207B022822D14FA12D48FBF794FA44
:104DB0002B491820FEF71AFD4FA12948E26CFBF79A
:104DC0008BFA27494820FEF711FD4FA12448226D98
:104DD000FBF782FA22496020FEF708FD4EA1204829
:104DE000626DFBF779FA1E497820FEF7FFFC207B05
:104DF00003282AD14CA11A48FBF76EFA184918204B
:104E0000FEF7F4FC4CA11648E269FBF765FA144979
:104E10004820FEF7EBFCA06B00F03AFF41EC100BD2
:104E200049A153EC102B0E48FBF756FA0C496020B1
:104E3000FEF7DCFC49A10A48226AFBF74DFABDE8FF
:104E4000104007497820FEF7D1BC10BD00000020BB
:104E500020202020202020204441544120200000F8
:104E6000840000202020202020463D256420202092
:104E7000200000002020202020443D2564252520FE
:104E8000202020002020202020413D252E3166209A
:104E9000202020002020202020543D252E31662077
:104EA000202020002020202020202020504152417E
:104EB00020200000202020202046483D256420207E
:104EC00020200000202020202041483D252E316652
:104ED0002020202000000000202020202054483DD9
:104EE00025642020202000002020202020202020B9
:104EF00052454344202000002020202020464E3DE3
:104F000025642020202000002020202020414E3D2C
:104F100025642020202000002020202020544E3D09
:104F20002564202020200000202020202020202078
:104F30004653455420200000202020202046503D8C
:104F40002564202020200000202020202056503DD5
:104F5000252E316620202020000000002020202067
:104F60002054543D2564202020200000F0B4464900
:104F70004748464A8F796423012400250688012F7B
:104F800018D026F002060680CE79012E27D006889A
:104F900026F0040606800E7A012E36D0028822F012
:104FA000080202804B6A4A6C9A42028843D942F056
:104FB000100242E01768B7FBF3FC03FB1C77322FAB
:104FC00001D98C7300E08D734F7B2FB98F7B012F3C
:104FD00002D186F0020606808E7B4E73D4E71668F7
:104FE000B6FBF3F703FB1766322E01D90C7400E011
:104FF0000D74CE7B36B90E7C012E03D1068886F067
:10500000040606800E7CCE73C5E71268B2FBF3F689
:1050100003FB1622322A01D98C7400E08D744A7C7D
:1050200032B98A7C012A03D1028882F00802028008
:105030008A7C4A74B6E722F01002028091ED160ACB
:10504000D1ED0F0A92B2B4EEE00AF1EE10FA02DDF1
:1050500042F0200201E022F02002028091ED0A0AD3
:10506000D1ED170A91B2B8EE400AF4EEC00AF1EEA3
:1050700010FA02DD41F0400101E021F04001018021
:10508000F0BC00F007B8000000000020680000201D
:105090007800002070B50E4D4FF6FF7401222146B6
:1050A0002846FCF748FF0B480022008804EAC0119C
:1050B0002846FCF740FF084C012204212046FCF75B
:1050C0003AFF2046BDE8704000220421FCF733BFC0
:1050D0000008004878000020000C0048FCF73EFF64
:1050E000FEF7FAFFFEF72EFDFEF7EEFCFEF7C2FD1F
:1050F000FEF714FEFEF7A2FDFEF7BAFB0020FEF756
:105100000FFB0020FEF70EFC4FF6FF70FEF71EFCB3
:105110001A4900200880FFF7BDFF1948FDF772FD0E
:10512000FFF78EFC1748FDF76DFD04211548FDF7CC
:1051300085FF00211348FDF781FF04211148FDF789
:10514000FBFE00210F48FDF7F7FE0F48FDF75AFD63
:1051500004210D48FEF7C8F9FFF7F2FAFFF7F0FA5D
:10516000FFF7B6FDFFF7B4FCFFF720FB00F0A4F853
:10517000FFF7FCFEFFF76CFBF0E700007800002073
:105180006C060020D40500202006002000B585B064
:1051900014216846FBF777F9402000900020019029
:1051A000029069464FF09040FCF79CFD05B000BDB1
:1051B00000B585B014216846FBF765F940200090E2
:1051C00001200190022003900020029069464FF0D8
:1051D0009040FCF787FD05B000BD0000054AB2FB1A
:1051E000F0F20548521E03689A620068491E816306
:1051F0007047000000350C002006002070B5044602
:10520000FFF7D6FF4FF09045002240212846FCF7DB
:1052100092FE0F20401EFDD20CB1FFF7B7FF8E208B
:10522000401EFDD240212846FCF780FE00B9002434
:1052300040F2CE20401EFDD2FFF7A8FF204670BDF1
:10524000FF2000F001B8000070B504465FF00805CB
:1052500004F00100FFF7D2FF640808B144F08004B5
:105260006D1E15F0FF05F3D1204670BD70B5FFF738
:105270009FFF4FF09044002240212046FCF75BFE48
:1052800041F6FF01491EFDD2FFF780FF40F21E41AB
:10529000491EFDD2402125462046FCF747FE044624
:1052A00041F6DE10401EFDD240212846FCF73EFEAE
:1052B00000B90124204670BD214810B5446A436CF2
:1052C00001210022A34201D9417200E04272037819
:1052D0002BB9437A012B02D1C36C5B1CC364437AA4
:1052E000037090ED160AD0ED0F0AB4EEE00AF1EE6D
:1052F00010FA01DD817200E0827243782BB9837A63
:10530000012B02D1036D5B1C0365837A437090ED22
:105310000A0AD0ED170AB8EE400AF4EEC00AF1EE20
:1053200010FA01DDC17200E0C272817829B9C17A38
:10533000012902D1416D491C4165C17A817010BDBE
:10534000000000201A4810B5002101704172417020
:1053500081728170C1720173C1700171417181717B
:10536000C171017241648164C164016541651E239C
:105370004FF4FA620121C0E9052306244262C0E924
:1053800007140463C0E90A319FED0A0ADFED0A0A37
:1053900080ED160A80ED170AB0EE080A80ED0D0ABE
:1053A000C0ED0E0A80ED0F0AC0ED100A10BD00001E
:1053B00000000020000000006666663F10B500296E
:1053C0000AD00878002807D005487844FBF73AFC53
:1053D000002801D0002010BD0248784410BD000014
:1053E000561C00004E1C000021F00042A2F1605249
:1053F000B2F5801F01F0004328BFD2F17F6C0BD9BA
:105400005FEA001C43EAC20242EB507018BF7047CB
:1054100028BF20F001007047B2F5801FBCBF1846BE
:1054200070474FEA410C1CF5001F02D2084600F0FD
:10543000A5BC70B500F0E2FA00000089FFF7F6BFE6
:105440004FF00040A0F580007047000010B591EAD1
:10545000030F48BF83F0004300F13883841A71EBD7
:10546000030C05D2121943EB0C03001B61EB0C017A
:10547000DFF824E14FEA1154A4EB135C1EEA430F5A
:1054800018BF9EEA445F73D023EA0E03DCF1200EBE
:1054900021EA045143F4801332D322FA0CFE10EBBC
:1054A0000E0023FA0CFE41EB0E01CCF1200E03FAA4
:1054B0000EFE10EB0E0051F10001B1F5801FCCF192
:1054C000200E32D201EB045112FA0EF2BDE8104068
:1054D00058BF7047401C38BF5FEA420218BF704790
:1054E000002814BF20F0010041F100014FEA410300
:1054F00013F5001F38BF7047A1F1C04100F0CCBACE
:10550000012A43EB0302ACF1200CDCF11F0E32BF89
:105510004FF0000E23FA0CF310EB030041EB0451A3
:10552000B4EB115FD0D0A1EB045101F58011490813
:105530005FEA300001EB04510ED350F1000038BF98
:1055400012FA0EFE08D1BDE81040C9E7401C38BF72
:105550005FEA4202CAD1C3E7BDE810404FEA410307
:1055600013F5001F38BF7047A1F1C04100F094BA95
:105570009EEA445F08D011EA5E0FBDE8104004BF08
:1055800001F0004100207047BDE8104070B500F008
:1055900035FA00BF64FBBE3E0000E0FF2DE9C041CC
:1055A00030B4DFF8A0C23CEA111418BF3CEA13146F
:1055B00000F0EC8081EA03051CEA111444EAD5747A
:1055C00018BF1CEA131500F0C780A4EB05044FF0C8
:1055D000004545EAC12145EAC32341EA505143EA67
:1055E000525304F17F74994204F500344FEAC0200D
:1055F0004FEAC22208BF904200F09C804FEA136538
:105600000FF24016765D4FEA134506FB05F7C7F12A
:10561000807706FB07F74FEAD737A7FB0368764288
:10562000C8F58038A7FB06CE38BFA8F1010807FBF4
:1056300008E64FF0000EA6FB028CE6FB03CEDCF181
:10564000000CCEF1004E38BFAEF1010EA6FB0C5897
:105650004FF000074FF00005E6FB0E87A1FB08C6E0
:10566000A0FB07CE16EB0E0645F10005E1FB076532
:1056700015F1E04E7EBFA4F580345FEA46066D4129
:1056800016F1800745F100054FEA17274FEA066635
:1056900047EA0567A6F1DE46B6F1805F4FEA1525B9
:1056A0001FD9384624F0010C05EBC471BCF1FE6F24
:1056B00001EB0C1102D8F0BCBDE8008124425CBFB4
:1056C00001F5801E9EEAC47F02D4F0BCBDE80081D3
:1056D000244238D4F0BCA1F1C041BDE8004100F043
:1056E000DBB94FEAD22242EA43524FEAD323A7FB67
:1056F00002864FEAD02040EA415007FB03661EEACB
:105700000E0F4FEAD12105FB026658BFA6EB0056EB
:10571000B6EB00564FEA520E4EEAC37E18EB0E0E61
:1057200056EB530EBDD518EB02085E417F1C55F1B8
:105730000005B6E74FF480154FF000074FF0000664
:105740004FF00008ADE7F0BC4FF0000001F1C041A0
:1057500001F00041BDE8008111EA0C1F0CEA1315AD
:1057600000D00CE013EA0C1F00F025804FF0000081
:10577000F0BC81EA030101F00041BDE80081F0BC0A
:10578000BDE8004181EA030100F086B9F0BCBDE844
:10579000004170B500F032F9097EFC3E00F007B818
:1057A00081EA03014FF0000001F00041704781EAF7
:1057B000030100F071B9F0BCBDE800414FF00000FA
:1057C00021497047FFFDFBF9F7F5F4F2F0EEEDEB40
:1057D000E9E8E6E4E3E1E0DEDDDBDAD8D7D5D4D3EF
:1057E000D1D0CFCDCCCBCAC8C7C6C5C4C2C1C0BF3B
:1057F000BEBDBCBBBAB9B8B7B6B5B4B3B2B1B0AF41
:10580000AEADACABAAA9A8A8A7A6A5A4A3A3A2A124
:10581000A09F9F9E9D9C9C9B9A99999897979695DF
:1058200095949393929191908F8F8E8E8D8C8C8B7B
:105830008B8A898988888787868585848483838203
:10584000828181800000FF070000F87F4FEA11533A
:10585000A3F58063D3F11E03A8BFD3F1200C08DBAE
:105860004FF0004242EAC12252EA505232FA03F0AB
:10587000704709420BD4102BC4BF0020704703F5BA
:10588000787CBCF1FF3F05D04FF0FF3070474FF000
:105890000000704770B500F0B1F800BF4992248055
:1058A00000207047F0E70000DFF848C170B51CEA3F
:1058B000111E1EBF1CEA13159EEA0C0F95EA0C0F71
:1058C00000F06F8081EA030423EA4C134EEAD47E91
:1058D00021EA4C1141F4801143F48013AE44A1FB42
:1058E000024CA0FB0365AEF17F7E361955EB0C052B
:1058F000A1FB034C4CF10003A0FB021C16EB0C06B1
:10590000654153F10003094218BF46F0010613F444
:10591000007F0BD14FEA03314FEA0530340341EAEF
:10592000155140EA16506FF003020AE04FEAC32116
:105930004FEAC520F40241EA555140EA56506FF053
:10594000020202EB2E4201EB025585EACE710AD02B
:105950005FEA440C18BF24F0004450F1000041F10C
:10596000000120EAD47040F2FE7C624500D270BD96
:10597000A84214BF4FF080444FF04044002E08BFAF
:105980000024BEF1806FA8BFA1F1C041BDE8704006
:1059900080F282804FF0000001F1C04101F000412F
:1059A00070479EEA0C0F0CEA131518BF95EA0C0F0E
:1059B00006D04FF0000081EA030E0EF0004170BDEA
:1059C00000F01CF88900013E00F007B800F009B8AB
:1059D0004FEA430C5FEA5C5C08D081EA030100F007
:1059E0005BB84FEA410C5FEA5C5CF6D14FF0000017
:1059F000014970470000FF070000F87F0EF1020E1A
:105A00002EF0030E5EF8046B364205D4012A43EBF8
:105A1000030515F5001F12D8012841EB010C1CF5F8
:105A2000001F0CD80ED14FEAD17C15F5001F0CEBEE
:105A30004C0C0CF1020C08BF4CEBD37C04E04FF093
:105A4000080C01E04FEAD37C0CEB4C0526FA05F676
:105A500006F00706B6F1040C06D20EEB860CBDE884
:105A600070404CF0010C6047DFE80CF0090B0202BB
:105A70004FF000414FF00000A1F5002170BD194624
:105A80001046012851EB010418BFD4F5001484BF5F
:105A9000002001F0004170BD0808A0F500114FEA98
:105AA0003101704791EA030F10B581F000413FF5D5
:105AB000D5AC83F0004300F009B8000010B591EABE
:105AC000030F48BF83F000433FF5C8AC841A71EB65
:105AD000030C07D212198CF0004C43EB0C03001B93
