:020000040800F2
:10000000E8080020990200085B310008A5290008D3
:1000100059310008B7140008FF360008000000003E
:100020000000000000000000000000007334000821
:10003000B9140008000000005D31000875340008A4
:10004000B3020008B3020008B3020008B3020008BC
:10005000B3020008B3020008B3020008B3020008AC
:10006000B3020008B3020008B3020008B30200089C
:10007000B3020008B3020008B3020008B30200088C
:10008000B302000800000000B3020008B302000839
:10009000B3020008B3020008B3020008B30200086C
:1000A000B3020008B3020008F1340008B3020008EC
:1000B000FD34000809350008B3020008B302000847
:1000C000B3020008B3020008B3020008B30200083C
:1000D000B3020008B3020008B3020008B30200082C
:1000E000B3020008B3020008B3020008B30200081C
:1000F000B3020008B3020008B302000800000000C9
:1001000000000000B302000800000000B302000875
:10011000B302000800000000B3020008B3020008A8
:10012000B3020008B3020008B3020008B3020008DB
:10013000B30200080000000000000000B302000845
:10014000B3020008B3020008000000000000000035
:10015000000000000000000000000000000000009F
:10016000000000000000000000000000B3020008D2
:10017000B3020008000000000000000000000000C2
:1001800000000000B30200080000000000000000B2
:10019000000000000000000000000000000000005F
:1001A0000000000000000000B3020008B3020008D5
:1001B000B3020008B3020008B30200080000000008
:1001C00000000000B3020008000000000000000072
:1001D000B3020008B302000800F002F800F04CF887
:1001E0000AA090E8000C82448344AAF10107DA4592
:1001F00001D100F041F8AFF2090EBAE80F0013F098
:10020000010F18BFFB1A43F001031847C04E00004E
:10021000E04E0000103A24BF78C878C1FAD85207DF
:1002200024BF30C830C144BF04680C607047000070
:100230000023002400250026103A28BF78C1FBD8EF
:10024000520728BF30C148BF0B607047662903F0D2
:100250000186642900F05480002070471FB503F028
:10026000F4FD00F0EBFB04000020002103F060FD32
:10027000E0601FBD10B510BD00F0E0FC1146FFF7B7
:10028000EDFF03F0FBFC00F0FEFC03B4FFF7F2FF10
:1002900003BC00F041FD00000948804709480047C1
:1002A000FEE7FEE7FEE7FEE7FEE7FEE7FEE7FEE726
:1002B000FEE7FEE704480549054A064B7047000083
:1002C000E1340008D9010008E8020020E808002015
:1002D000E8040020E80400200FB41CB5074B06AA70
:1002E0007B4469460090059800F06DFB002069464C
:1002F00000F07CFB1CBC5DF814FB0000090700004B
:100300002DE9F0410646002410687529314616A5EE
:1003100010D0AFF30080002802DA404213A507E0B6
:1003200031688A0701D512A502E0490704D511A555
:10033000012401E0AFF3008000210A2206F1240726
:1003400009E0B0FBF2FCB0FBF2F302FB1C00303022
:1003500078541846491C0028F3D123462A463046D3
:10036000BDE8F04100F0C1B8000000002D00000021
:100370002B000000200000002DE9F0474FF0000A9C
:1003800089460446C0F820A02046E1688847002836
:1003900076D0252806D0D4E901219047206A401C58
:1003A0002062F1E7E168204600258847C4F81CA0D8
:1003B00006460027C4F818A02A2E09D0304603F0BC
:1003C000C7F938B304EB8708303EC8F8186019E065
:1003D00059F8041B204604EB87029161E1688847C5
:1003E000012F064618D1E069002820DA25F0200503
:1003F0001DE0D8F8180000EB800006EB4000303814
:10040000C8F818002046E1688847064603F0A0F9BE
:100410000028EED1012F0AD02E2E08D12046E16807
:1004200088477F1C0646022F45F02005C4DBA069E3
:10043000002803DA404245F00105A061E80701D039
:1004400025F01005B6B1A6F14100192802D82036D2
:1004500045F400654A463146204625604D46FFF783
:10046000F5FE58B1012806D0ED1D25F0070000F17A
:10047000080989E704E005F1040985E730468AE7C1
:10048000206ABDE8F08702F0FF0343EA032242EA54
:10049000024200F0B2BA4FF0000200B51346944693
:1004A0009646203922BFA0E80C50A0E80C50B1F1CC
:1004B0002001BFF4F7AF090728BFA0E80C5048BFE0
:1004C0000CC05DF804EB890028BF40F8042B08BF7E
:1004D000704748BF20F8022B11F0804F18BF00F87A
:1004E000012B70477047704770472DE9F0470D4664
:1004F00099469246044600F124080168880604D50E
:10050000E06921F01001216000E00120A84201DD36
:10051000471B00E00027A1697A1902EB0900081ABD
:10052000A0612078C00602D42046AFF300800026E8
:1005300008E0D4E901211AF806009047206A401C1F
:10054000761C20624E45F4DB2078C0060AD5204692
:10055000AFF3008006E0D4E9012130209047206A03
:10056000401C2062381EA7F10107F4DC07E0D4E943
:10057000012118F805009047206A401C2062281EBF
:10058000A5F10105F3DC2046AFF3008020780006DA
:1005900002D50220BDE8F0870120FBE770472DE976
:1005A000FF4F0C461E464FF0FF378BB0D2E90001DB
:1005B000DDF860800A908A46C1F30A5505B93D46C8
:1005C000002108464FF00000BAF1000F00F440008F
:1005D00005DA00EB80004FF4400101EA50004FEAD9
:1005E0009059B9F1010F00DDB9460A9850EA4A0066
:1005F0000ED044F61050A5F2FF3545432F14B8F144
:10060000000F1ED07542291E1EDDC9F100021CE03C
:10061000B8F1010F4FF0000001D0302103E0F243A8
:1006200005E02154401CB042FBDB30460022002193
:1006300021540B99C1F80880C1E900200FB0BDE832
:10064000F08FBD1B6D1CDEE74A4600DA694206A842
:1006500000F07EFA06AB93E8070003AB83E80700DF
:1006600050460A9900F05FFB8DE80700A0F50050A6
:100670001F3800900398002D0ADD42F21F014A4600
:100680000844002303A90390684600F0C8FD09E070
:10069000A0F500504A461F38002303A9039068467E
:1006A00000F0D2FD8DE807000004000C03D04FF0ED
:1006B000FF30410800E01046B8F1000F03D00022DF
:1006C000009215461EE0751E05D400F0BBF93032CD
:1006D00062556D1EF9D5B3460122084302D00022AF
:1006E0007F1C04E02078302801D100227F1E002AE0
:1006F000099784D01DE0112D07DA00F0A3F93032FC
:1007000062556D1C50EA0102F5D1084302D00098F1
:10071000C8B10EE00021681E05E0235C625C6354F2
:100720002254401E491C8142F7DBAB46A81B401EE9
:100730000990002004F80B000B98099AC0F8088073
:10074000C0E9002B7AE711264FF0000857E72DE9A2
:10075000F04F88460446D21D22F0070191B0D1E93E
:100760000001CDE90A0102F0CBFF02460B98C00F51
:1007700001D02D2007E02068810701D52B2002E061
:10078000202101EAC000032A099001D0072A05DBD5
:1007900003464146204600F09BF90BE12078800695
:1007A00001D5E06900E00620B8F1650F814606D06A
:1007B000B8F1660F18D0B8F1670F70D131E00020A2
:1007C000B9F1110F009001DB112301E009F10103E0
:1007D0000AAA01A90CA8FFF7E2FEDDE90C700026C9
:1007E00009F10105834647E001204B4600904FF098
:1007F00000470AAA01A90CA8FFF7D1FEDDE90DB058
:100800000C995D46002610B909F101000D18B9EBED
:10081000050003D4C0F1FF3609F10105A5EB09007D
:100820002BE0B9F1010F01DA4FF001090020B9F115
:10083000110F0090484601DD112300E003460AAA8B
:1008400001A90CA8FFF7ABFEDDE90C704D460026B0
:100850008346207800070AD4AB4500DA5D4601A83C
:10086000012D04DD411911F8011C302907D04F4535
:1008700002DA17F1040F04DA012082460FE06D1E40
:10088000EEE7002F02DCED1B3E4403E0781CA8429B
:1008900000DD7D1CB81B00F1010A4FF000472078F5
:1008A000000703D4AA4501DB4FF0FF3A0021B7F15E
:1008B000004F0DF143088DF8431024D002202B2364
:1008C000002F01DA7F422D230A21021EA0F1010030
:1008D00000DC5FB197FBF1FC97FBF1F201FB1C7CA4
:1008E00017460CF1300C08F801CDEEE7A8F1010035
:1008F00003702188090501D5452100E06521A0F19B
:10090000010800F8011C09980FA9A1EB0807FF1DB9
:1009100000B10120411901EBEA70A1693844081ABD
:10092000401EA0612078C00602D42046AFF30080AC
:10093000099828B1D4E901219047206A401C20621F
:100940002078C00622D52046AFF300801EE0002E9E
:1009500004DBB34502DD01A8805D00E03020D4E96E
:1009600001219047206A401C2062761CAAF10100F8
:100970005FEA000A0AD100F061F8C0680168405CD3
:10098000D4E901219047206A401C2062281EA5F16D
:100990000105DCDC07E0D4E9012118F8010B9047E0
:1009A000206A401C2062381EA7F10107F3DC2046B4
:1009B000AFF30080032011B041E6000001694A1C3A
:1009C00002610878704700B58FB0CDE90131002190
:1009D000059105497944CDE9031011466846FFF7B2
:1009E000CBFC0FB000BD0000E5FFFFFF0A6802F876
:1009F000010B0A6070474FF000020429C0F012801A
:100A000010F0030C3FF449ADCCF1040CBCF1020F23
:100A100018BF00F8012BA8BF20F8022BA1EB0C0196
:100A2000FFF73BBD5FEAC17C24BF00F8012B00F853
:100A3000012B48BF00F8012B7047000000487047A9
:100A4000A802002030B5B0F10A024FEA900E71F111
:100A500000034EEA817EB0EB0E0061EB91014FEA9C
:100A6000101E4EEA017E10EB0E0041EB11114FEA11
:100A7000102E4EEA016E10EB0E0041EB11214FEAF1
:100A8000104E4EEA014E10EB0E0041EB11414018A2
:100A900041F100014FEAD00040EA41704FEAD10134
:100AA00010EB80054FEA810444EA907444EB0104A2
:100AB0006D1944EB0404521BA3414FF0000348BFDF
:100AC0000A3200D530BD401C41F1000130BD0000AC
:100AD0002DE9F0411F46044603260168072A01F468
:100AE000006004DB08B116A505E016A503E008B117
:100AF00015A500E015A521F010002060A069C01E1A
:100B0000A0610FB1401EA0612046AFF300804FB13D
:100B1000D4E9012138469047206A401C2062C01C5D
:100B2000206206E0206AFAE7D4E9012115F8010BFA
:100B30009047761EF8D22046AFF30080BDE8F081E2
:100B40004E414E006E616E00494E4600696E660071
:100B50002DE9F047814616468AB0354878440DC8DD
:100B60008DE80D0032487844801C03AC0DC884E841
:100B70000D0041F69B300844372190FBF1F290FBC9
:100B8000F1F5A5F1800501FB12041B3C02D564427E
:100B9000012000E00020DFF898A080460027FA44FA
:100BA000AAF1BE0A0EE0E0070AD03246684607EB1B
:100BB000470101230AEB810100F046FB8DE80700A5
:100BC00064107F1C002CEED1194F7F44AE3F19E01A
:100BD000E80715D007EB04100DF1180A90E80E0095
:100BE0008AE80E00C068F04201D198190890324698
:100BF000012306A903A800F027FB03AB83E8070045
:100C00006D10641C002DE3D14FF00103324669469C
:100C1000B8F1000F03A802D000F001FB01E000F0E2
:100C200013FBC9E90001C9F808200AB0BDE8F08744
:100C30005445000000487047880200207546FFF7C1
:100C4000F9FFAE4605006946534620F00700854689
:100C500018B020B5FFF72EFBBDE820404FF000068E
:100C60004FF000074FF000084FF0000B21F0070194
:100C7000AC46ACE8C009ACE8C009ACE8C009ACE8D7
:100C8000C0098D46704710B50446AFF3008020467A
:100C9000BDE81040FFF7F9BA4FF0013C50F8042BC3
:100CA00051F8043B9A4221D1A2EB0C03934313EA7F
:100CB000CC1317D150F8042B51F8043B9A4215D1AC
:100CC000A2EB0C03934313EACC130BD150F8042B83
:100CD00051F8043B9A4209D1A2EB0C03934313EA67
:100CE000CC13DBD04FF00000704700BFD01A01BA20
:100CF000B1FA81F101F0180122FA01F0CB40C1F103
:100D00002001DBB2C0B2C01A2CFA01F3D11A914310
:100D100011EAC311E6D1704701491820ABBEFEE7C6
:100D20002600020070475FEA400C08BF91F0000FF8
:100D30004FEA8C234FEAC12243EA51514FEA1C503B
:100D400018BF00F5F0404FEA300018BF41F00041F5
:100D50005FEA6C5C00F02980BCF1FF3F08BF40F007
:100D600080407047130C06BF12044FF0100C4FF078
:100D7000000C130E04BF12020CF1080C130F04BF79
:100D800012010CF1040C930F04BF92000CF1020C41
:100D9000D30F04BF52000CF1010C11464FF00002BA
:100DA000A0F11F00A0EB0C00704711F0004F08BF2E
:100DB000704731F000413FF4D5AF0B0C06BF09047A
:100DC0004FF0100C4FF0000C0B0E04BF09020CF199
:100DD000080C0B0F04BF09010CF1040C8B0F04BFAE
:100DE00089000CF1020CCB0F04BF49000CF1010C7F
:100DF000CCF12003A0EB0C0022FA03F302FA0CF270
:100E000041EA030100F10100704720F07F4C80EAC5
:100E1000030023F07F47ACEB070303F57C5300F09E
:100E2000004003F1FF032DE980494FEA154B09B457
:100E30004FEA144325EA0B4E24EA03480FF2042636
:100E400006EB132749083E785FEA320203FB066788
:100E5000C7F5000707FB06F64FEA54374FEAD646B8
:100E600006F1020607FB066CCCF1005C4FEA1C475A
:100E70002CEA074C07FB06F40CFB06F504EB1546C1
:100E80004FEA961634BF00204FF000404FEAD137AA
:100E900006FB07FC4FEA1C4C0CFB0BF7D21B03FBB9
:100EA0000CF761EB07010CFB0EF7B0EB074072EBA0
:100EB00017420CFB08F734BFA2EB0742B2EB074224
:100EC00061EB17414FEA0C444FEA910706FB07FC20
:100ED0004FEA1C4C0CFB0BF7B0EBC74072EB5732E0
:100EE00003FB0CF734BFA2EBC742B2EBC74261EB86
:100EF00057310CFB0EF7B0EBC70072EB57720CFBCF
:100F000008F734BFA2EBC702B2EBC70261EB57711F
:100F1000039F4FEA816141EA921104EBCC044FEA4E
:100F2000D1374FEA826206FB07FC42EA90124FEA91
:100F300080604FEA1C4C0CFB0BF7D21B03FB0CF739
:100F400061EB07010CFB0EF7B0EB074072EB1742A9
:100F50000CFB08F734BFA2EB0742B2EB074261EB90
:100F600017414FEA8C554FEA910704EB9C2406FB8E
:100F700007FC4FEA1C4C0CFB0BF7B0EBC74072EBC5
:100F8000573203FB0CF734BFA2EBC742B2EBC742A8
:100F900061EB57310CFB0EF7B0EBC70072EB5772E9
:100FA0000CFB08F734BFA2EBC702B2EBC70261EB40
:100FB000577115EB4C254FEA816141EA92114FEAD6
:100FC00082624FEAD13742EA901206FB07FC44F1F5
:100FD00000044FEA80604FEA1C4C0CFB0BF7D21B5D
:100FE00003FB0CF761EB07010CFB0EF7B0EB0740BE
:100FF00072EB17420CFB08F734BFA2EB0742B2EBCF
:10100000074261EB174115EB1C154FEA813141EAAC
:1010100092414FEA823242EA90424FEA80304FEAF0
:101020000C7644F1000448EA03434EEA0B484FF0C3
:10103000000EB2EB080C71EB030724BF6246394681
:101040004EEB0E0E4FF0000B0018524149414BEB96
:101050000B0BB2EB080C71EB03077BF1000B24BF09
:10106000624639464EEB0E0E4FF0000B001852410F
:1010700049414BEB0B0BB2EB080C71EB03077BF117
:10108000000B24BF624639464EEB0E0E51EA0207B2
:1010900018BF46F0010616EB0E7655F1000254F12A
:1010A000000103D5BDE88901BDE80088BDE88901DC
:1010B000BDE80048B619524141EB0101A3F101031B
:1010C000704780807F7E7D7C7B7A797877767675B5
:1010D0007473727171706F6E6E6D6C6C6B6A6A692D
:1010E0006868676666656464636362616160605FC7
:1010F0005F5E5E5D5D5C5C5B5B5A5A595958585740
:1011000057565655555554545353525252515150A7
:1011100050504F4F4F4E4E4D4D4D4C4C4C4B4B4BFA
:101120004A4A4A4949494848484747474746464640
:10113000454545444444444343434342424242417B
:101140004141002B9C4630D477002BD01CB54FEA90
:10115000370703B44FF010004FF01001BAF1000F41
:1011600006D0BCF1000FDCBF40F0080040F00801E1
:101170004FF000000FBCBDE810400BF1010BBBF1BC
:10118000010F08BF5FEA170722BF12F1010211F138
:1011900001014FF0004143F1000300F0004043EA39
:1011A00000007047F9D35708D0E746EA064613F126
:1011B000400F4FEA16461FDD13F1200FDFBF164325
:1011C0000A46002120335B42BED0C3F1200746EA25
:1011D000064602FA07F74FEA164646EA0706C3F143
:1011E000200722FA03F201FA07F721FA03F14FF080
:1011F000000342EA0702A7E746EA020646EA064675
:101200004FEA164646EA0106BCBF46EA0646360CD9
:101210004FF000034FF000024FF0000194E72DE97A
:10122000804C9A46934670B491E8380007C831EA7A
:10123000400C48BF34EA430C03D5FFF7E6FDFFF747
:1012400080FFF0BCBDE8008C2DE9804C9A469346A7
:1012500070B491E8380007C810F0804F08BF13F051
:10126000804F03D100F005F8FFF76BFFF0BCBDE83D
:10127000008C20F07F4780EA030023F07F4C07EBCF
:101280000C03A3F57C5300F00040A3F1FE0392F0A1
:10129000000F00F0B38095F0000F00F077802DE98B
:1012A00001494FEA11404FEA144621EA004800FB89
:1012B00006FC24EA064708FB06F607FB08F800FBD5
:1012C00007F718EB06484CEB164C4FEA124B18EB9D
:1012D00007484FEA15464CEB174022EA0B4E0BFB32
:1012E00006FC25EA06470EFB06F607FB0EFE0BFB87
:1012F00007F71EEB064E4CEB164C4FF000061EEBAC
:10130000074E4CEB174B18EB0B0840F1000018EBA5
:101310000E0B58EB000840F100008F1A4FF000014F
:101320003CBFC943661B14BFB5EB040C00213CBF96
:10133000C943F61B4FEA17444EEA8E0E27EA0445CE
:101340004FEA1C4704FB07622CEA074C05FB07F732
:101350000CFB05F604FB0CFC16EB074642EB1742B0
:1013600016EB0C4642EB1C421BEB060658EB020246
:10137000414146EA9E0601D5BDE80189B6195241B0
:1013800041EB0101A3F10103BDE801894FEA1445D6
:101390004FEA114724EA054621EA074C05FB07F40A
:1013A00006FB07F70CFB06F105FB0CFC11EB0741F4
:1013B00044EB17444FEA124711EB0C4144EB1C4439
:1013C00022EA074C05FB07F206FB07F70CFB06F6C3
:1013D00005FB0CFC16EB074642EB174216EB0C46DE
:1013E00042EB1C456A1854F1000148BF7047B6191A
:1013F000524141EB0101A3F10103704795F0000F49
:1014000037D04FEA11424FEA144721EA024624EA54
:10141000074C02FB07F106FB07F70CFB06F402FB87
:101420000CFC14EB074441EB17414FEA154714EB52
:101430000C4441EB1C4125EA074C02FB07F506FB77
:1014400007F70CFB06F602FB0CFC16EB074645EB18
:10145000174516EB0C4645EB1C42121951F10001E1
:1014600048BF7047B619524141EB0101A3F1010396
:1014700070474FEA14454FEA114724EA054621EA2E
:10148000074C05FB07F106FB07F70CFB06F24FF0D4
:10149000000605FB0CFC12EB074241EB174112EB77
:1014A0000C4251EB1C4148BF7047921841EB0101BF
:1014B000A3F101037047FEE77047002240F6B833FE
:1014C00006E00021491C89B29942FBD3521C92B21A
:1014D0008242F6D3704772B6FEE7000070B504464C
:1014E00000F03CF90546601C02D004484068044402
:1014F00000F034F9401BA042FAD370BD3800002040
:101500002DE9F04FDFF82092002301260324A9F1F2
:10151000040B85B00F2709F1040AABF1040EFAE0C1
:1015200006FA03F52A407CD091F804C00CF0030CB5
:10153000BCF1010F02D0BCF1020F26D1D0F808C0D7
:10154000CDF800C04FEA430C04FA0CF8CDF810C0F7
:10155000DDF800C02CEA080CCDF800C0D1F80C80F2
:10156000DDF810C008FA0CF8DDF800C048EA0C08F5
:10157000C0F80880D0F804C02CEA050C0D79C5F33A
:1015800000159D4045EA0C0545600D79ED43AD071A
:101590000ED0C5684FEA430804FA08FC25EA0C059A
:1015A000D1F808C00CFA08FC4CEA050CC0F80CC0D5
:1015B0000D7905F00305022D16D1DD0800EB850C31
:1015C000CDF808C0DCF820805D074FEAD56C07FA3B
:1015D0000CF528EA05080D6905FA0CF5DDF808C0D8
:1015E00045EA0805CCF8205005684FEA430CCDF8D1
:1015F00008C004FA0CFC25EA0C0591F804C00CF0B4
:101600000308DDF808C008FA0CF848EA0508C0F835
:1016100000804D6815F4403F7CD0444DD5F860C043
:1016200000E077E04CF0010CC5F860C02D6E23F0AF
:10163000030C05F0010500953D4D65440295AD682C
:101640004FEA837C4FEA1C7807FA08FC25EA0C0570
:10165000B0F1904F06D0DFF8DCC0604505D14FF007
:10166000010C20E04FF0000C1DE0DFF8CCC060451D
:1016700002D14FF0020C16E0DFF8C0C0604502D185
:101680004FF0030C0FE0DFF8B8C0604502D14FF017
:10169000040C08E0DFF8ACC0604502D14FF0050C47
:1016A00001E04FF0060C0CFA08FC4CEA050C029D18
:1016B000C5F808C0D9F80050CC46D1F8048095434D
:1016C0005FEAC82800D51543CCF80050DAF800507E
:1016D000D446D1F8048095435FEA882800D51543A5
:1016E000CCF80050DBF80050DC46D1F8048095437C
:1016F0005FEA883800D51543CCF80050DEF800507A
:10170000F446D1F8048095435FEAC83800D5154304
:10171000CCF800505B1C0A6832FA03F57FF400AF86
:1017200005B0BDE8F08F0000080401400010024041
:10173000000001400004004800080048000C004878
:1017400000100048001400480069084000D0012043
:1017500070470AB1816170478162704701488068B3
:101760007047000038000020024881684268114438
:10177000816070473800002010B50024032000F07D
:1017800073F80F2000F008F808B1012401E000F020
:1017900025F8204610BD000070B50E4E0546002409
:1017A000706898B14FF47A71B1FBF0F00A4909689A
:1017B000B1FBF0F000F0F8FB40B9102D06D200228A
:1017C0002946501E00F030F8356000E00124204624
:1017D00070BD000038000020440000200A4882B09C
:1017E000016E41F001010166016E01F001010091FD
:1017F000816D41F080518165806D00F080500090D6
:1018000002B000F0A1B8000000100240002809DB7F
:1018100000F01F02012191404009800000F1E0200A
:10182000C0F8001170470000F0B40E4B1B680C4666
:10183000C3F30223C3F10705042D00D90425191DA4
:10184000072901D2002300E0DB1E012606FA05F17C
:10185000491E214099409E40761E16403143F0BCFF
:1018600001F066BF0CED00E0064900F007020868D1
:101870004FF6FF03184040EA0220034A1043086075
:10188000704700000CED00E00000FA052B492C4BDE
:101890000A6832214A432B4940B1B0F5007F0868FD
:1018A00029D020F4C06040F480602CE00868C0F3C8
:1018B0004120022804D051F8800F20F4807022E0EB
:1018C000D1F8800020F48070C1F88000086820F40E
:1018D000C06040F400700860B2FBF3F0401C00E010
:1018E000401E4A69520501D50028F9D148694005D2
:1018F0000AD503207047C0F34120022806D051F8D2
:10190000800F40F48070086000207047D1F880009C
:1019100040F48070C1F88000086820F4C06040F492
:1019200000700860B2FBF3F0401C00E0401E4A6902
:101930005205DBD50028F9D1D8E70000440000208B
:1019400040420F00007000400248816841F480412D
:1019500081607047007000402DE9F0470E46050099
:101960004FF0000725D0DFF8AC81D8F8000000F078
:101970000F00B0420CD2D8F8001021F00F01314313
:10198000C8F80010D8F8000000F00F00B04210D1E5
:101990002968614CC80741F2883A5AD06868DFF874
:1019A0007C91032808D0022820682DD0400500280B
:1019B0002CDB0120BDE8F08720688001F9D5E068C4
:1019C00000F00302E068C0F30310401C032A19D0A2
:1019D000534A00BFB2FBF0F0E268C2F30622504364
:1019E000E268C2F34162521C5200B0FBF2F048457B
:1019F00017D9A06810F0F00F0CD0880711D5A8688F
:101A000040B10EE0474AE5E78003D0E700F092F8E6
:101A1000484506D9A06820F0F00040F08000A060A2
:101A20008027A068696820F003000843A060FFF7E2
:101A300095FE814606E000BFFFF790FEA0EB09018E
:101A400051453AD8A068696800F00C00B0EB810FEE
:101A5000F2D12868810714D5400703D5A06840F467
:101A6000E060A0602878000705D5A06820F46050E9
:101A700040F4E060A060A068A96820F0F00008438E
:101A800004E0802F03D1A06820F0F000A060D8F817
:101A90000010404601F00F01B14216D9016821F053
:101AA0000F0131430160FFF759FE074607E000BF11
:101AB000FFF754FEC11B514501D903207AE7D8F83E
:101AC000000000F00F00B042F2D12878400705D5A1
:101AD000A068E96820F4E0600843A0602878000767
:101AE00006D5A068296920F4605040EAC100A060D2
:101AF00000F020F8A1680C4AC1F30311515C01F019
:101B00001F01C8400949086009480068BDE8F0475E
:101B1000FFF742BE002002400010024000B4C4049F
:101B20000024F40000366E01583E000844000020F6
:101B300038000020184910B58868C0F381021748A2
:101B4000012A0BD08A68164BC2F38102022A06D002
:101B50008A68C2F38102032A03D0002010BD184610
:101B600010BDCA6802F00304CA68C2F30312521C13
:101B7000032C02D0B0FBF2F001E0B3FBF2F0CA6834
:101B8000C968C2F306225043C1F34161491C4900B0
:101B9000B0FBF1F010BD0000001002400024F40082
:101BA00000366E012DE9F84304007AD02078F84D14
:101BB000C00747D0A868E96800F00C0001F00301F5
:101BC0000C2802D0082817D001E0032914D060683F
:101BD000B0F5803F17D0B0F5A02F286817D020F4BB
:101BE00080302860286820F4802028606068E0B198
:101BF000FFF7B4FD064614E02868800322D560682C
:101C00000028D2D01EE0286840F48030EDE740F490
:101C100080202860F7E700BFFFF7A0FD801B642845
:101C200070D828688003F7D50CE0FFF797FD0646CB
:101C300005E000BFFFF792FD801B6428F0D82868FC
:101C40008003F7D4207880074CD5A868E96800F0B5
:101C50000C0001F003010C2802D004280DD001E093
:101C600002290AD0E068002828682BD040F4807050
:101C70002860FFF773FD064619E02868400502D585
:101C8000E068002891D06868217C20F0FE4040EA9E
:101C900001606860BF480068FFF77EFD002800D142
:101CA00020E072E1FFF75AFD801B0228B8D82868AF
:101CB0004005F7D56868217C20F0FE4040EA0160CD
:101CC00068600FE020F480702860FFF747FD06464B
:101CD00005E000BFFFF742FD801B0228A0D828685E
:101CE0004005F7D42078000729D560690028D5F889
:101CF000940013D040F00100C5F89400FFF72EFDCA
:101D0000064606E090E000BFFFF728FD801B022892
:101D100086D8D5F894008007F6D510E020F00100B1
:101D2000C5F89400FFF71AFD064604E0FFF716FD1C
:101D3000801B022878D8D5F894008007F6D4207844
:101D4000400761D5A86D0026C00008D4A86D40F0FA
:101D50008050A865A86D012600F0805000908E4844
:101D60000168C90511D40168804641F480710160A1
:101D7000FFF7F4FC074604E0FFF7F0FCC01B022865
:101D800052D8D8F80000C005F6D5A068012815D0B3
:101D90000528D5F8900016D020F00100C5F8900075
:101DA000D5F8900020F00400C5F89000A06841F23A
:101DB0008838B8B1FFF7D2FC07460EE0D5F890009E
:101DC00040F00100F0E740F00400C5F89000F5E7AE
:101DD000FFF7C4FCC11B414526D8D5F89000800709
:101DE000F6D50CE0FFF7BAFC074604E0FFF7B6FCB7
:101DF000C11B414518D8D5F890008007F6D41EB114
:101E0000A86D20F08050A8652078800629D5A069AB
:101E10000028D5F8980013D040F00100C5F89800CC
:101E2000FFF79CFC064606E075E000BFFFF796FC56
:101E3000801B02286FD8D5F898008007F6D510E0EF
:101E400020F00100C5F89800FFF788FC064604E082
:101E5000FFF784FC801B02285DD8D5F89800800726
:101E6000F6D4E069F0B3A968C1F3810103295DD01C
:101E70000228286820F08070286003D0FFF76EFCED
:101E800004464BE0FFF76AFC064604E0FFF766FCF9
:101E9000801B02283FD828688001F7D4F4E90801A4
:101EA0006FF00F0202EB01110843218A5204490826
:101EB00002EB4151A26841EA02210843217D4FF023
:101EC0007E42490802EB41610843217B40EAC16040
:101ED000E968324A11400843E860286840F08070A1
:101EE000286000E05EE0E86840F08070E860FFF79E
:101EF00035FC044605E000BFFFF730FC001B02285C
:101F000009D828688001F7D54CE000BFFFF726FC10
:101F1000001B022802D90320BDE8F883286880014D
:101F2000F4D4E8681E490840E8603BE00128F3D09B
:101F3000E868226A00F00301914226D1616A00F04C
:101F4000F0020901103991421FD1A26A00F4FE414A
:101F5000B1EB022F19D194F82C2000F07841B1EBAD
:101F6000C26F12D1218E00F4C00249084905A1F5C3
:101F70000011914209D194F8341000F0C060490872
:101F80004906A1F1007181420CD00120C4E7000094
:101F90000010024038000020007000400C809F01BB
:101FA000FCFFEEFE0020B7E710B5401EB0F1807FC9
:101FB00001D3012010BD4FF0E02460610F216017B4
:101FC00001F0B6FB0020A06107202061002010BDB9
:101FD000704770477047704770477047F0B590F88A
:101FE0003C20012A3AD0012580F83C50022280F89A
:101FF0003D2003685A689C68194E1A4FB34201D0BD
:10200000BB4204D122F4700C4A6842EA0C02DFF8A9
:1020100058C002EA0C02D1F800C04CEA020CC3F826
:1020200004C00268B2420DD0B2F1804F0AD00F4B0B
:102030009A4207D00E4B9A4204D0BA4202D00D4BBE
:102040009A4204D1896824F080031943916080F892
:102050003D50002180F83C100846F0BD0220F0BD44
:10206000002C0140003401408FFFFFFD00040040C0
:102070000008004000400140704710B5040003D044
:1020800094F83D0010B107E0012010BD002084F855
:102090003C00204600F022F8022084F83D00211D7B
:1020A000206801F037FA012084F8480084F83E00E7
:1020B00084F83F0084F8400084F8410084F842002E
:1020C00084F8430084F8440084F8450084F846000E
:1020D00084F8470084F83D00002010BD10B586B09C
:1020E000044614216846FEF7D6F9226800233048DA
:1020F0000221B2F1804F25D02E4CA24245D1826DF3
:1021000042F002028265826D02F002020592C26C08
:1021100042F00202C264C06C00F002000590102080
:102120008DE80B00CDE9033169462348FFF7E8F954
:10213000002211461D20FFF777FB1D20FFF766FBED
:1021400006B010BD826D42F001028265826D02F020
:1021500001020592C26C42F00102C264C06C00F040
:10216000010005904FF400408DE80B000120CDE9FF
:10217000033069464FF09040FFF7C2F90022114644
:102180001C20FFF751FB1C20D8E70C498A42D7D10D
:10219000016E41F480210166006E002200F480206F
:1021A000059011461A20FFF73FFB1A20C6E70000F2
:1021B00000100240000400400004004800480140B4
:1021C00090F83D10012901D001207047022180F8CC
:1021D0003D100168CA6842F00102CA6000681049F7
:1021E00088420ED0B0F1804F0BD00E49884208D003
:1021F0000D49884205D00D49884202D00C498842D9
:1022000007D181680B4A1140062906D0B1F5803FFD
:1022100003D0016841F00101016000207047000017
:10222000002C014000040040000800400034014040
:10223000004001400700010070B5044690F83C00E2
:102240000025012814D0012684F83C60022084F87F
:102250003D0022689068364B184020F47F40906023
:10226000086870282ED010DC10F00F0F03D021E08A
:102270004FF0020070BD4FEA2012072A1AD2DFE8A1
:1022800002F0525252524A3840002A4BC21A984227
:1022900049D009DCB0F5805F0DD0B0F5005F1CD0EF
:1022A000B0F1101F06D13EE0102A3CD0202A3AD0CF
:1022B000502A38D0012584F83D60002084F83C0085
:1022C000284670BDCB68D1E90121206801F08DF965
:1022D0002068816841F0770109E0CB68D1E90121EC
:1022E000206801F082F92068816841F480418160B2
:1022F000E1E7CA684968206801F08CF9502120683C
:1023000006E0CA684968206801F0CCF960212068BD
:1023100001F076F9CFE7CA684968206801F07AF9D8
:1023200040212068F4E7226801461046F0E70000EB
:1023300088FFCEFF2000100070B50446006800251D
:102340000B4EB0F1804F06D10021204600F014FB67
:1023500070602068456207492068884206D10021E4
:10236000204600F009FB30602068456270BD000027
:1023700048000020000400402DE9F041054690F897
:102380003C0000260C46012810D0012085F83C00B6
:1023900072B1042A1CD0082A2CD00C2A50D0012655
:1023A000002085F83C003046BDE8F0810220FBE7C4
:1023B000D4E90012E368286801F03EF928688169D1
:1023C00021F00C01816128688169A26811430FE046
:1023D000D4E90012E368286801F076F92868816979
:1023E00021F44061816128688169A26841EA022183
:1023F0008161D5E72868D4E9002C277B036A016A4C
:1024000021F480710162C16923F4206321F003018A
:1024100041EA0C0121F0F00C39074FF420674CEA37
:10242000116107EA02221A43C16102622868C16988
:1024300021F00C01C1612868C169A26811432BE039
:102440002868D4E90021E768036AD0F820C02CF49A
:10245000805CC0F820C0D0F81CC023F420432CF4CA
:10246000407C4CEA012121F4704C4FF6FF7101EAE7
:1024700007314FF4204741EA0C0107EA02321A43C0
:10248000C16102622868C16921F44061C1612868A4
:10249000C169A26841EA0221C16181E710B5040067
:1024A00003D094F83D0010B107E0012010BD0020DA
:1024B00084F83C00204600F022F8022084F83D0019
:1024C000211D206801F026F8012084F8480084F8D6
:1024D0003E0084F83F0084F8400084F8410084F80E
:1024E000420084F8430084F8440084F8450084F8EE
:1024F000460084F8470084F83D00002010BD704776
:1025000010B5044679B1042912D0082915D00C2938
:1025100018D0102919D094F8430000BF94F8472030
:10252000012817D114E094F83E0094F84420F7E70E
:1025300094F83F0094F84520F2E794F8400094F8AE
:102540004620EDE794F84100E8E794F84200E5E71B
:10255000012A01D0012010BD022081B3042934D00A
:10256000082937D00C293AD010293BD084F84300F1
:1025700084F847000122206801F02AF81B492068EE
:1025800088420ED0B0F1804F0BD01949884208D054
:102590001849884205D01849884202D01749884214
:1025A00007D18168164A1140062906D0B1F5803F4F
:1025B00003D0016841F001010160002010BDFFE778
:1025C00084F83E0084F84400D4E784F83F0084F89F
:1025D0004500CFE784F8400084F84600CAE784F855
:1025E0004100C5E784F84200C2E70000002C01402A
:1025F0000004004000080040003401400040014059
:102600000700010030B50446002571B1042911D03E
:10261000082914D00C2917D0102918D094F8430099
:1026200094F84720012817D114E094F83E0094F85C
:102630004420F7E794F83F0094F84520F2E794F837
:10264000400094F84620EDE794F84100E8E794F85C
:102650004200E5E7012A01D0012030BD022079B116
:10266000042916D008291DD00C2949D010294AD098
:1026700084F8430084F847000C2947D001253DE049
:1026800084F83E0084F844002068C26842F00202E8
:1026900010E084F83F0084F845002068C26842F0EA
:1026A000040207E084F8400084F846002068C2680D
:1026B00042F00802C2600122206800F089FF16493A
:1026C000206888420ED0B0F1804F0BD01349884269
:1026D00008D01349884205D01249884202D01249D5
:1026E000884207D18168114A1140062906D0B1F508
:1026F000803F03D0016841F001010160284630BDF0
:1027000084F84100B6E784F84200B3E72068C26865
:1027100042F01002CEE70000002C0140000400400F
:102720000008004000340140004001400700010063
:102730002DE9F04104460068C66805694FF00007BE
:10274000A90713D5B10711D5F91E01610120207722
:10275000206880698007204602D0FFF7EDFD04E085
:1027600000F0B7F8204600F0B5F82777680716D5CF
:10277000700714D521686FF00400086102202077EB
:102780002068806910F4407F204602D0FFF7D4FD16
:1027900004E000F09EF8204600F09CF82777280718
:1027A00015D5300713D521686FF0080008610420A3
:1027B00020772068C0698007204602D0FFF7BCFD63
:1027C00004E000F086F8204600F084F82777E80659
:1027D00016D5F00614D521686FF0100008610820A6
:1027E00020772068C06910F4407F204602D0FFF7B0
:1027F000A3FD04E000F06DF8204600F06BF82777A9
:10280000E80708D0F00706D021686FF001000861E2
:10281000204600F061F8280601D4A80408D5300647
:1028200006D521686FF4025008612046FFF7D1FBFE
:10283000E80508D5300606D521686FF48070086178
:102840002046FFF7C5FB680608D5700606D5216847
:102850006FF040000861204600F0A3F8A80608D5F4
:10286000B00606D521686FF0200008612046FFF70A
:10287000B1FBE80208D5F00206D521686FF480109C
:1028800008612046FFF7A8FBA80208D5B00206D5CC
:1028900021686FF4001008612046FFF79CFB680276
:1028A00008D5700206D521686FF4800008612046C3
:1028B000FFF793FB28020AD5300208D521686FF490
:1028C000000008612046BDE8F041FFF7D5BBBDE838
:1028D000F08170477047000070B500682349884256
:1028E0003ED1234D01212846FEF72EFF214C022127
:1028F00020722846FEF728FF207404212846FEF7A0
:1029000023FF207601214FF09040FEF71DFF0121AB
:1029100084F820000A46002304EBC100457825B165
:10292000012D07D0022D18D10CE014F83150A5B9B3
:10293000427012E014F8315015B9022545700CE0D0
:1029400043700AE014F83150002D456803D0642D1F
:1029500007D2827007E06D1C4560491C0429DBDD4D
:1029600070BD032585704360EAE700000048014020
:1029700000040048600200200246002041B1042902
:1029800009D008290AD00C2901D11068006C7047C1
:102990001068406B70471068806B70471068C06BA0
:1029A00070477047FEE700002DE9F05F6848006857
:1029B0006421B0FBF1F201FB1201002665484FF0E3
:1029C0000108322902D980F8068000E0867182462B
:1029D000407900287ED19AF806105046012979D115
:1029E0005D4B5E4FDFF878C11B68B7FBF3F4C3683B
:1029F0001C440462DCF800C0B7FBFCFC634497FB9A
:102A0000F4FC97FBF3F7C0E90AC743624769BC428D
:102A100002DD80F8088000E0067290F807C0BCF183
:102A2000000F0AD190F808C0BCF1010F05D1D0F811
:102A300030C00CF1010CC0F830C090F808C080F82C
:102A400007C0BB4202DD80F80A8000E08672477A48
:102A50002FB9877A012F02D1476B7F1C4763877A92
:102A60004772DFF8008107784FF01E0C48F82740C6
:102A70007F1CB7FBFCF40CFB14740470447808F161
:102A8000780747F82430641CB4FBFCF30CFB1343B9
:102A90008AF8013000231C469C464FF0013700BFE6
:102AA00058F82C00B8420BD05B1CDBB2012B01D1D3
:102AB00002460146884200DA0146904200DD0246A5
:102AC0000CF1010CBCF11E0FEADB511AD046DAF80A
:102AD00010B000E035E059450CDD5BB1D8F81800C6
:102AE0000122401CC8F8180078211E48FDF7CBFCD5
:102AF00088F800601B4A002112F1780252F8210088
:102B0000B8420BD0641CE4B2012C01D181460546C9
:102B1000A84200DA0546484500DD8146491C1E29C9
:102B2000ECDBA9EB0501454659450ADD4CB1E869E6
:102B30000122401CE8610B4878217830FDF7A3FCA6
:102B40006E709AF806108AF80510BDE8F09F000034
:102B500040000020000000204C00002040420F00F8
:102B6000480000208C00002000B585B01421684684
:102B7000FDF791FC4FF6FF70009000200321CDE996
:102B80000201019069460248FEF7BAFC05B000BD9B
:102B90000008004800B585B014216846FDF77BFCAD
:102BA0004FF6FF7000900120019003200390002059
:102BB000029069460248FEF7A3FC05B000BD000084
:102BC0000008004870B5002406462146204600F063
:102BD00003F900F041F94FF49635304600F010F952
:102BE000641CAC42F9D370BD30B587B0142168467F
:102BF000FDF751FC1E48C16C41F00401C164C16C79
:102C000001F004010591C16C41F00101C164C16C86
:102C100001F001010591C16C41F00201C164C06C79
:102C2000012500F0020005904FF44870CDE9000541
:102C300000240394694602940E48FEF761FC2802C2
:102C400003940090CDE901544FF09044694620462A
:102C5000FEF756FCFFF79EFFA06940F48070A0616C
:102C600004481830016841F40871016007B030BDB4
:102C70000010024000040048203AD2B2034B02EB9D
:102C8000420203EB021200F019B80000683E00088F
:102C9000F0B50E460746002540F23F1407E02146F6
:102CA0003846FFF7E9FF103C6D1CA4B2761C327861
:102CB000002A01D0142DF2D3F0BD00002DE9F04719
:102CC00091468A460026044600F086F8DFF84080E8
:102CD000012700BF00F0C0F85FF0000539F81600CA
:102CE00007FA05F10842404601D1408800E000881B
:102CF00000F086F86D1C102DF0D3641CE4B2514630
:102D0000204600F069F8761C182EE3D3BDE8F08762
:102D10005000002010B5FFF767FF002000F014F806
:102D2000084CA080A088A0F50241303906D000F000
:102D30009FFA002000F008F8A08010BD00F00FFA04
:102D4000F7E700005000002070B51D490A6842F402
:102D500000720A600A6842F480720A60184C103CE3
:102D6000226842F020022260164A1060086840F093
:102D70002000086000BF00BF00BF206840F02000B6
:102D80002060206840F480702060FFF7EDFE4FF077
:102D90009041886A40F48070886200BF00BF00BF25
:102DA0000848001F006885B2886940F48070886117
:102DB000FFF7F0FE206840F400702060284670BDE8
:102DC000280400481408004801B5BDF80000014976
:102DD000488008BD5000002010B50C460146202058
:102DE00000F068F82146BDE81040212000F062B8EC
:102DF00001B5BDF800000149088008BD5000002061
:102E0000134A116841F400711160114910390B68BF
:102E100043F480730B600B6843F020030B600D4B91
:102E20001860106840F02000106000BF00BF00BFB5
:102E3000086840F020000860086840F4807008606E
:102E400000BF00BF00BF086840F400700860704712
:102E500028040048140800481449086840F4007029
:102E60000860086840F480700860104810380268F4
:102E700042F0200202600E4B22221A600A6842F0E1
:102E800020020A6000BF00BF00BF016841F02001BE
:102E90000160016841F48071016000BF00BF00BFA4
:102EA000016841F400710160704700002804004887
:102EB00014080048184B10B51A6842F400721A60E2
:102EC0001A6842F480721A60134A103A146844F087
:102ED00020041460114C2060186840F02000186035
:102EE00000BF00BF00BF106840F0200010601068F5
:102EF00040F4807010602160186840F02000186075
:102F000000BF00BF00BF106840F0200010601068D4
:102F100040F48070106010BD280400481408004878
:102F2000F0B587B014216846FDF7B5FA2D48C16C9D
:102F300041F00401C164C16C01F004010591C16C50
:102F400041F02001C164C16C01F020010591C16C08
:102F500041F00101C164C16C01F001010591C16C36
:102F600041F00201C164C16C01F002010591C16C24
:102F700041F00801C164C06C1B4E00F008004FF422
:102F80007F440590012221463046FEF7E2FB174FB1
:102F9000002204213846FEF7DCFB0125CDE900457F
:102FA00000240294694630460394FEF7A9FACDE95D
:102FB000005469464FF090400295FEF7A1FA0720B1
:102FC0008DE8310069460A48FEF79AFA042000901D
:102FD000CDE90154694638460394FEF791FA07B0EB
:102FE000F0BD00000010024000080048000C00483E
:102FF000000400480C4810B50A4901604F214160A7
:10300000002142F20F72C0E9021201614161816147
:10301000FFF733F8002803D0BDE81040FEF75BBA95
:1030200010BD0000004801401402002010B58CB013
:1030300000240594214804940694079408940A9463
:1030400009940094019402944FF08041039401602C
:103050004F21C0E90114611EC0E903148461FFF728
:103060000CF808B1FEF737FA4FF48050049004A929
:103070001248FFF7E1F808B1FEF72DFA0F48FFF705
:103080000DFA08B1FEF727FA089408A90B480A942C
:10309000FEF7A4FF08B1FEF71EFA0120CDE90040BB
:1030A00002940022694605480394FFF765F9002859
:1030B00001D0FEF710FA0CB010BD00007C0100201A
:1030C00010B58CB00024059422480494069407940B
:1030D00008940A9409940094019402941C4903945E
:1030E00001604F21C0E901144FF6FF71C0E90314DC
:1030F0008461FEF7C2FF08B1FEF7EDF94FF480508E
:10310000049004A91348FFF797F808B1FEF7E3F914
:103110001048FFF7C3F908B1FEF7DDF9089408A9D4
:103120000C480A94FEF75AFF08B1FEF7D4F90120C3
:10313000CDE9004002940022694606480394FFF757
:103140001BF9002801D0FEF7C6F90CB010BD000035
:1031500000040040C8010020FEE7FEE7704730B5DC
:1031600001210020FFF7A6FE4FF47A70FEF7A5F9C3
:1031700000210120FFF79EFE41F290711020FFF721
:1031800099FE4FF41C516020FFF794FE012161204D
:10319000FFF790FE02214620FFF78CFE48F2100157
:1031A0001320FFF787FE48F2FE011220FFF782FE90
:1031B0004FF4A0610220FFF77DFE41F230010320B1
:1031C000FFF778FE40F2033421463020FFF772FE0D
:1031D00021463120FFF76EFE21463220FFF76AFEBE
:1031E000E51E29463320FFF765FE03213420FFF753
:1031F00061FE21463520FFF75DFE14213620FFF7E2
:1032000059FE21463720FFF755FE21463820FFF7AB
:1032100051FE21463920FFF74DFE29463A20FFF79F
:1032200049FE03213B20FFF745FE21463C20FFF7E6
:1032300041FE4FF4A0513D20FFF73CFE4FF40071DA
:103240009220FFF737FE21469320FFF733FE40F62A
:103250000D019020FFF72EFE41F218010320FFF729
:1032600029FEBDE8304040F273110720FFF722BE6F
:1032700010B543F20801E320FFF71CFE1221E720FE
:10328000FFF718FE41F23121EF20FFF713FE002176
:103290000120FFF70FFE4FF4E0610220FFF70AFE66
:1032A00041F230010320FFF705FE00210420FFF763
:1032B00001FE40F207210820FFF7FCFD0021092054
:1032C000FFF7F8FD00210A20FFF7F4FD00210C2094
:1032D000FFF7F0FD00210D20FFF7ECFD00210F208E
:1032E000FFF7E8FD00211020FFF7E4FD0721112082
:1032F000FFF7E0FD00211220FFF7DCFD0021132085
:10330000FFF7D8FDC820FEF7E9F841F290611020E0
:10331000FFF7D0FD40F227211120FFF7CBFD32202F
:10332000FEF7DCF81D211220FFF7C4FD3220FEF766
:10333000D5F84FF400611320FFF7BCFD14212920BC
:10334000FFF7B8FD0B212B20FFF7B4FD3220FEF76D
:10335000C5F800212020FFF7ADFD00212120FFF757
:10336000A9FD07213020FFF7A5FD40F207713120AC
:10337000FFF7A0FD06213220FFF79CFD40F204710B
:103380003520FFF797FD41F604713620FFF792FDD7
:1033900004213720FFF78EFD00213820FFF78AFD3A
:1033A00040F206713920FFF785FD40F201713C20A3
:1033B000FFF780FD0F213D20FFF77CFD002150200D
:1033C000FFF778FDEF215120FFF774FD0021522017
:1033D000FFF770FD40F23F115320FFF76BFD4FF4F4
:1033E0001C516020FFF766FD01216120FFF762FD9F
:1033F00000216A20FFF75EFD00218020FFF75AFDC3
:1034000000218120FFF756FD00218220FFF752FDA9
:1034100000218320FFF74EFD00218420FFF74AFDA5
:1034200000218520FFF746FD10219020FFF742FD87
:1034300000219220FFF73EFD03219320FFF73AFD84
:103440004FF488719520FFF735FD00219720FFF795
:1034500031FD00219820FFF72DFD41F218010320D6
:10346000FFF728FDBDE8104040F273110720FFF779
:1034700021BD7047FEF778B910B594B03821684681
:10348000FDF709F814210EA8FDF705F84FF40070B8
:10349000FEF7FCF9012000900004019002200324B3
:1034A000CDE907041421CDE90A100C900D90099480
:1034B0006846FEF777FB08B172B6FEE70F20CDE94C
:1034C0000E04002010901190129002210EA8FEF719
:1034D00043FA002801D072B6FEE714B010BD000018
:1034E0000248016841F470010160704788ED00E016
:1034F0000148FFF71DB90000140200200148FFF742
:1035000017B900007C0100200148FFF711B9000045
:10351000C80100202DE9F0430268264B264D274EB6
:10352000274C4FF08049984207D0484505D0A84223
:1035300003D0B04201D0A04203D122F070074A6804
:103540003A43204FDFF880C0DFF8808098420DD0EA
:1035500048450BD0A84209D0B04207D0A04205D0C0
:10356000B84203D0604501D0404503D122F44075F4
:10357000CA682A434D6922F080022A4302608A68A1
:10358000C2620A688262984207D0A04205D0B8425F
:1035900003D0604501D0404501D109690163012193
:1035A00041610169C90703D0016921F0010101618D
:1035B000BDE8F083002C01400004004000080040FA
:1035C00000340140004001400044014000480140F7
:1035D00010B501F01F030121046A99408C43046275
:1035E000016A9A401143016210BD10B5846842EA35
:1035F000032224F47F440A432243826010BD00006A
:103600008268034B1A400A4342F007018160704709
:103610008FFFCFFF10B5036A046A24F0010404622F
:10362000846924F0F00444EA021423F00A020A43F5
:103630008461026210BD000070B5056A046A24F05E
:10364000010404628469124EB0420ED0B0F1804F82
:103650000BD0104EB04208D00F4EB04205D00F4EE6
:10366000B04202D00E4EB04203D124F00304144302
:1036700001E044F001041A0724F0F00444EA126265
:1036800025F00A0301F00A0119438261016270BD4D
:10369000002C0140000400400008004000340140BC
:1036A0000040014010B5036A046A24F0100404626B
:1036B000846923F0A00324F4704444EA023243EA0C
:1036C00001118261016210BD30B5046A056A25F0FE
:1036D00010050562856925F4407545EA022222F449
:1036E00070454FF6FF7202EA033224F0A0032A432A
:1036F000A02404EA011119438261016230BDFEE792
:1037000003B401984100009850EAC12018BF04207A
:103710004A0D18BF40F0010040F2FF72B2EB515F5A
:1037200008BF40F00200012808BF052002B0704722
:103730000907090E002804DB00F1E02080F80014DE
:10374000704700F00F0000F1E02080F8141D704772
:1037500030380A2801D2012070470020704700004D
:103760002DE9F0413F4D0327002695F822003E4CFD
:10377000012813D1A078401CB0FBF7F107FB110022
:10378000A0700020FFF71EFAA07810B1012802D027
:1037900002E0E67000E0267185F82260A87E01282C
:1037A00002D0032818D013E0A07830B9E1780120C6
:1037B0008843E0700020FFF705FAA078012806D1C1
:1037C0002079401CB0FBF7F107FB11002071AE76A9
:1037D000A87A012815D02AE0A0780228F7D16663DC
:1037E0002663E661012278212048A661FCF74BFEA2
:1037F0001E482670012278217830FCF744FE66705E
:10380000E5E7A078012811D1207920B1012806D060
:10381000022808D00AE020696430206106E060696F
:103820006430606102E0E0686430E060AE72A87C01
:10383000012815D1A078012811D1207920B10128C3
:1038400006D0022808D00AE020696438206106E02A
:1038500060696438606102E0E0686438E060AE741A
:10386000BDE8F08160020020000000208C000020F4
:1038700070B57F4C2DED028BA07800285CD1E078EC
:103880004FF47A759FED7B8A00287F487AA10DD08E
:10389000FCF722FD7C491820FFF7FAF9A26A002AFA
:1038A0004EDA7AA17848FCF717FD62E0FCF714FDC8
:1038B00075491820FFF7ECF9226A002A04DA73A18F
:1038C0007148FCF709FD18E0AA4204DA73A16E48BA
:1038D000FCF702FD11E000EE102AF8EEC00A80EEBF
:1038E000880A10EE100A00F03FFA41EC100B6FA1AD
:1038F00053EC102B6448FCF7EFFC63494820FFF7BA
:10390000C7F9626A002A3BDBAA4201DA6CA13FE0F8
:1039100000EE102AF8EEC00A80EE880A10EE100AB7
:1039200000F022FA41EC100B69A153EC102B42E09D
:1039300055496020FFF7ACF9A07801283FD061E03D
:10394000AA4204DA67A15048FCF7C6FC11E000EE79
:10395000102AF8EEC00A80EE880A10EE100A00F075
:1039600003FA41EC100B63A153EC102B4648FCF713
:10397000B3FC45494820FFF78BF9E26A002A04DAD4
:1039800061A14148FCF7A8FCD2E7AA4204DA62A18F
:103990003D48FCF7A1FCCBE700EE102AF8EEC00A88
:1039A00080EE880A10EE100A00F0DEF941EC100BF0
:1039B0005DA153EC102B3448FCF78EFCB8E75FA1F7
:1039C0003148FCF789FC30491820FFF761F95FA105
:1039D0002D482269FCF780FC2B494820FFF758F955
:1039E0005EA129486269FCF777FC27496020FFF750
:1039F0004FF95EA12448E268FCF76EFC224978206A
:103A0000FFF746F9A07802282FD15CA11E48FCF7E9
:103A100063FC1D491820FFF73BF95CA11A48A26915
:103A2000FCF75AFC18494820FFF732F95BA1164809
:103A3000E269FCF751FC14496020FFF729F95BA10A
:103A40001148226BFCF748FC0F497820FFF720F95A
:103A50005AA10D48626BFCF73FFCBDEC028B902035
:103A6000BDE870400849FFF713B9BDEC028B70BD8B
:103A70000000002000007A44202020202020202068
:103A800044415441202000005800002020202020E4
:103A900020413D4E554C4C2020202000202020204D
:103AA00020413D2564487A2020202000202020202D
:103AB00020413D252E32664B487A202020200000F0
:103AC0002020202020423D2564487A20202020000C
:103AD0002020202020423D252E32664B487A20208F
:103AE000202000002020202020413D2564757320E7
:103AF000202020002020202020413D252E32666DF0
:103B000073202020200000002020202020423D4E55
:103B1000554C4C20202020002020202020423D25F4
:103B200064757320202020002020202020423D2585
:103B30002E32666D732020202000000020202020DF
:103B40002020202050415241202000002020202011
:103B50002050443D2564487A202000002020202069
:103B60002050483D2564487A202000002020202055
:103B70002050583D2564487A202000002020202035
:103B800020202020524543442020000020202020D7
:103B9000204E44413D2564202000000020202020AC
:103BA000204E44423D25642020000000202020209B
:103BB000204E48413D256420200000002020202088
:103BC000204E48423D256420200000001749184837
:103BD0008B78028853B122F0020202800B6A4A6994
:103BE0009342038805DD43F0040304E042F002023F
:103BF000F3E723F0040303804B6A9342028802DD5B
:103C000042F0080201E022F0080202808A69032AD9
:103C100002DAC969032903DB018841F4807102E0FB
:103C2000018821F4807101807047000000000020AD
:103C30005600002070B50E4D4FF6FF74012221464C
:103C40002846FDF786FD0B480022008804EAC011D3
:103C50002846FDF77EFD084C012204212046FDF791
:103C600078FD2046BDE8704000220421FDF771BDBB
:103C70000008004856000020000C0048FDF77CFDBD
:103C8000FFF7FAFBFFF74CF9FFF7D0F9FFF718FA47
:103C9000FFF7B0F9FFF73EF80020FEF793FF002092
:103CA000FFF792F84FF6FF70FFF7A2F81B490020CC
:103CB0000880FFF7BFFF1A48FEF782FA1948FEF79F
:103CC0007FFA00211748FEF79DFC00211548FEF7FA
:103CD00017FC1548FEF774FA00211348FEF792FC12
:103CE00000211148FEF70CFC012278210F48FCF757
:103CF000CAFB0E48012278217830FCF7C4FB0A2069
:103D0000FDF7ECFBFEF750FEFFF7B2FDFFF728FDD5
:103D1000FFF75CFFFFF78EFFF4E70000560000207E
:103D2000140200207C010020C80100208C0000202B
:103D300010B500290AD00878002807D00548784433
:103D4000FCF7AAFF002801D0002010BD02487844EB
:103D500010BD0000AE130000A61300000808A0F577
:103D600000114FEA3101704743004FEAD30C4FEA8C
:103D70003C0C43401FBF40070CF1605113F0FE4F55
:103D800070471CF0006F03D100200CF00041704719
:103D90000CF0004343EA507010B540EACC0000F04C
:103DA0000EF800BF000000924FEA0001FFF7D6BFF7
:103DB0004FF000414FF00000A1F5002170470EF1D7
:103DC000020E2EF0030E5EF8044B244204D44FEA98
:103DD0004102B2F17F4F11D84FEA4003B3F17F4F58
:103DE0000CD80ED14FEAD07CB2F17F4F0CEB4C0CCB
:103DF0000CF1020C08BF4CEBD17C04E04FF0080C36
:103E000001E04FEAD17C0CEB4C0324FA03F404F0FC
:103E10000704B4F1040C06D20EEB840CBDE810408C
:103E20004CF0010C6047DFE80CF0070802024FF08D
:103E30000040A0F5800010BD0846420018BFD2F136
:103E4000807288BF00F0004010BD4FF04070E1EE7E
:103E5000100A7047FCF77BBC000000000000000067
:103E6000010203040607080900000000000000002A
:103E70000000000000000000000000000000000042
:103E80000000000000000000000000000000000032
:103E9000000000000000000000008001800180019F
:103EA000800180018001800180018001800180010A
:103EB00080018001000000008001800100000000FE
:103EC000000000000000000000000000CC00CC005A
:103ED000CC00CC00CC00CC000000000000000000B2
:103EE00000000000000000000000000000000000D2
:103EF00000000000000000000000000000000000C2
:103F000000000000600C600C600C30063006FE1FE4
:103F1000FE1F300638071803FE1FFE1F1803180384
:103F20008C018C018C01000000008000E003F80F80
:103F30009C0E8C1C8C188C009800F801E007800EF9
:103F4000801C8C188C189C18B80CF00FE0038000B3
:103F500080000000000000000000000000000E18BB
:103F60001B0C110C11061106110311039B018E018C
:103F7000C038C06C60446044304430441844186C0D
:103F80000C380000000000000000E001F0033807DA
:103F9000180618063003F001F000F8009C310E33CB
:103FA000061E061C061C063FFC73F02100000000E4
:103FB0000000000000000000000000000C000C00E9
:103FC0000C000C000C000C000000000000000000C1
:103FD00000000000000000000000000000000000E1
:103FE000000000000000000000000002000380014B
:103FF000C000C000600060003000300030003000C1
:10400000300030003000300060006000C000C000B0
:104010008001000300020000000020006000C000DA
:104020008001800100030003000600060006000670
:104030000006000600060006000300038001800160
:10404000C000600020000000000000000000000030
:1040500000000000C000C000D806F807E0013003EF
:104060003807000000000000000000000000000011
:104070000000000000000000000000000000000040
:104080000000000080018001800180018001FC3F70
:10409000FC3F800180018001800180010000000060
:1040A0000000000000000000000000000000000010
:1040B0000000000000000000000000000000000000
:1040C00000000000000000000000800180010001ED
:1040D000000180000000000000000000000000005F
:1040E00000000000000000000000000000000000D0
:1040F000E007E007000000000000000000000000F2
:1041000000000000000000000000000000000000AF
:10411000000000000000000000000000000000009F
:1041200000000000000000000000C000C00000000F
:1041300000000000000000000000000C000C000661
:1041400000060006000300030003800380018001D5
:104150008001C000C000C0006000600000000000DE
:1041600000000000000000000000E003F007380E2F
:10417000180C0C180C180C180C180C180C180C181F
:104180000C180C18180C380EF007E00300000000A3
:104190000000000000000000000000018001C001DC
:1041A000F001980188018001800180018001800177
:1041B00080018001800180018001800100000000F9
:1041C00000000000000000000000E003F80F180CE1
:1041D0000C180C1800180018000C000600038001D1
:1041E000C000600030001800FC1FFC1F0000000031
:1041F00000000000000000000000E001F807180EB9
:104200000C0C0C0C000C0006C003C007000C0018BE
:1042100000180C180C18180CF807E0030000000038
:1042200000000000000000000000000C000E000F65
:10423000000F800DC00C600C600C300C180C0C0CC6
:10424000FC3FFC3F000C000C000C000C00000000C8
:1042500000000000000000000000F80FF80F180038
:1042600018000C00EC03FC071C0E001C00180018C2
:1042700000180C181C0C180EF807E00300000000D2
:1042800000000000000000000000C007F00F381C14
:10429000181818000C00CC03EC0F3C0E1C1C0C185A
:1042A0000C180C18181C380EF007E0030000000072
:1042B00000000000000000000000FC1FFC1F000CBC
:1042C00000060006000380038001C001C000E0007A
:1042D000600060007000300030003000000000001E
:1042E00000000000000000000000E003F007380EAE
:1042F000180C180C180C3806F007F007180C0C18DE
:104300000C180C180C18380CF80FE0030000000013
:1043100000000000000000000000E003F007380E7D
:104320001C0C0C180C180C181C1C381EF81BE0195F
:104330000018000C000C1C0EF807F0010000000033
:10434000000000000000000000000000000000006D
:10435000000000008001800100000000000000005B
:10436000000000000000000080018001000000004B
:10437000000000000000000000000000000000003D
:10438000000000008001800100000000000000002B
:104390000000000000000000800180010001000119
:1043A000800000000000000000000000000000008D
:1043B00000000000000000000010001C800FE0035F
:1043C000F8001800F800E003800F001C0010000047
:1043D00000000000000000000000000000000000DD
:1043E0000000000000000000F81F000000000000B6
:1043F000F81F0000000000000000000000000000A6
:1044000000000000000000000000000000000000AC
:10441000000000000000000008003800F001C007A4
:10442000001F0018001FC007F0013800080000003E
:1044300000000000000000000000E003F80F180C6E
:104440000C180C180018000C000600038001C000B6
:10445000C000C00000000000C000C000000000005C
:10446000000000000000000000000000E007181835
:104470000420C229224A114409440944094409225A
:104480001113E20C024004201818E007000000009D
:104490000000000000000000000080038003C00650
:1044A000C006C006600C600C301830183018F83F99
:1044B000F83F1C700C600C6006C006C000000000D5
:1044C00000000000000000000000FC03FC0F0C0CCA
:1044D0000C180C180C180C0CFC07FC0F0C180C30EA
:1044E0000C300C300C300C18FC1FFC0700000000D6
:1044F00000000000000000000000C007F01F383876
:104500001C300C700660060006000600060006005F
:10451000060006600C701C30F01FE0070000000071
:1045200000000000000000000000FE03FE0F060E69
:1045300006180618063006300630063006300630FB
:10454000063006180618060EFE0FFE0300000000D7
:1045500000000000000000000000FC3FFC3F0C00D9
:104560000C000C000C000C00FC1FFC1F0C000C00CD
:104570000C000C000C000C00FC3FFC3F0000000095
:1045800000000000000000000000F83FF83F1800A5
:104590001800180018001800F81FF81F180018005D
:1045A000180018001800180018001800000000007B
:1045B00000000000000000000000E00FF83F3C7821
:1045C0000E6006E007C00300030003FE03FE03C005
:1045D00007C006C00EC03CF0F83FE00F000000002E
:1045E000000000000000000000000C300C300C3017
:1045F0000C300C300C300C30FC3FFC3F0C300C30DD
:104600000C300C300C300C300C300C300000000042
:104610000000000000000000000080018001800117
:104620008001800180018001800180018001800182
:104630008001800180018001800180010000000074
:104640000000000000000000000000060006000658
:10465000000600060006000600060006000600062A
:104660000006180618063807F003E00100000000F5
:104670000000000000000000000006300618060CD4
:10468000060606038601C60066007600DE008E017F
:1046900006030606060C0618063006600000000039
:1046A00000000000000000000000180018001800C2
:1046B000180018001800180018001800180018003A
:1046C0001800180018001800F81FF81F000000005C
:1046D000000000000000000000000EE01EF01EF0D0
:1046E0001EF036D836D836D836D866CC66CC66CCEE
:1046F000C6C6C6C6C6C6C6C686C386C300000000F8
:10470000000000000000000000000C301C303C30B5
:104710003C306C306C30CC30CC308C310C330C33C2
:104720000C360C360C3C0C3C0C380C3000000000F5
:1047300000000000000000000000E007F81F1C3827
:104740000E70066003C003C003C003C003C003C0F3
:1047500003C006600E701C38F81FE0070000000060
:1047600000000000000000000000FC0FFC1F0C38DF
:104770000C300C300C300C300C18FC1FFC070C00FB
:104780000C000C000C000C000C000C0000000000E1
:1047900000000000000000000000E007F81F1C38C7
:1047A0000E70066003E003C003C003C003C003C073
:1047B00007E006630E3F1C3CF83FE0F700C0000036
:1047C00000000000000000000000FE0FFE1F063881
:1047D0000630063006300638FE1FFE0706030606C2
:1047E000060C0618061806300630066000000000A9
:1047F00000000000000000000000E003F80F1C0CA7
:104800000C180C180C001C00F803E00F001E0038F8
:10481000063006300E301C1CF80FE00700000000C8
:1048200000000000000000000000FE7FFE7F80010D
:104830008001800180018001800180018001800170
:104840008001800180018001800180010000000062
:10485000000000000000000000000C300C300C30A4
:104860000C300C300C300C300C300C300C300C3068
:104870000C300C300C301818F81FE0070000000056
:104880000000000000000000000003600630063059
:1048900006300C180C180C18180C180C380E3006B2
:1048A0003006700760036003C001C0010000000013
:1048B000000000000000000000000360C361C3614D
:1048C000C3616633663366336633663366336C1BA7
:1048D0006C1B6C1B2C1A3C1E380E380E000000009E
:1048E000000000000000000000000FE00C70183015
:1048F0003018700C600EC00780038003C003E00610
:10490000700C301C18180C300E6007E0000000001E
:104910000000000000000000000003C006600C3032
:104920001C383818300C6006E007C0038001800195
:104930008001800180018001800180010000000071
:1049400000000000000000000000FC7FFC7F006011
:1049500000300018000C000600038001C000600059
:10496000300018000C000600FE7FFE7F00000000F3
:1049700000000000000000000000E003E003600011
:104980006000600060006000600060006000600027
:104990006000600060006000600060006000600017
:1049A0006000E003E0030000000030003000600021
:1049B00060006000C000C000C000C0018001800134
:1049C0008001000300030003000600060000000051
:1049D00000000000000000000000E003E00300030E
:1049E00000030003000300030003000300030003AF
:1049F000000300030003000300030003000300039F
:104A00000003E003E003000000000000C001C0015B
:104A100060036003600330063006180C180C0000B9
:104A20000000000000000000000000000000000086
:104A30000000000000000000000000000000000076
:104A40000000000000000000000000000000000066
:104A500000000000000000000000FFFFFFFF00005A
:104A6000000000000000000000000C000C000C0022
:104A70000C000C000C000000000000000000000012
:104A80000000000000000000000000000000000026
:104A90000000000000000000000000000000000016
:104AA00000000000F003F8071C0C0C0C000FF00FC6
:104AB000F80C0C0C0C0C1C0FF80FF0180000000088
:104AC000000000000000000000001800180018009E
:104AD00018001800D803F80F380C181818181818F0
:104AE000181818181818380CF80FD8030000000010
:104AF00000000000000000000000000000000000B6
:104B000000000000C003F007300E180C1800180059
:104B100018001800180C300EF007C0030000000049
:104B2000000000000000000000000018001800183D
:104B300000180018C01BF01F301C1818181818187F
:104B4000181818181818301CF01FC01B000000009F
:104B50000000000000000000000000000000000055
:104B600000000000C003F00F300C1818F81FF81FE9
:104B7000180018003818301CF00FC00700000000A3
:104B800000000000000000000000800FC00FC00007
:104B9000C000C000F007F007C000C000C000C000A7
:104BA000C000C000C000C000C000C0000000000085
:104BB00000000000000000000000000000000000F5
:104BC00000000000E00DF80F180E0C0C0C0C0C0C83
:104BD0000C0C0C0C0C0C180EF80FE00D000C0C0C4F
:104BE0001C06F807F001000000001800180018006B
:104BF00018001800D807F80F381C181818181818BB
:104C00001818181818181818181818180000000084
:104C100000000000000000000000C000C000000014
:104C200000000000C000C000C000C000C000C00004
:104C3000C000C000C000C000C000C00000000000F4
:104C400000000000000000000000C000C0000000E4
:104C500000000000C000C000C000C000C000C000D4
:104C6000C000C000C000C000C000C000C000C00044
:104C7000C000F8007800000000000C000C000C00E0
:104C80000C000C000C0C0C060C038C01CC006C000E
:104C9000FC009C018C030C030C060C0C00000000B3
:104CA00000000000000000000000C000C000C000C4
:104CB000C000C000C000C000C000C000C000C000F4
:104CC000C000C000C000C000C000C0000000000064
:104CD00000000000000000000000000000000000D4
:104CE000000000007C3CFF7EC7E383C183C183C119
:104CF00083C183C183C183C183C183C1000000001C
:104D000000000000000000000000000000000000A3
:104D1000000000009807F80F381C18181818181809
:104D20001818181818181818181818180000000063
:104D30000000000000000000000000000000000073
:104D400000000000C003F00F300C181818181818D5
:104D5000181818181818300CF00FC00300000000C5
:104D60000000000000000000000000000000000043
:104D700000000000D803F80F380C1818181818187D
:104D8000181818181818380CF80FD803180018003D
:104D900018001800180000000000000000000000CB
:104DA00000000000C01BF01F301C1818181818183D
:104DB000181818181818301CF01FC01B00180018FD
:104DC000001800180018000000000000000000009B
:104DD00000000000B007F003700030003000300029
:104DE00030003000300030003000300000000000A3
:104DF00000000000000000000000000000000000B3
:104E000000000000E003F003380E180C3800F00337
:104E1000C007000C180C380EF007E003000000007B
:104E20000000000000000000000000008000C00042
:104E3000C000C000F007F007C000C000C000C00004
:104E4000C000C000C000C000C00780070000000014
:104E50000000000000000000000000000000000052
:104E60000000000018181818181818181818181822
:104E7000181818181818381CF01FE0190000000046
:104E80000000000000000000000000000000000022
:104E9000000000000C18180C180C180C3006300616
:104EA0003006600360036003C001C0010000000021
:104EB00000000000000000000000000000000000F2
:104EC00000000000C141C141C36163636363636368
:104ED0003636363636361C1C1C1C1C1C00000000E6
:104EE00000000000000000000000000000000000C2
:104EF000000000001C38381C300C600660036003A2
:104F0000600360036006300C381C1C380000000091
:104F10000000000000000000000000000000000091
:104F2000000000001830301830187018600C600C49
:104F3000E00CC006C006800380038003800180016E
:104F4000C001F00070000000000000000000000040
:104F500000000000FC1FFC1F000C00060003800185
:104F6000C000600030001800FC1FFC1F00000000A3
:104F70000000000000000000000000038001C000ED
:104F8000C000C000C000C000C00060006000300071
:104F900060004000C000C000C000C000C000C000F1
:104FA00080010003000000000000800180018001FA
:104FB00080018001800180018001800180018001E9
:104FC00080018001800180018001800180018001D9
:104FD000800180018001000000006000C000C0016D
:104FE0008001800180018001800100030003000630
:104FF00000030001800180018001800180018001A7
:10500000C000600000000000000000000000000080
:105010000000000000000000F010F81F080F000062
:105020000000000000000000000000000000000080
:10503000000000000000000002400000000000A08E
:105040000000000005400000000000C80000000053
:105050000C4000000000409C0000000019400000CF
:105060000020BCBE0000000034400000BFC91B8E01
:1050700000000004B5400000504BCFD06607E2CFDF
:10508000010000006C4100003E8251AADFEEA7340F
:1050900001000000D9420000DCB5A0E23A301F97C1
:1050A000FFFFFFFFB4450000FD25A0C8E9A3C14FE5
:1050B000FFFFFFFFFF3F0000000000800000000036
:1050C000FF3F0000000000800000000008510008C1
:1050D0000000002058000000140200086051000881
:1050E0005800002090080000300200081C0000005A
:1050F00043000000F8FFFFFF0C0000000E0000005E
:105100000F0000002E000000000000000001000160
:105110000001000000000000E80300008813000008
:10512000000000000000000000000000000000007F
:10513000000000000000000000000000000000006F
:105140001000000001000000000000000024F40036
:1051500000000000000000000000FFFF0000000051
:04000005080001D915
:00000001FF
